:100000000C94E5010C9416020C9416020C94160242
:100010000C9416020C9416020C9416020C94160200
:100020000C9416020C9416020C9416020C941602F0
:100030000C9416020C9416020C9416020C941602E0
:100040000C9416020C9416020C9416020C941602D0
:100050000C9416020C9416020C9416020C94EC0AE2
:100060000C9416020C94C00B0C94960B0C94160274
:100070000C9416020C9416020C9416020C941602A0
:100080000C9416020C9416020C9416020C94160290
:100090000C9416020C9416020C9416020C94CC09C3
:1000A0000C9416020C9416020C9416020C94160270
:1000B0000C9416020C9416020C9416020C94160260
:1000C0000C9416020C9416020C9416020C94160250
:1000D0000C9416020C9416020C94600B0C94360BC4
:1000E0000C9416020C94F4040C946B030C947F0390
:1000F0000C94E1020C94BC020C94AD030C944104EA
:100100000C94A4040C9466030C9499030C94F803C7
:100110000C945E030C94C9020C94CF020C948903D6
:100120000C9441050C94D7020C94DA030C94E5026C
:100130000C9450040C94EE030C94B2040C94D3026F
:100140000C949E020C94EF0C0C9475030C94B0026A
:100150000C94EF020C94EB020C94DD020C949902C7
:100160000C94C6030C94B7030C94A3030C94BF0225
:100170000C94B4020C94D0030C94E4030C94B802D5
:100180000C9491030C9414040C94C5024E414E49F6
:100190004E495459494E46CDCCCC3D0AD7233C1745
:1001A000B7D13877CC2B329595E6241FB14F0A0092
:1001B0000020410000C84200401C4620BCBE4CCA82
:1001C0001B0E5AAEC59D7400407A10F35A00A072FF
:1001D0004E18090010A5D4E80000E8764817000082
:1001E000E40B54020000CA9A3B000000E1F5050050
:1001F0000080969800000040420F000000A0860199
:10020000000000102700000000E803000000006468
:1002100000000000000A00000000000100000000D3
:10022000002C76D888DC674F0823DFC1DFAE59E1A8
:10023000B1B796E5E3E453C63AE651997696E8E617
:10024000C28426EB898C9B62ED407C6FFCEFBC9CEA
:100250009F40F2BAA56FA5F490055A2AF75C936BFC
:100260006CF9676DC11BFCE0E40D47FEF520E6B5B7
:1002700000D0ED902E0300943577050080841E0891
:100280000000204E0A000000C80C333333330F98AF
:100290006E12831141EF8D2114893BE65516CFFE76
:1002A000E6DB18D1844B381BF77C1D901DA4BBE402
:1002B00024203284725E228100C9F124ECA1E53D44
:1002C0002700002100240027002A002D00300033E1
:1002D0000001010000040107010A010000220025BD
:1002E0000028002B002E0031003400020100000520
:1002F0000108010B010505050507050808080802A6
:100300000202020A0A0808040404040101010101AE
:100310000101010303030303030303040707070C9D
:100320000C0C0C0C0C0C0C02020202060606060653
:100330000606060B0B0B0B0B0B0B0B010210202000
:100340000808102040102040800201020108040229
:10035000010102040810204080804020100804029F
:1003600001800402018040201008040201080402F8
:1003700001010204081020408001020408102040FE
:100380008000000A0B02090C0D0E0807030401008F
:10039000000000000000000000000000000000005D
:1003A000000000000000000000000000001211101A
:1003B000000000000000000000000000000000003D
:1003C0000000000000000000EF0C11241FBECFEF62
:1003D000D1E2DEBFCDBF00E00CBF25E0A4E7B2E074
:1003E00001C01D92A630B207E1F712E0A0E0B2E032
:1003F000E2EAF2E300E00BBF02C007900D92A437DF
:10040000B107D9F711E0C5EED1E000E006C02197B1
:100410000109802FFE010E941716C43ED10780E01B
:100420000807A9F70E94AD0D0C944F190C94000019
:100430002091A002260F3327331F21323105ECF41F
:100440002091C402FC0190E080E0243069F082E059
:100450000895A091A0022191AC0140585D4FA40FD6
:10046000B52FB11D2C930196861798F38091A002A9
:10047000680F6093A00280E0089581E008950895D8
:100480008FEF9FEF08958FEF9FEF0895809179028E
:1004900090E09195819591090895CF93DF93CB01D9
:1004A000EA01642F0E941802CE01DF91CF910895D6
:1004B000CF93DF931F92CDB7DEB7698361E0CE01A2
:1004C00001960E94180281E090E00F90DF91CF9199
:1004D0000895282F30E0F901EF57FC4F9491F9016E
:1004E000E55CFC4F44912B503D4FF90124912223B0
:1004F00009F435C0992311F191509231F8F4E92FA4
:10050000F0E08827E957FD4F8F4F0C941716B8027B
:10051000BC029902B002B4029E02BF02C502C90227
:10052000CF02D302D702DD02E1029E02E502EB0216
:10053000EF02809180008F7780938000E22FF0E0BF
:10054000EE0FFF1FE552FD4FA591B4918FB7F894C0
:10055000EC91611148C040954E234C938FBF089594
:10056000809180008F7DE8CF80918000877FE4CFED
:1005700084B58F7784BDE2CF84B58F7DFBCF80912A
:10058000B0008F778093B000D9CF8091B0008F7D7D
:10059000F9CF809190008F7780939000CFCF80919A
:1005A00090008F7DF9CF80919000877FF5CF80916B
:1005B000A0008F778093A000C1CF8091A0008F7D95
:1005C000F9CF8091A000877FF5CF809120018F77B0
:1005D00080932001B3CF809120018F7DF9CF80914E
:1005E0002001877FF5CF4E2BB8CFCF93DF9390E0DC
:1005F000FC01E55CFC4F24918B509D4FFC018491E4
:100600008823D1F090E0880F991FFC01EF53FD4F34
:10061000A591B491FC01E552FD4FC591D4916111B2
:100620000EC09FB7F8948C91E22FE0958E238C93A7
:100630002881E223E8839FBFDF91CF9108958FB790
:10064000F894EC91E22BEC938FBFF6CF1F93CF93EE
:10065000DF93182FEB0161E00E94F502209739F437
:1006600060E0812FDF91CF911F910C946902CF3F01
:10067000D10511F461E0F5CFE12FF0E0EF57FC4F29
:10068000E491E150E23108F0B3C0F0E08827E45B88
:10069000FC4F8F4F0C9417165E0366036B037503B4
:1006A0007F03F803890391039903A303AD03B70301
:1006B000C603D003F803DA03E403EE0384B58068CD
:1006C00084BDC7BDDF91CF911F91089584B580622D
:1006D00084BDC8BDF7CF8091800080688093800082
:1006E000D0938900C0938800EDCF80918000806214
:1006F00080938000D0938B00C0938A00E3CF8091D9
:100700008000886080938000D0938D00C0938C001F
:10071000D9CF8091B00080688093B000C093B300BF
:10072000D1CF8091B00080628093B000C093B400BC
:10073000C9CF80919000806880939000D0939900F9
:10074000C0939800BFCF809190008062809390000A
:10075000D0939B00C0939A00B5CF809190008860A1
:1007600080939000D0939D00C0939C00ABCF80916C
:10077000A00080688093A0008091A0008F7B809370
:10078000A000D093A900C093A8009CCF8091A000A6
:1007900080628093A000D093AB00C093AA0092CF58
:1007A0008091A00088608093A000D093AD00C0939A
:1007B000AC0088CF80912001806880932001D09385
:1007C0002901C09328017ECF80912001806280930F
:1007D0002001D0932B01C0932A0174CF8091200176
:1007E000886080932001D0932D01C0932C016ACFA3
:1007F000C038D1050CF03ECF33CF90917B00977F6E
:1008000090937B008653806480937C0080917A0073
:10081000806480937A0080917A0086FDFCCF80917D
:100820007800909179000895AF92BF92CF92DF92B5
:10083000EF92FF920F931F93CF93DF936C017B0195
:100840008B01040F151FEB015E01AE18BF08C01726
:10085000D10759F06991D601ED91FC910190F08199
:10086000E02DC6011995892B79F7C501DF91CF914C
:100870001F910F91FF90EF90DF90CF90BF90AF90BE
:100880000895FC01538D448D252F30E0842F90E096
:10089000821B930B541710F0CF960895019708957B
:1008A000FC01918D828D981761F0A28DAE0FBF2F44
:1008B000B11D5D968C91928D9F5F9F73928F90E09A
:1008C00008958FEF9FEF08952FB7F8948091EA0273
:1008D0009091EB02A091EC02B091ED022FBF8093BA
:1008E000F6029093F702A093F802B093F9028EEE0D
:1008F00092E00E94500497FF26C02FB7F894809191
:10090000EA029091EB02A091EC02B091ED022FBFB0
:100910004091F6025091F7026091F8027091F9024D
:10092000841B950BA60BB70B4091F2025091F3027A
:100930006091F4027091F50284179507A607B70736
:10094000B0F28FEF9FEF0895FC01918D828D981783
:1009500031F0828DE80FF11D858D90E008958FEFC5
:100960009FEF0895FC01918D228D892F90E0805C8E
:100970009F4F821B91098F73992708958EEE92E005
:100980000E94B20421E0892B09F420E0822F08950F
:100990008BE893E00E94B20421E0892B09F420E067
:1009A000822F0895FC01A48DA80FB92FB11DA35A61
:1009B000BF4F2C91848D90E001968F739927848F7F
:1009C000A689B7892C93A089B1898C9183708064A2
:1009D0008C93938D848D981306C00288F389E02D43
:1009E00080818F7D80830895EF92FF920F931F93F4
:1009F000CF93DF93EC0181E0888F9B8D8C8D9813D2
:100A00001AC0E889F989808185FF15C09FB7F894DD
:100A1000EE89FF896083E889F98980818370806429
:100A200080839FBF81E090E0DF91CF911F910F9174
:100A3000FF90EF900895F62E0B8D10E00F5F1F4F83
:100A40000F731127E02E8C8D8E110CC00FB607FC92
:100A5000FACFE889F989808185FFF5CFCE010E9420
:100A6000D204F1CFEB8DEC0FFD2FF11DE35AFF4FB8
:100A7000F0829FB7F8940B8FEA89FB8980818062AE
:100A8000CFCFCF93DF93EC01888D8823B9F0AA896B
:100A9000BB89E889F9898C9185FD03C0808186FD39
:100AA0000DC00FB607FCF7CF8C9185FFF2CF808188
:100AB00085FFEDCFCE010E94D204E9CFDF91CF9127
:100AC000089580E090E0892B29F00E94C8048111EC
:100AD0000E94000080E090E0892B49F080E090E0E7
:100AE000892B29F00E94000081110E94000080E003
:100AF00090E0892B49F080E090E0892B29F00E945A
:100B0000000081110E94000080E090E0892B29F014
:100B10000E94BE0481110C94000008952F923F9210
:100B20004F925F926F927F928F929F92AF92BF92FD
:100B3000CF92DF92EF92FF920F931F93CF93DF93A9
:100B40001C016A017B0128013901FC01C68DD78D8A
:100B500088809980AA80BB80A9019801C501B40151
:100B60000E94341718166CF5488259826A827B827B
:100B7000F10186A097A0A0A4B1A4C6A8D7A8E0AC14
:100B8000F1ACA7019601C501B4010E943417F1012F
:100B9000181624F5C6A2D7A2E0A6F1A6DF91CF9140
:100BA0001F910F91FF90EF90DF90CF90BF90AF908B
:100BB0009F908F907F906F905F904F903F902F907D
:100BC0000895A7019601C501B4010E94D61487FFBC
:100BD000CFCFC882D982EA82FB82CACFC2A8D3A86B
:100BE000E4A8F5A8A7019601C501B4010E94D61496
:100BF00087FFD4CFF101CECF8F929F92AF92BF9259
:100C0000CF92DF92EF92FF92CF93DF93EC016B01D3
:100C1000770FEE08FF08C701B6010E94DD144B01F3
:100C20005C016EA57FA588A999A90E94DB149B0190
:100C3000AC01C501B4010E948C164B015C01AC01F2
:100C40009B01688979898A899B890E943C15688BF8
:100C5000798B8A8B9B8BA50194016C897D898E8908
:100C60009F890E948C166C8B7D8B8E8B9F8BCEA662
:100C7000DFA6E8AAF9AADF91CF91FF90EF90DF906D
:100C8000CF90BF90AF909F908F9008958F929F923A
:100C9000AF92BF92CF92DF92EF92FF92CF93DF930A
:100CA000EC01EE8DFF8DC080D180E280F380CEA27A
:100CB000DFA2E8A6F9A6EC8DFD8D80819181A2814D
:100CC000B3818AA79BA7ACA7BDA78EA89FA8A8ACF5
:100CD000B9ACA5019401C701B6010E9434171816DA
:100CE0002CF48EA29FA2A8A6B9A60CC08AA89BA885
:100CF000ACA8BDA8A5019401C701B6010E94D614F5
:100D000087FDEFCFDF91CF91FF90EF90DF90CF90F5
:100D1000BF90AF909F908F9008952F923F924F92E7
:100D20005F926F927F928F929F92AF92BF92CF927B
:100D3000DF92EF92FF920F931F93CF93DF93CDB784
:100D4000DEB760970FB6F894DEBF0FBECDBF9A83B3
:100D50008983DC01DA96BC91BD83B1111BC01D8271
:100D60008D8160960FB6F894DEBF0FBECDBFDF91C8
:100D7000CF911F910F91FF90EF90DF90CF90BF9098
:100D8000AF909F908F907F906F905F904F903F902B
:100D90002F9008958FB7F8942091EA023091EB02DA
:100DA0004091EC025091ED022B873C874D875E8786
:100DB0008FBFE981FA8182A193A1A4A1B5A14B853E
:100DC0005C856D857E85481B590B6A0B7B0B86A560
:100DD00097A5A0A9B1A9481759076A077B0708F486
:100DE000BECFF88BEF87048CF58DE02D208131810B
:100DF0004281538129833A834B835C83AF85B889D1
:100E00009096ED91FC9160817181828193810E9425
:100E10001F164B015C01EF85F88922A533A544A577
:100E200055A569817A818B819C810E941F166B0177
:100E30007C01AF85B88950962D913D914D915C9183
:100E40005397C501B4010E943C15EF85F88926A18E
:100E500037A140A551A50E9420162B013C01AF856A
:100E6000B88996964D925D926D927C929997DB9699
:100E7000BC91BE83B11118C0EF85F88924853585F2
:100E800046855785C701B6010E943C159B01AC0100
:100E9000C301B2010E941F16AF85B88996966D9363
:100EA0007D938D939C939997EF85F88946A057A0E1
:100EB00060A471A416A907A930AC21AC212F302F52
:100EC000432D522DC301B2010E94341718160CF0A5
:100ED0007FC0812F902FA32DB22DEF85F88986A397
:100EE00097A3A0A7B1A7BE81BB2309F490C0EF854B
:100EF000F8892485358546855785C501B4010E944A
:100F00003C154B015C01AF85B88954962D913D91FC
:100F10004D915C915797C701B6010E943C159B010A
:100F2000AC01EF85F88966A177A180A591A50E9403
:100F30001F16A50194010E9420166B017C019B01E4
:100F4000AC01612F702F832D922D0E94D61487FD46
:100F50001BC0AF85B889D2961C91D297D3960C91BD
:100F6000D397D4963C90D497D5962C90212F302FA0
:100F7000432D522DB601C7010E94D61487FD04C02F
:100F80001C2D0D2D3E2C2F2CAF85B8895E96ED9132
:100F9000FC91812F902FA32DB22D80839183A2836A
:100FA000B38329813A814B815C81AF85B8899A9658
:100FB0002D933D934D935C939D972B853C854D855B
:100FC0005E8592962D933D934D935C939597C8CEF5
:100FD000AF85B889D2962D913D914D915C91D59771
:100FE0002F83388749875A87C301B2010E94D614DC
:100FF00087FF79CF2F81388549855A85AF85B88994
:1010000096962D933D934D935C9399976CCF812C3D
:10101000912C540178CF90E080E0089542E050E0B8
:1010200068E172E08BE893E00C9414041F93CF9373
:10103000DF9385ED8093BC0080917C0290917D02CE
:10104000A0917E02B0917F020796A11DB11D23E001
:10105000B695A795979587952A95D1F72091BC00CD
:1010600024FD03C01092C40252C040917C025091F2
:101070007D0260917E0270917F02452B462B472BAB
:1010800069F30097A105B10541F025E32A95F1F731
:1010900000000197A109B109E1CF80917B02C1E075
:1010A000C0937A02882399F1D091B8001091BA00C8
:1010B0008091BC008A7B8093BC0060E084E10E9448
:1010C000690260E085E10E9469021092C402C09347
:1010D000C6021092C50261E084E10E94690261E0EB
:1010E00085E10E9469028091B9008E7F8093B900EA
:1010F0008091B9008D7F8093B90088E48093B80017
:1011000085E48093BC001093BA00D093B800DF91BF
:10111000CF911F9108950F931F93CF93DF93EC010D
:1011200088819981009759F02A813B8126173707DA
:1011300030F081E0DF91CF911F910F9108958B01E5
:101140006F5F7F4F0E945E18009759F099838883E4
:101150001B830A832C813D81232B59F7FC011082CC
:10116000E8CF80E0E7CFEF92FF920F931F93CF93EA
:10117000DF936115710541F480E0DF91CF911F91FC
:101180000F91FF90EF90089541155105B1F07B014B
:10119000EC010C811D81040F151FB8010E948B0802
:1011A000882351F3288139818C819D81B701820F79
:1011B000931F0E9448191D830C8381E0DECFCF93DB
:1011C000DF93EC0188819981009711F00E94D51777
:1011D000198218821D821C821B821A82DF91CF9194
:1011E0000895CF93DF93EC01FB0101900020E9F714
:1011F0003197AF01461B570B0E94B308811103C002
:10120000CE010E94DF08CE01DF91CF910895CF93E8
:10121000DF93EC01FB0144815581608171810E9463
:10122000B308811103C0CE010E94DF08CE01DF9117
:10123000CF910895EF92FF920F931F93CF93DF9377
:10124000EC017B018A01BA010E948B0881110BC05D
:10125000CE010E94DF08CE01DF91CF911F910F9147
:10126000FF90EF9008951D830C83B70188819981C9
:101270000E944819F0CFEF92FF920F931F93CF93E4
:10128000DF93CDB7DEB7A1970FB6F894DEBF0FBEE0
:10129000CDBF7C01CB01BA01F7011182108213820C
:1012A0001282158214828E010F5F1F4F22E044E0EC
:1012B0000E94E4100097C9F0FC0101900020E9F7BA
:1012C0003197AF01481B590BBC01C7010E941A0995
:1012D000A1960FB6F894DEBF0FBECDBFDF91CF91C0
:1012E0001F910F91FF90EF900895C7010E94DF08B2
:1012F000EFCFFC0180819181009711F00C94D517FC
:101300000895CF92DF92EF92FF92CF93DF9300D0B8
:1013100000D01F921F92CDB7DEB71A8219821C82AD
:101320001B821E821D8250E040E06AE172E0CE0125
:1013300001960E941A090E94640497FD0FC08A302A
:10134000910561F08F83188641E050E0BE01695F2E
:101350007F4FCE0101960E94B308EDCF89819A811B
:10136000C12CD12C7601009721F00E9402116B0153
:101370007C01CE0101960E947909C701B601289629
:101380000FB6F894DEBF0FBECDBFDF91CF91FF90B7
:10139000EF90DF90CF9008951F920F920FB60F92AB
:1013A00011240BB60F922F933F934F935F936F933C
:1013B0007F938F939F93AF93BF93EF93FF9380910E
:1013C000B900887F803609F44DC008F040C08832EB
:1013D00009F4A7C028F5803109F49BC0C8F488231C
:1013E00009F4F7C0883009F494C0FF91EF91BF91E0
:1013F000AF919F918F917F916F915F914F913F91AD
:101400002F910F900BBE0F900FBE0F901F9018954D
:10141000883109F486C0803241F78093C30214C03A
:10142000803409F49BC040F48033B9F38833E9F683
:101430008093C30285ECAEC0803509F483C0883543
:1014400009F494C0883489F60E941608CECF8839F2
:1014500009F48AC038F5883729F050F4883611F03D
:10146000803719F683E08093C4021092C20255C0FF
:10147000883809F479C0803919F0803809F0B5CF7F
:101480008091C202803208F06FC0E091C20281E018
:101490008E0F8093C2028091BB00F0E0EE55FD4FAD
:1014A00080833BC0803B39F0D0F4803A09F477C0A8
:1014B000883A09F09ACF84E08093C4021092A10286
:1014C0001092A002F0E0E0E019958091A002811155
:1014D0000FC081E08093A0021092800209C0803C7E
:1014E00009F4A8CF883C09F4A5CF883B09F07DCF4B
:1014F000E091A10281E08E0F8093A102F0E0E0581C
:10150000FD4F80818093BB009091A1028091A00249
:1015100029C08091E9028093BB0085EC8093BC00D8
:1015200064CF9091E8028091E702981758F5E09116
:10153000E80281E08E0F8093E802F0E0E953FD4F6E
:101540008081E9CFE091E80281E08E0F8093E8028C
:101550008091BB00F0E0E953FD4F80839091E80259
:101560008091E7029817C8F285E8D8CFE091E802A9
:1015700081E08E0F8093E8028091BB00F0E0E95398
:10158000FD4F80838091C60281115ECF81E0809300
:10159000C50284EA8093BC001092C40226CF85EC79
:1015A0008093BC001092C4028091C202803230F459
:1015B000E091C202F0E0EE55FD4F10826091C20250
:1015C00070E082EA92E0F0E0E0E019951092C20249
:1015D0000CCF1092C30238CF1F920F920FB60F920A
:1015E00011242F933F938F939F93AF93BF93809139
:1015F000EA029091EB02A091EC02B091ED023091E1
:10160000780223E0230F2D3758F50196A11DB11D57
:10161000209378028093EA029093EB02A093EC026D
:10162000B093ED028091740290917502A0917602C0
:10163000B09177020196A11DB11D80937402909321
:101640007502A0937602B0937702BF91AF919F91FC
:101650008F913F912F910F900FBE0F901F90189573
:1016600026E8230F0296A11DB11DD2CF1F920F9223
:101670000FB60F9211240BB60F922F933F934F93F7
:101680005F936F937F938F939F93AF93BF93EF93EA
:10169000FF938EEE92E00E94D204FF91EF91BF91F2
:1016A000AF919F918F917F916F915F914F913F91FA
:1016B0002F910F900BBE0F900FBE0F901F9018959B
:1016C0001F920F920FB60F9211240BB60F922F9309
:1016D0008F939F93EF93FF93E091FE02F091FF02AF
:1016E0008081E0910403F091050382FD1DC090818B
:1016F000809107038F5F8F7320910803821741F059
:10170000E0910703F0E0E251FD4F958F80930703CE
:10171000FF91EF919F918F912F910F900BBE0F90A2
:101720000FBE0F901F9018958081F2CF1F920F92DD
:101730000FB60F9211240BB60F922F933F934F9336
:101740005F936F937F938F939F93AF93BF93EF9329
:10175000FF938BE893E00E94D204FF91EF91BF9139
:10176000AF919F918F917F916F915F914F913F9139
:101770002F910F900BBE0F900FBE0F901F901895DA
:101780001F920F920FB60F9211240BB60F922F9348
:101790008F939F93EF93FF93E0919B03F0919C03B2
:1017A0008081E091A103F091A20382FD1DC0908190
:1017B0008091A4038F5F8F732091A503821741F05E
:1017C000E091A403F0E0E557FC4F958F8093A403CC
:1017D000FF91EF919F918F912F910F900BBE0F90E2
:1017E0000FBE0F901F9018958081F2CF4F925F929D
:1017F0006F927F928F929F92AF92BF92CF92DF9221
:10180000EF92FF920F931F93CF93DF9300D01F921D
:10181000CDB7DEB74C01270138010C8D1D8DDC01E1
:101820005F965C934E935E975D967C936E935C9708
:1018300091963C932E939097DA961C92FC0112AAF3
:1018400013AA14AA15AA80E090E0AFE7B3E486AB30
:1018500097ABA0AFB1AF84E690E0A0E0B0E086A780
:1018600097A7A0ABB1AB118F008F20E030E0A901AA
:10187000C301B7010E94D61487FD84C020E030E088
:10188000A901C601B5010E94D61487FD7BC020E0E6
:1018900030E0A901688D798D8A8D9B8D0E94D614C8
:1018A00087FD70C081E090E0D4015B969C938E939D
:1018B0005A97DB968C93DB97F401408251826282C7
:1018C00073821496AD92BD92CD92DC921797888D5B
:1018D000998DAA8DBB8D80879187A287B387448617
:1018E0005586668677862DEC3CEC4CEC5DE3C601B4
:1018F000B5010E943C1569837A838B839C83F40134
:10190000608B718B828B938B2DEC3CEC4CEC5DE30C
:10191000688D798D8A8D9B8D0E948C166B017C0160
:10192000D4015496CD92DD92ED92FC9257970130FE
:10193000110541F5A301920160E070E0CB010E9426
:101940001F16F401648775878687978729813A81F6
:101950004B815C8160E070E0CB010E941F16D401D6
:1019600050966D937D938D939C935397A701960109
:1019700060E070E0CB010E941F16F401648B758B50
:10198000868B978B2FB7F8948091EA029091EB02A7
:10199000A091EC02B091ED022FBFF40146A557A52E
:1019A00060A971A9841B950BA60BB70B82A393A307
:1019B000A4A3B5A30F900F900F900F90DF91CF913C
:1019C0001F910F91FF90EF90DF90CF90BF90AF905D
:1019D0009F908F907F906F905F904F900895AF92FF
:1019E000BF92CF92DF92EF92FF920F931F93CF930C
:1019F000EEEEF2E01382128248EE53E060E070E017
:101A000044835583668377838AE092E09183808361
:101A100025E331E03587248724E331E037872687C3
:101A200020E331E0318B208B21E331E0338B228BBB
:101A300022E331E0358B248B26E331E0378B268B94
:101A4000118E128E138E148EEBE8F3E01382128245
:101A500044835583668377839183808385EC90E00C
:101A60009587848784EC90E09787868780EC90E068
:101A7000918B808B81EC90E0938B828B82EC90E059
:101A8000958B848B86EC90E0978B868B118E128ED3
:101A9000138E148E1F921F92C1E4CF938FE48F9305
:101AA0008CE58F9389E28F93A12CB12C65011AE903
:101AB000E12E19E9F12E01E012E428EB34E04CEBC1
:101AC00054E060EC74E084EC94E00E94F60B1F920A
:101AD0001F928FE38F9385EF8F9382EC8F938FE824
:101AE0008F931AE9E12E19E9F12E09E110E420E7BC
:101AF00034E044E754E068E774E08CE794E00E9447
:101B0000F60B1F9281E08F93CF9384E38F938CEC3D
:101B10008F938DEC8F931DECE12E1CECF12E04EBDA
:101B200011E428E234E04CE254E060E374E084E342
:101B300094E00E94F60B8DB79EB742960FB6F894CC
:101B40009EBF0FBE8DBFCF911F910F91FF90EF9061
:101B5000DF90CF90BF90AF900895CF93DF93CDB734
:101B6000DEB7A4970FB6F894DEBF0FBECDBF789452
:101B700084B5826084BD84B5816084BD85B5826092
:101B800085BD85B5816085BD80916E008160809343
:101B90006E001092810080918100826080938100AC
:101BA00080918100816080938100809180008160BC
:101BB000809380008091B10084608093B100809117
:101BC000B00081608093B00080919100826080932A
:101BD00091008091910081608093910080919000AC
:101BE0008160809390008091A10082608093A10029
:101BF0008091A10081608093A1008091A00081600C
:101C00008093A000809121018260809321018091C6
:101C10002101816080932101809120018160809366
:101C2000200180917A00846080937A0080917A000C
:101C3000826080937A0080917A00816080937A003C
:101C400080917A00806880937A001092C100E091C0
:101C50009B03F0919C0322E02083E0919703F09195
:101C600098031082E0919903F0919A0380E18083B8
:101C70001092A303E0919F03F091A00396E090835C
:101C8000E0919D03F0919E03808180618083E091CB
:101C90009D03F0919E03808188608083E0919D0385
:101CA000F0919E03808180688083E0919D03F09194
:101CB0009E0380818F7D8083E091FE02F091FF0280
:101CC0002083E091FA02F091FB021082E091FC0285
:101CD000F091FD028FEC808310920603E0910203E5
:101CE000F09103039083E0910003F0910103808160
:101CF00080618083E0910003F0910103808188601E
:101D00008083E0910003F0910103808180688083EB
:101D1000E0910003F091010380818F7D808360E07A
:101D200086E30E94F50260E087E30E94F50261E02D
:101D300088E00E94F50261E089E00E94F50261E01E
:101D40008AE00E94F50261E08BE00E94F50287E3E1
:101D50000E94FD03BC01990F880B990B0E94DD14B2
:101D60006093C0047093C1048093C2049093C30431
:101D700086E30E94FD03BC01990F880B990B0E941A
:101D8000DD14609378047093790480937A049093BF
:101D90007B0480E090E0A8ECB3E48093B8049093D7
:101DA000B904A093BA04B093BB0480E090E0A6E924
:101DB000B3E48093700490937104A0937204B09381
:101DC0007304109228041092290410922A0410928D
:101DD0002B046AE070E084EC94E00E94FC056AE069
:101DE00070E08CE794E00E94FC0561E070E084E321
:101DF00094E00E94FC0580E090E0ACECB1E48093BC
:101E0000AE049093AF04A093B004B093B10480E00B
:101E100090E8A5E6B3E48093B2049093B304A09352
:101E2000B404B093B5048091B604882361F000E057
:101E300010E825E633E440E050E06CEC71E48CE718
:101E400094E00E948E0580E090E0ACECB1E48093D9
:101E5000F6049093F704A093F804B093F90480E09B
:101E600090E8A5E6B3E48093FA049093FB04A09372
:101E7000FC04B093FD048091FE04882361F000E02F
:101E800010E825E633E440E050E06CEC71E484ECCB
:101E900094E00E948E0580E090E0ACECB1E4809389
:101EA000660490936704A0936804B093690480E08B
:101EB00090E8A5E6B3E480936A0490936B04A09342
:101EC0006C04B0936D0480916E04882361F000E08F
:101ED00010E825E633E440E050E06CEC71E484E384
:101EE00094E00E948E058091FE04811104C084EC70
:101EF00094E00E94460681E08093FE048091B6043F
:101F0000811104C08CE794E00E94460681E0809332
:101F1000B60480916E04811104C084E394E00E94B1
:101F2000460681E080936E0461E088E00E946902C9
:101F300087E30E94FD03BC01990F880B990B0E9457
:101F4000DD146093C0047093C1048093C204909325
:101F5000C30486E30E94FD03BC01990F880B990B13
:101F60000E94DD14609378047093790480937A045E
:101F700090937B048EEE92E00E94B204181619062C
:101F800024F40E9481096B017C01C0923004D0923C
:101F90003104E0923204F0923304409030045090C7
:101FA0003104609032047090330420E030E044EB60
:101FB00052E4C301B2010E943417181654F020E015
:101FC00030E044EB52ECC301B2010E94D61487FF0B
:101FD00026C060E088E00E94690260E089E00E941B
:101FE000690243E150E06BE172E08BE893E00E940C
:101FF00014040E940E088EEE92E00E94B20418169D
:10200000190624F40E9481094B015C01809230047E
:1020100090923104A0923204B0923304BECF84EC8B
:1020200094E00E948D068CE794E00E948D0684E384
:1020300094E00E948D0661E089E00E94690261E0FF
:1020400088E00E9469026091BC047091BD04809197
:10205000BE049091BF040E94FE168BE00E942603EE
:1020600020E030E04FEF52E4609174047091750409
:1020700080917604909177040E94201620912C0480
:1020800030912D0440912E0450912F040E941F1670
:102090000E94FE168AE00E9426034AE959E961E09F
:1020A00072E4CE0101960E943B09409130045091A8
:1020B00031046091320470913304CE0107960E947E
:1020C0003B094091740450917504609176047091BD
:1020D0007704CE010D960E943B0940917004509107
:1020E00071046091720470917304CE0143960E9452
:1020F0003B09409178045091790460917A04709181
:102100007B04CE0149960E943B0918A21F8E1AA299
:1021100019A21CA21BA24DE050E06FE272E0CE01BA
:102120004F960E941A09BE01675E7F4FCE014F96FF
:102130000E9407096DE372E00E94F108BE016D5E26
:102140007F4F0E94070960E572E00E94F108BE011E
:10215000635F7F4F0E94070961E672E00E94F10809
:10216000BE01695F7F4F0E9407096BE672E00E9423
:10217000F108BE016F5F7F4F0E940709FC01448197
:102180005581608171818BE893E00E9414040E9464
:102190000E08CE014F960E947909CE0149960E9401
:1021A0007909CE0143960E947909CE010D960E94CD
:1021B0007909CE0107960E947909CE0101960E9405
:1021C00079090E946105B4CEEF920F931F93CF93CC
:1021D000DF93E80134E047FD34E1042E000C550B99
:1021E00057FF03C0519541955109E32E022F242F2B
:1021F000AE010E940611CE01DF91CF911F910F9188
:10220000EF900895662777270C947F128F929F9204
:10221000AF92BF92CF92DF92EF92FF920F931F93F4
:10222000CF93DF9300D000D000D0CDB7DEB76A01E6
:10223000F22EB02E102FFBE3AF2EA01608F41BE3F6
:102240001F5F012F27E0AE014F5F5F4F0E94DD133C
:10225000BC018981982F9970913009F44EC09BE29E
:10226000E1FC04C09E2D9170E0FC49C05E2D5071D0
:10227000E82FE87083FF55C084E0911101C083E02E
:10228000EF2DE81B8F1508F0E0E0D6018E2F20E23D
:102290005523C9F1992329F0D6019C93C6010196D3
:1022A0006C0196012D5F3F4FE2FE33C08EE4D601F4
:1022B0008C9391E411969C93119712968C93D9016B
:1022C0008E2F90E281112AC0E20FF32FF11D1082B0
:1022D0008EEF9FEF29960FB6F894DEBF0FBECDBFED
:1022E000DF91CF911F910F91FF90EF90DF90CF90F2
:1022F000BF90AF909F908F9008959DE2B7CF90E2EE
:10230000B5CF2D9381508111FCCFCE0ED11CE0E0D2
:10231000C1CF8EE6D6018C9391E6CCCF9D938150B0
:10232000D1CF482F447082FF3DC084E0911101C09D
:1023300083E08F1510F4EF2DE81BD6018E2F20E2DD
:10234000552309F1992329F0D6019C93C6010196E2
:102350006C0196012D5F3F4FE2FE1BC089E4D60160
:102360008C938EE411968C93119786E412968C933D
:10237000D9018E2F90E2882309F4A6CF9D93815036
:10238000FACF2D9381508111FCCFCE0ED11CE0E00D
:10239000D9CF89E6D6018C938EE611968C9311974E
:1023A00086E6E4CF9B0177FF02C030E020E0A1E0A9
:1023B000B0E0911102C0B0E0A0E0F9013196AE0F9B
:1023C000BF1F8B2C912CBB2009F461C05401EFEF8F
:1023D000AE1ABE0AAA0DBB1DFA161B0619F014F0A0
:1023E0004F2D4A1B511188C0E3FC59C07601A42F20
:1023F000B0E2A1114FC0C40ED11C992309F45BC0F7
:1024000040E0D6011196F60190836D01552309F441
:1024100048C0012F060F9A81582F507184FF03C0C6
:10242000913309F4015010160CF047C0093008F040
:1024300008E0EEE2FE2E5B01A01AB108850191943E
:10244000819491082F3F320729F4D601FC92F601BE
:1024500031966F016217730794F1021713077CF529
:10246000DB01A21BB30BAA24A394B12CAC0EBD1E9E
:10247000AA0DBB1D11968C9121503109D6011196E0
:1024800028153905F4F0F60180836D01DBCFB12CFE
:10249000A12CA0CFF701B1937F01A150AACF911138
:1024A000B0CFD601942F50E302C05D9391509111AB
:1024B000FCCFC40ED11C40E0ACCF01E0BACF80E32A
:1024C000DBCF6217730731F4963388F4953311F438
:1024D000552369F0F6018083FD01842F90E281117C
:1024E00008C0A40FB11D1C9290E080E0F3CE81E300
:1024F000F1CF91938150F3CF911183CF8ACF8F92F7
:102500009F92AF92BF92CF92DF92EF92FF920F9382
:102510001F93CF93DF935C017B016115710519F067
:10252000DB018D939C9385010F5F1F4FF501D081D7
:102530008D2F90E00E94B5146C01892BB9F5DD3226
:10254000B9F50F5F1F4FD5011196DC91C1E058011D
:10255000F1E0AF1AB10843E050E064E971E0C50171
:102560000E94BE14892B69F5680182E0C80ED11C57
:1025700045E050E06FE871E0C6010E94BE14892B6F
:1025800021F4680197E0C90ED11CE114F10419F09F
:10259000D701CD92DC9260E070E080E89FEFC1113E
:1025A000FFC060E070E080E89FE7FAC05801BBCF51
:1025B000DB3229F485010E5F1F4FF501D181C0E0A8
:1025C000C6CF43E050E06CE871E0C5010E94BE1444
:1025D000892BE9F0F80110E000E020E030E0A901EB
:1025E0005F01B0ED8B2E8D0E89E08815C8F19C2E11
:1025F000689491F88C2F8870C2FF16C0811102C0B8
:102600000F5F1F4F3196D501DC91C92DE9CFE11441
:10261000F10429F00E5F1F4FF7011183008360E082
:1026200070E080EC9FE7BCC0882311F001501109D5
:10263000A5E0B0E00E94FD159B01AC01220F331F05
:10264000441F551F280D311D411D511D283999E981
:102650003907490799E15907A8F2C6609C2ED2CFE5
:10266000AEEF8A1206C0C3FD3CC09C2E689493F85E
:10267000C9CFDF7DD534A9F580818D3239F4C061B1
:10268000DF011296818162E070E006C0DF018B32CB
:10269000C1F3119661E070E080535D01A61AB70A9C
:1026A0008A30F8F4E0E8CE16ECE0DE065CF4B60121
:1026B000660F771F660F771FC60ED71ECC0CDD1C6A
:1026C000C80ED11C5D01FFEFAF1ABF0A8C91805379
:1026D0008A30A8F1C4FF03C0D194C194D1080C0D75
:1026E0001D1DC1FF09C0E114F10431F081E0A81AF9
:1026F000B108D701AD92BC92CA01B9010E94DB14A6
:10270000C370C33009F490584B015C0120E030E005
:10271000A9010E94D614882309F440C0C3ECD1E07B
:1027200017FF05C0119501951109CBEAD1E06E01A3
:10273000B8E1CB1AD10880E2E82EF12C0FC0D50108
:10274000B1CFFE0125913591459154910E191F0984
:10275000C501B4010E943C154B015C01D501C401C7
:102760000E151F0574F72497F594E794CC16DD0633
:10277000A9F78A2F880F8B2F881F8F3F49F020E001
:1027800030E0A901C501B4010E94D614811106C030
:1027900082E290E09093010580930005C501B401A9
:1027A000DF91CF911F910F91FF90EF90DF90CF902D
:1027B000BF90AF909F908F900895283008F027E049
:1027C0003327DA01990F311D87FD9160009661056D
:1027D000710539F432602E5F3D9330E32A95E1F7BD
:1027E00008959F3F30F080387105610509F03C5F26
:1027F0003C5F3D93913008F08068911DDF93CF934B
:102800001F930F93FF92EF92192F987F9695E92FC0
:1028100096959695E90FFF27EF5DFD4F9927332792
:10282000EE24FF24A701E70105900894079428F4FB
:10283000360FE71EF81E491F511D660F771F881FB0
:10284000991F0694A1F70590079428F4E70EF81E47
:10285000491F561FC11D770F881F991F661F0694B9
:10286000A1F70590079428F4F80E491F561FC71FBB
:10287000D11D880F991F661F771F0694A1F7059039
:10288000079420F4490F561FC71FD81F990F661FC2
:10289000771F881F0694A9F784911095177041F04F
:1028A000D695C79557954795F794E7941A95C1F72C
:1028B000E7ECF1E06894159015913591659195914B
:1028C00005907FE27395E118F10A430B560BC90B93
:1028D000D009C0F7E10CF11E431F561FC91FD01DC0
:1028E0007EF4703311F48A95E6CFE894015030F00D
:1028F000080F0AF40027021708F4202F2395022F4F
:102900007A3328F079E37D932A95E9F710C07D9317
:102910002A9589F606949795679537951795179494
:10292000E118F10A430B560BC90BD00998F0239517
:102930007E9173957A3308F070E37C932013B8F797
:102940007E9170617D9330F0839571E37D9370E3A8
:102950002A95E1F71124EF90FF900F911F91CF91ED
:10296000DF91992787FD9095089591110C94A915F1
:10297000803219F089508550C8F70895FB01DC01B9
:102980004150504088F08D9181341CF08B350CF40F
:10299000805E659161341CF06B350CF4605E861BC3
:1029A000611171F3990B0895881BFCCF0E941815D3
:1029B00008F481E00895E89409C097FB3EF49095EF
:1029C0008095709561957F4F8F4F9F4F9923A9F008
:1029D000F92F96E9BB279395F69587957795679597
:1029E000B795F111F8CFFAF4BB0F11F460FF1BC0DB
:1029F0006F5F7F4F8F4F9F4F16C0882311F096E96E
:102A000011C0772321F09EE8872F762F05C066231B
:102A100071F096E8862F70E060E02AF09A95660FD4
:102A2000771F881FDAF7880F9695879597F908958D
:102A3000990F0008550FAA0BE0E8FEEF16161706CF
:102A4000E807F907C0F012161306E407F50798F037
:102A5000621B730B840B950B39F40A2661F0232B50
:102A6000242B252B21F408950A2609F4A140A695CC
:102A70008FEF811D811D08950E944F150C94C31581
:102A80000E94B51538F00E94BC1520F0952311F076
:102A90000C94AC150C94B21511240C94F7150E94EB
:102AA000D41570F3959FC1F3950F50E0551F629FA9
:102AB000F001729FBB27F00DB11D639FAA27F00D97
:102AC000B11DAA1F649F6627B00DA11D661F829FBE
:102AD0002227B00DA11D621F739FB00DA11D621FA3
:102AE000839FA00D611D221F749F3327A00D611DC0
:102AF000231F849F600D211D822F762F6A2F1124A2
:102B00009F5750409AF0F1F088234AF0EE0FFF1FD4
:102B1000BB1F661F771F881F91505040A9F79E3F2B
:102B2000510580F00C94AC150C94F7155F3FE4F35D
:102B3000983ED4F3869577956795B795F795E79581
:102B40009F5FC1F7FE2B880F911D9695879597F98A
:102B5000089599278827089597F99F6780E870E07E
:102B600060E008959FEF80EC089500240A94161603
:102B7000170618060906089500240A94121613066B
:102B8000140605060895092E0394000C11F48823F9
:102B900052F0BB0F40F4BF2B11F460FF04C06F5F15
:102BA0007F4F8F4F9F4F089557FD9058440F551FEB
:102BB00059F05F3F71F04795880F97FB991F61F0BF
:102BC0009F3F79F087950895121613061406551F36
:102BD000F2CF4695F1DF08C0161617061806991FA2
:102BE000F1CF86957105610508940895E894BB2797
:102BF00066277727CB0197F908950E940816A59FAD
:102C0000900DB49F900DA49F800D911D11240895E7
:102C1000A29FB001B39FC001A39F700D811D11241D
:102C2000911DB29F700D811D1124911D0895EE0F0D
:102C3000FF1F881F8BBF0790F691E02D1994505805
:102C4000BB27AA270E9437160C94C3150E94B515FE
:102C500038F00E94BC1520F039F49F3F19F426F497
:102C60000C94B2150EF4E095E7FB0C94AC15E92F2B
:102C70000E94D41558F3BA176207730784079507A3
:102C800020F079F4A6F50C94F6150EF4E0950B2ED1
:102C9000BA2FA02D0B01B90190010C01CA01A001AE
:102CA0001124FF27591B99F0593F50F4503E68F109
:102CB0001A16F040A22F232F342F4427585FF3CF4A
:102CC000469537952795A795F0405395C9F77EF41B
:102CD0001F16BA0B620B730B840BBAF09150A1F064
:102CE000FF0FBB1F661F771F881FC2F70EC0BA0FEA
:102CF000621F731F841F48F4879577956795B79572
:102D0000F7959E3F08F0B0CF9395880F08F099276C
:102D1000EE0F9795879508950E94A0160C94C31501
:102D20000E94BC1558F00E94B51540F029F45F3F91
:102D300029F00C94AC1551110C94F7150C94B215A4
:102D40000E94D41568F39923B1F3552391F3951B91
:102D5000550BBB27AA2762177307840738F09F5FBC
:102D60005F4F220F331F441FAA1FA9F335D00E2E29
:102D70003AF0E0E832D091505040E695001CCAF796
:102D80002BD0FE2F29D0660F771F881FBB1F261759
:102D900037074807AB07B0E809F0BB0B802DBF0130
:102DA000FF2793585F4F3AF09E3F510578F00C94FF
:102DB000AC150C94F7155F3FE4F3983ED4F3869579
:102DC00077956795B795F7959F5FC9F7880F911D20
:102DD0009695879597F90895E1E0660F771F881F0C
:102DE000BB1F621773078407BA0720F0621B730BBF
:102DF000840BBA0BEE1F88F7E09508950E94051723
:102E00006894B1110C94F71508950E94DC1588F0B0
:102E10009F5798F0B92F9927B751B0F0E1F0660F9E
:102E2000771F881F991F1AF0BA95C9F714C0B130DF
:102E300091F00E94F615B1E008950C94F615672FF5
:102E4000782F8827B85F39F0B93FCCF3869577950E
:102E50006795B395D9F73EF49095809570956195F7
:102E60007F4F8F4F9F4F08950E94181508F48FEFE2
:102E700008950F931F93CF93DF938230910510F441
:102E800082E090E0E0910405F091050530E020E05B
:102E9000B0E0A0E0309799F42115310509F44AC05B
:102EA000281B390B24303105D8F58A819B816115A7
:102EB000710589F1FB0193838283FE0111C040817A
:102EC00051810281138148175907E0F048175907CB
:102ED00099F4109761F012960C93129713961C9325
:102EE0003296CF01DF91CF911F910F9108950093FA
:102EF000040510930505F4CF2115310551F0421753
:102F0000530738F0A901DB019A01BD01DF01F80187
:102F1000C1CFEF01F9CF9093050580930405CDCF84
:102F2000FE01E20FF31F81939193225031093983FF
:102F30002883D7CF2091020530910305232B41F43C
:102F40002091020230910302309303052093020581
:102F500020910002309101022115310541F42DB775
:102F60003EB74091040250910502241B350BE091BD
:102F70000205F0910305E217F307A0F42E1B3F0BA7
:102F80002817390778F0AC014E5F5F4F24173507DB
:102F900048F04E0F5F1F5093030540930205819345
:102FA00091939FCFF0E0E0E09CCFCF93DF93009729
:102FB000E9F0FC01329713821282A0910405B091CE
:102FC0000505ED0130E020E01097A1F4208131816A
:102FD000820F931F209102053091030528173907AE
:102FE00009F061C0F0930305E0930205DF91CF91F2
:102FF0000895EA01CE17DF07E8F54A815B819E015B
:1030000041155105B1F7E901FB83EA8349915991D3
:10301000C40FD51FEC17FD0761F4808191810296E2
:10302000840F951FE90199838883828193819B8313
:103030008A83F0E0E0E012968D919C9113970097BF
:10304000B9F52D913C911197CD010296820F931FF6
:1030500020910205309103052817390739F630977A
:1030600051F51092050510920405B0930305A09345
:103070000205BCCFD383C28340815181840F951F49
:10308000C817D90761F44E5F5F4F88819981480F57
:10309000591F518340838A819B81938382832115A9
:1030A000310509F0B0CFF0930505E09304059ECFFC
:1030B000FD01DC01C0CF13821282D7CF4F925F9205
:1030C0006F927F928F929F92AF92BF92CF92DF9238
:1030D000EF92FF920F931F93CF93DF938C01009792
:1030E00099F4CB01DF91CF911F910F91FF90EF9059
:1030F000DF90CF90BF90AF909F908F907F906F9018
:103100005F904F900C943917FC01E60FF71F9C015C
:1031100022503109E217F30708F4AEC0D901CD916E
:10312000DC911197C617D70720F1C530D10578F08B
:10313000CE0104978617970750F0C61BD70B22972E
:10314000C193D1936D937C93CF010E94D517C80191
:10315000DF91CF911F910F91FF90EF90DF90CF9073
:10316000BF90AF909F908F907F906F905F904F90A7
:1031700008955B01AC1ABD0A4C018C0E9D1EA091F6
:103180000405B0910505512C412CF12CE12C109730
:1031900031F580910205909103058815990509F094
:1031A0005CC04616570608F058C080910002909106
:1031B0000102009741F48DB79EB7409104025091EF
:1031C0000502841B950BE817F90708F055C0F0932A
:1031D0000305E0930205F90171836083B8CF8D91F7
:1031E0009C91119712966C90129713967C9013975E
:1031F000A815B90559F56C0142E0C40ED11CCA14DA
:10320000DB0420F1AC014A195B09DA01129615972B
:1032100080F06282738251834083D9016D937C93E5
:10322000E114F10471F0D7011396FC93EE93129719
:103230008ECF22968C0F9D1FF90191838083F3011D
:10324000EFCFF0930505E093040581CF48165906AA
:1032500008F42C017D01D3019ACFCB010E943917CC
:103260007C01009749F0AE01B8010E943F19C801E6
:103270000E94D51787016BCF10E000E068CFFB01FB
:10328000DC0102C001900D9241505040D8F70895E2
:10329000FB01DC0101900D920020E1F70895F89404
:0232A000FFCF5E
:1032A20000000605800000000000F404140441043C
:1032B2004105B2045004A4040D0A002F2F496E7375
:1032C200616E6520616E676C652064617461005097
:1032D200494420496E7075745F783A20002C205062
:1032E200494420536574706F696E745F783A2000A8
:1032F2002C20504944204F75747075745F783A20C1
:10330200002C20416E676C653A20002C204B705FC8
:04331200793A2000E4
:00000001FF
