:100000000C944A010C947B010C947B010C947B01B1
:100010000C947B010C947B010C947B010C947B0170
:100020000C947B010C947B010C947B010C947B0160
:100030000C947B010C947B010C947B010C947B0150
:100040000C947B010C947B010C947B010C947B0140
:100050000C947B010C947B010C947B010C94DC05CB
:100060000C947B010C94B0060C9486060C947B01D6
:100070000C947B010C947B010C947B010C947B0110
:100080000C947B010C947B010C947B010C947B0100
:100090000C947B010C947B010C947B010C947B01F0
:1000A0000C947B010C947B010C947B010C947B01E0
:1000B0000C947B010C947B010C947B010C947B01D0
:1000C0000C947B010C947B010C947B010C947B01C0
:1000D0000C947B010C947B010C9450060C94260626
:1000E0000C947B010C94E4020C94AD010C94DA02A4
:1000F0000C94C8010C94D9010C9492030C94C10285
:100100000C94EE020C94EB010C94D0010C947F0241
:100110000C94E6060C94F1010C94DD010C940C0394
:100120000C9403020C9402030C94CB020C94AD02C9
:100130000C9442030C94D3010C94CC010C94A003B6
:100140000C94E3010C94F9010C94C4010C94E203A7
:100150000C946F030C94B7020C94E7010C94A50265
:100160000C9489020C9493020C947A020C947202FF
:100170000C94FF010C947E030C94F5010C94F8028E
:100180000C94B2010C942F040C949D0200002100E9
:10019000240027002A002D00300033000101000058
:1001A000040107010A0100002200250028002B009D
:1001B0002E003100340002010000050108010B018E
:1001C00005050505070508080808020202020A0AD3
:1001D00008080404040401010101010101010303F1
:1001E000030303030303040707070C0C0C0C0C0C9C
:1001F0000C0C0202020206060606060606060B0B99
:100200000B0B0B0B0B0B01021020200808102040D9
:1002100010204080020102010804020101020408CA
:100220001020408080402010080402018004020158
:1002300080402010080402010804020101020408A1
:1002400010204080010204081020408000000A0BAA
:1002500002090C0D0E080703040100000000000055
:10026000000000000000000000000000000000008E
:10027000000000000000000012111000000000004B
:10028000000000000000000000000000000000006E
:100290000000E60611241FBECFEFD1E2DEBFCDBFC6
:1002A00000E00CBF12E0A0E0B2E0E2E6F8E100E01E
:1002B0000BBF02C007900D92AA35B107D9F723E012
:1002C000AAE5B2E001C01D92A33AB207E1F711E03E
:1002D000CAE4D1E000E006C021970109802FFE01A9
:1002E0000E94270CC934D10780E00807A9F70E94B3
:1002F0003F070C942F0C0C940000282F30E0F901DC
:10030000E45BFD4F9491F901EA5FFD4F4491205465
:100310003E4FF9012491222309F435C0992311F1AC
:1003200091509231F8F4E92FF0E08827E556FE4F1E
:100330008F4F0C94270CCC01D001AD01C401C80132
:10034000B201D301D901DD01E301E701EB01F101C4
:10035000F501B201F901FF010302809180008F775E
:1003600080938000E22FF0E0EE0FFF1FEA55FE4F72
:10037000A591B4918FB7F894EC91611148C0409564
:100380004E234C938FBF0895809180008F7DE8CFDE
:1003900080918000877FE4CF84B58F7784BDE2CFE2
:1003A00084B58F7DFBCF8091B0008F778093B000B4
:1003B000D9CF8091B0008F7DF9CF809190008F7759
:1003C00080939000CFCF809190008F7DF9CF809166
:1003D0009000877FF5CF8091A0008F778093A00059
:1003E000C1CF8091A0008F7DF9CF8091A000877F41
:1003F000F5CF809120018F7780932001B3CF80913A
:1004000020018F7DF9CF80912001877FF5CF4E2B82
:10041000B8CFCF93DF9390E0FC01EA5FFD4F2491CA
:1004200080549E4FFC0184918823D1F090E0880F86
:10043000991FFC01E457FE4FA591B491FC01EA55C8
:10044000FE4FC591D49161110EC09FB7F8948C9165
:10045000E22FE0958E238C932881E223E8839FBFCF
:10046000DF91CF9108958FB7F894EC91E22BEC9344
:100470008FBFF6CF1F93CF93DF93182FEB0161E06F
:100480000E940902209739F460E0812FDF91CF911B
:100490001F910C947D01CF3FD10511F461E0F5CFA0
:1004A000E12FF0E0E45BFD4FE491E150E23108F030
:1004B000B3C0F0E08827E05AFD4F8F4F0C94270C13
:1004C00072027A027F02890293020C039D02A50246
:1004D000AD02B702C102CB02DA02E4020C03EE0263
:1004E000F802020384B5806884BDC7BDDF91CF9157
:1004F0001F91089584B5806284BDC8BDF7CF8091F7
:100500008000806880938000D0938900C093880029
:10051000EDCF80918000806280938000D0938B002B
:10052000C0938A00E3CF8091800088608093800030
:10053000D0938D00C0938C00D9CF8091B00080689B
:100540008093B000C093B300D1CF8091B00080629F
:100550008093B000C093B400C9CF809190008068B0
:1005600080939000D0939900C0939800BFCF809162
:100570009000806280939000D0939B00C0939A007B
:10058000B5CF80919000886080939000D0939D00BB
:10059000C0939C00ABCF8091A00080688093A000A6
:1005A0008091A0008F7B8093A000D093A900C0937E
:1005B000A8009CCF8091A00080628093A000D0937F
:1005C000AB00C093AA0092CF8091A0008860809376
:1005D000A000D093AD00C093AC0088CF80912001E3
:1005E000806880932001D0932901C09328017ECF99
:1005F00080912001806280932001D0932B01C093D1
:100600002A0174CF80912001886080932001D093CB
:100610002D01C0932C016ACFC038D1050CF03ECF1C
:1006200033CF3FB7F8948091630290916402A09118
:100630006502B091660226B5A89B05C02F3F19F050
:100640000196A11DB11D3FBFBA2FA92F982F882752
:10065000BC01CD01620F711D811D911D42E0660F2D
:10066000771F881F991F4A95D1F708952FB7F894DF
:1006700060915F02709160028091610290916202CC
:100680002FBF0895AF92BF92CF92DF92EF92FF9269
:100690000F931F93CF93DF936C017B018B01040FAA
:1006A000151FEB015E01AE18BF08C017D10759F046
:1006B0006991D601ED91FC910190F081E02DC60188
:1006C0001995892B79F7C501DF91CF911F910F9172
:1006D000FF90EF90DF90CF90BF90AF900895FC0116
:1006E000538D448D252F30E0842F90E0821B930B97
:1006F000541710F0CF96089501970895FC01918D3D
:10070000828D981761F0A28DAE0FBF2FB11D5D963F
:100710008C91928D9F5F9F73928F90E008958FEFE1
:100720009FEF0895FC01918D828D981731F0828D95
:10073000E80FF11D858D90E008958FEF9FEF0895EC
:10074000FC01918D228D892F90E0805C9F4F821B50
:1007500091098F739927089587E692E00E94A0037C
:1007600021E0892B09F420E0822F089584E093E0B2
:100770000E94A00321E0892B09F420E0822F089534
:10078000FC01A48DA80FB92FB11DA35ABF4F2C9106
:10079000848D90E001968F739927848FA689B789FD
:1007A0002C93A089B1898C91837080648C93938DF4
:1007B000848D981306C00288F389E02D80818F7D97
:1007C00080830895EF92FF920F931F93CF93DF934F
:1007D000EC0181E0888F9B8D8C8D98131AC0E8897D
:1007E000F989808185FF15C09FB7F894EE89FF894C
:1007F0006083E889F98980818370806480839FBFEA
:1008000081E090E0DF91CF911F910F91FF90EF90E9
:100810000895F62E0B8D10E00F5F1F4F0F731127F9
:10082000E02E8C8D8E110CC00FB607FCFACFE88934
:10083000F989808185FFF5CFCE010E94C003F1CFF9
:10084000EB8DEC0FFD2FF11DE35AFF4FF0829FB7A8
:10085000F8940B8FEA89FB8980818062CFCFCF9398
:10086000DF93EC01888D8823B9F0AA89BB89E889D8
:10087000F9898C9185FD03C0808186FD0DC00FB67E
:1008800007FCF7CF8C9185FFF2CF808185FFEDCFFC
:10089000CE010E94C003E9CFDF91CF91089580E09F
:1008A00090E0892B29F00E94B60381110E9400007C
:1008B00080E090E0892B49F080E090E0892B29F0DE
:1008C0000E94000081110E94000080E090E0892BCE
:1008D00049F080E090E0892B29F00E94000081110E
:1008E0000E94000080E090E0892B29F00E94AC0378
:1008F00081110C940000089580917B00877F809384
:100900007B0081E480937C0080917A0080648093F6
:100910007A0080917A0086FDFCCF6091780070911A
:100920007900072E000C880B990B0E94C90920E062
:1009300030E048EC52E40E94080B21E73DE34AEA2C
:100940005FE30E94280A20E030E441E454E40E947E
:10095000750B20E030E0A9010E94090B0895FC010D
:1009600001900020E9F73197AF01481B590BBC01FA
:1009700084E093E00C9442038F929F92AF92BF92D7
:100980000F931F93CF93DF93CDB7DEB7A1970FB629
:10099000F894DEBF0FBECDBF19A2423008F44AE082
:1009A0008E010F5D1F4F842E912CB12CA12CA5011F
:1009B00094010E94E60AE62FB901CA01EA30F4F474
:1009C000E05DD801EE938D01232B242B252B79F7A5
:1009D00090E080E0109719F0CD010E94AF04A1963D
:1009E0000FB6F894DEBF0FBECDBFDF91CF911F9140
:1009F0000F91BF90AF909F908F900895E95CE1CFE9
:100A00004F925F926F927F928F929F92AF92BF921E
:100A1000CF92DF92EF92FF920F931F93CF936B01D0
:100A20007C01742EAC019B010E94220C882399F05A
:100A300082E192E0CF911F910F91FF90EF90DF90B4
:100A4000CF90BF90AF909F908F907F906F905F906E
:100A50004F900C94AF0446015701E894B7F82FEF7C
:100A60003FEF4FE75FE7C501B4010E94220C8111FF
:100A70000DC02FEF3FEF4FE75FE7C501B4010E94C4
:100A8000C20918161CF486E192E0D4CF2FEF3FEF95
:100A90004FE75FE4C701B6010E941D0C18161CF455
:100AA0008AE192E0C7CF2FEF3FEF4FE75FECC7013E
:100AB000B6010E94C20987FDF3CF20E030E0A90112
:100AC000C701B6010E94C20910E000E087FF0AC01A
:100AD0006DE284E093E00E94E2038C01F7FAF09467
:100AE000F7F8F094C0E060E070E080E09FE37C16EF
:100AF00041F020E030E040E251E40E94750BCF5F0E
:100B0000F6CFA70196010E94090B2B013C010E9420
:100B1000EE0B4B015C014AE00E94BC047C01E00E3C
:100B2000F11ECC23C1F1C501B4010E94C7099B018C
:100B3000AC01C301B2010E94080B4B015C016EE2E3
:100B400084E093E00E94E203E80EF91EC15018F120
:100B500020E030E040E251E4C501B4010E94280ADF
:100B60002B013C010E94EE0B4B01B12CA12C4AE061
:100B7000C501B4010E94BC04E80EF91EC501B40110
:100B80000E94C7099B01AC01C301B2010E94080B7E
:100B90004B015C01DBCFC701CF911F910F91FF90FB
:100BA000EF90DF90CF90BF90AF909F908F907F900D
:100BB0006F905F904F9008951F920F920FB60F9213
:100BC00011242F933F938F939F93AF93BF93809163
:100BD0005F0290916002A0916102B0916202309137
:100BE0005E0223E0230F2D3758F50196A11DB11D9C
:100BF00020935E0280935F0290936002A093610253
:100C0000B09362028091630290916402A0916502A8
:100C1000B09166020196A11DB11D8093630290936D
:100C20006402A0936502B0936602BF91AF919F9159
:100C30008F913F912F910F900FBE0F901F9018959D
:100C400026E8230F0296A11DB11DD2CF1F920F924D
:100C50000FB60F9211240BB60F922F933F934F9321
:100C60005F936F937F938F939F93AF93BF93EF9314
:100C7000FF9387E692E00E94C003FF91EF91BF913E
:100C8000AF919F918F917F916F915F914F913F9124
:100C90002F910F900BBE0F900FBE0F901F901895C5
:100CA0001F920F920FB60F9211240BB60F922F9333
:100CB0008F939F93EF93FF93E0917702F0917802E7
:100CC0008081E0917D02F0917E0282FD1DC09081C5
:100CD000809180028F5F8F7320918102821741F093
:100CE000E0918002F0E0E959FD4F958F80938002FA
:100CF000FF91EF919F918F912F910F900BBE0F90CD
:100D00000FBE0F901F9018958081F2CF1F920F9207
:100D10000FB60F9211240BB60F922F933F934F9360
:100D20005F936F937F938F939F93AF93BF93EF9353
:100D3000FF9384E093E00E94C003FF91EF91BF9185
:100D4000AF919F918F917F916F915F914F913F9163
:100D50002F910F900BBE0F900FBE0F901F90189504
:100D60001F920F920FB60F9211240BB60F922F9372
:100D70008F939F93EF93FF93E0911403F0911503EA
:100D80008081E0911A03F0911B0382FD1DC09081C8
:100D900080911D038F5F8F7320911E03821741F096
:100DA000E0911D03F0E0EC5FFC4F958F80931D03F5
:100DB000FF91EF919F918F912F910F900BBE0F900C
:100DC0000FBE0F901F9018958081F2CFE7E6F2E0FA
:100DD0001382128248EE53E060E070E04483558352
:100DE0006683778384E092E09183808325E331E01A
:100DF0003587248724E331E03787268720E331E0F5
:100E0000318B208B21E331E0338B228B22E331E0E5
:100E1000358B248B26E331E0378B268B118E128E97
:100E2000138E148EE4E0F3E0138212824483558320
:100E3000668377839183808385EC90E095878487B0
:100E400084EC90E09787868780EC90E0918B808B94
:100E500081EC90E0938B828B82EC90E0958B848B7D
:100E600086EC90E0978B868B118E128E138E148EEB
:100E70000E9436037093A2036093A10308957894AF
:100E800084B5826084BD84B5816084BD85B582608F
:100E900085BD85B5816085BD80916E008160809340
:100EA0006E001092810080918100826080938100A9
:100EB00080918100816080938100809180008160B9
:100EC000809380008091B10084608093B100809114
:100ED000B00081608093B000809191008260809327
:100EE00091008091910081608093910080919000A9
:100EF0008160809390008091A10082608093A10026
:100F00008091A10081608093A1008091A000816008
:100F10008093A000809121018260809321018091C3
:100F20002101816080932101809120018160809363
:100F3000200180917A00846080937A0080917A0009
:100F4000826080937A0080917A00816080937A0039
:100F500080917A00806880937A001092C100E091BD
:100F60001403F091150322E02083E0911003F09127
:100F700011031082E0911203F091130380E180834A
:100F800010921C03E0911803F091190396E09083EE
:100F9000E0911603F0911703808180618083E091D6
:100FA0001603F0911703808188608083E091160317
:100FB000F0911703808180688083E0911603F0919F
:100FC000170380818F7D8083E0917702F091780212
:100FD0002083E0917302F09174021082E091750217
:100FE000F09176028FEC808310927F02E0917B0279
:100FF000F0917C029083E0917902F0917A028081F5
:1010000080618083E0917902F0917A02808188602A
:101010008083E0917902F0917A02808180688083F8
:10102000E0917902F0917A0280818F7D80830E9425
:1010300011034B015C0128EEC22E23E0D22EE12CDD
:10104000F12C0E941103681979098A099B09683EED
:10105000734081059105A8F321E0C21AD108E10887
:10106000F10888EE880E83E0981EA11CB11CC11403
:10107000D104E104F10429F78EE192E00E94AF046B
:101080008CE392E00E94AF0461E088E00E940902D4
:1010900061E08AE00E94090260E086E30E940902A2
:1010A00061E089E00E94090261E08BE00E94090290
:1010B00060E087E30E9409026FE770E08AE00E9427
:1010C0003A026FE770E08BE00E943A0261E088E04C
:1010D0000E947D0161E089E00E947D0180E090E056
:1010E000A0E0BFE380935A0290935B02A0935C025E
:1010F000B0935D020E9436037093A2036093A10334
:101100006B01770FEE08FF084AE0C701B601F7FE52
:101110000DC06DE284E093E00E94E203662777272A
:10112000CB016C197D098E099F094AE00E94BC041D
:101130008CE392E00E94AF048DECC82E8CECD82E8C
:101140008CE4E82E8EE3F82E9AE9892E99E9992EFF
:10115000A92C9FE3B92E40905A0250905B026090F8
:101160005C0270905D020E947C049B01AC01C30193
:10117000B2010E94080B28E431EE4AE151E40E94DA
:10118000280A20E030E040E05FE30E94090B2DECEC
:101190003CEC4CEC5DE30E941D0C18160CF09CC05E
:1011A0000E947C049B01AC01C301B2010E94080BA8
:1011B00028E431EE4AE151E40E94280A20E030E0C0
:1011C00040E05FE30E94090B26E636E646E65FE371
:1011D0000E94C20987FF80C00E947C049B01AC0171
:1011E000C301B2010E94080B28E431EE4AE151E448
:1011F0000E94280A20E030E040E05FE30E94090BF3
:1012000020E030E04FE753E40E94280A0E94E70BF9
:101210008BE00E943A028FE392E00E94AF040E94AA
:101220007C0442E00E9400058CE392E00E94AF043F
:1012300082E592E00E94AF0440905A0250905B0217
:1012400060905C0270905D020E947C049B01AC0186
:10125000C301B2010E94080B42E00E9400058CE32A
:1012600092E00E94AF04C091A103D091A2030E941A
:1012700036039E01205F384D2901330F6608770839
:101280008E01005E114B461657066806790608F473
:1012900061C00E943603012E000C220B330B06178F
:1012A00017072807390708F06AC00E943603C05D97
:1012B000DA488E01DD0F220B330B601771078207AE
:1012C000930708F05CC080925A0290925B02A09251
:1012D0005C02B0925D0253C00E947C049B01AC0191
:1012E000C301B2010E94080B28E431EE4AE151E447
:1012F0000E94280A20E030E040E05FE30E94090BF2
:101300002DEC3CEC4CEC5DE30E94C20969E170E01D
:1013100087FD7ECF0E947C049B01AC01C301B2011A
:101320000E94080B28E431EE4AE151E40E94280AA9
:1013300020E030E040E05FE30E94090B26E636E65D
:1013400046E65FE30E941D0C18160CF064CF65EEB4
:1013500070E05ECF0E9436032801012E000C660863
:101360007708641575058605970508F092CFC09239
:101370005A02D0925B02E0925C02F0925D020E94FF
:101380004F04E9CE0E94040A08F481E00895E8942D
:1013900009C097FB3EF490958095709561957F4FBD
:1013A0008F4F9F4F9923A9F0F92F96E9BB2793956B
:1013B000F695879577956795B795F111F8CFFAF47B
:1013C000BB0F11F460FF1BC06F5F7F4F8F4F9F4FAC
:1013D00016C0882311F096E911C0772321F09EE80A
:1013E000872F762F05C0662371F096E8862F70E070
:1013F00060E02AF09A95660F771F881FDAF7880F4A
:101400009695879597F90895990F0008550FAA0B9F
:10141000E0E8FEEF16161706E807F907C0F0121607
:101420001306E407F50798F0621B730B840B950B0A
:1014300039F40A2661F0232B242B252B21F408955F
:101440000A2609F4A140A6958FEF811D811D0895FC
:101450000E943B0A0C94AC0A0E949E0A38F00E943B
:10146000A50A20F0952311F00C94950A0C949B0A80
:1014700011240C94E00A0E94BD0A70F3959FC1F3F9
:10148000950F50E0551F629FF001729FBB27F00D32
:10149000B11D639FAA27F00DB11DAA1F649F662787
:1014A000B00DA11D661F829F2227B00DA11D621FD6
:1014B000739FB00DA11D621F839FA00D611D221F90
:1014C000749F3327A00D611D231F849F600D211D74
:1014D000822F762F6A2F11249F5750409AF0F1F0F7
:1014E00088234AF0EE0FFF1FBB1F661F771F881F60
:1014F00091505040A9F79E3F510580F00C94950AF9
:101500000C94E00A5F3FE4F3983ED4F38695779518
:101510006795B795F795E7959F5FC1F7FE2B880F05
:10152000911D9695879597F9089597F99F6780E89B
:1015300070E060E008959FEF80EC089500240A9425
:101540001616170618060906089500240A9412169E
:101550001306140605060895092E0394000C11F4D1
:10156000882352F0BB0F40F4BF2B11F460FF04C07E
:101570006F5F7F4F8F4F9F4F089557FD9058440FD7
:10158000551F59F05F3F71F04795880F97FB991FE2
:1015900061F09F3F79F0879508951216130614069F
:1015A000551FF2CF4695F1DF08C01616170618062C
:1015B000991FF1CF86957105610508940895E89407
:1015C000BB2766277727CB0197F90895A1E21A2E4A
:1015D000AA1BBB1BFD010DC0AA1FBB1FEE1FFF1FD7
:1015E000A217B307E407F50720F0A21BB30BE40B27
:1015F000F50B661F771F881F991F1A9469F760956E
:101600007095809590959B01AC01BD01CF01089527
:101610005058BB27AA270E94200B0C94AC0A0E94AA
:101620009E0A38F00E94A50A20F039F49F3F19F471
:1016300026F40C949B0A0EF4E095E7FB0C94950AB3
:10164000E92F0E94BD0A58F3BA176207730784078F
:10165000950720F079F4A6F50C94DF0A0EF4E095D6
:101660000B2EBA2FA02D0B01B90190010C01CA015C
:10167000A0011124FF27591B99F0593F50F4503E07
:1016800068F11A16F040A22F232F342F4427585FF9
:10169000F3CF469537952795A795F0405395C9F711
:1016A0007EF41F16BA0B620B730B840BBAF09150C9
:1016B000A1F0FF0FBB1F661F771F881FC2F70EC068
:1016C000BA0F621F731F841F48F48795779567953B
:1016D000B795F7959E3F08F0B0CF9395880F08F027
:1016E0009927EE0F9795879508950E94890B0C9482
:1016F000AC0A0E94A50A58F00E949E0A40F029F404
:101700005F3F29F00C94950A51110C94E00A0C9457
:101710009B0A0E94BD0A68F39923B1F3552391F304
:10172000951B550BBB27AA2762177307840738F050
:101730009F5F5F4F220F331F441FAA1FA9F335D0AD
:101740000E2E3AF0E0E832D091505040E695001C61
:10175000CAF72BD0FE2F29D0660F771F881FBB1F1B
:10176000261737074807AB07B0E809F0BB0B802DF9
:10177000BF01FF2793585F4F3AF09E3F510578F025
:101780000C94950A0C94E00A5F3FE4F3983ED4F37E
:10179000869577956795B795F7959F5FC9F7880FF9
:1017A000911D9695879597F90895E1E0660F771F4B
:1017B000881FBB1F621773078407BA0720F0621BDC
:1017C000730B840BBA0BEE1F88F7E09508950E9407
:1017D000EE0B6894B1110C94E00A08950E94C50ABA
:1017E00088F09F5798F0B92F9927B751B0F0E1F0E2
:1017F000660F771F881F991F1AF0BA95C9F714C092
:10180000B13091F00E94DF0AB1E008950C94DF0A34
:10181000672F782F8827B85F39F0B93FCCF38695CA
:1018200077956795B395D9F73EF490958095709527
:1018300061957F4F8F4F9F4F08950E94040A08F4CF
:101840008FEF08950E94040A880B990B0895EE0FFC
:10185000FF1F881F8BBF0790F691E02D1994F89415
:02186000FFCFB8
:1018620000000000E20342036F032F04A0037E0383
:1018720092036E616E00696E66006F7666002D2DB2
:101882002D205374617274696E672047616E7472A1
:1018920079204372616E65202D2D2D000D0A0043C3
:1018A200757272656E7420706F736974696F6E3AC7
:0A18B20020004572726F723A2000A8
:00000001FF
