:100000000C944A010C947B010C947B010C947B01B1
:100010000C947B010C947B010C947B010C947B0170
:100020000C947B010C947B010C947B010C947B0160
:100030000C947B010C947B010C947B010C947B0150
:100040000C947B010C947B010C947B010C947B0140
:100050000C947B010C947B010C947B010C940306A3
:100060000C947B010C94D7060C94AD060C947B0188
:100070000C947B010C947B010C947B010C947B0110
:100080000C947B010C947B010C947B010C947B0100
:100090000C947B010C947B010C947B010C947B01F0
:1000A0000C947B010C947B010C947B010C947B01E0
:1000B0000C947B010C947B010C947B010C947B01D0
:1000C0000C947B010C947B010C947B010C947B01C0
:1000D0000C947B010C947B010C9477060C944D06D8
:1000E0000C947B010C940A020C9409040C945604A1
:1000F0000C940B030C94D9010C9429030C94D40296
:100100000C942A020C94A6020C9420020C94EB018D
:100110000C94E8020C94BA020C940D070C94A503FD
:100120000C9418020C9404020C9433030C941202E5
:100130000C9400020C94DE020C941C020C94EF014F
:100140000C9496030C94D4010C9415030C94F202B5
:100150000C94C4020C94C7030C9499020C94F30100
:100160000C9469030C94CC020C9401030C94B90315
:100170000C94FA010C94F7010C9426020C940E02D4
:100180000C94B0020C94A1020C941F0300002100F7
:10019000240027002A002D00300033000101000058
:1001A000040107010A0100002200250028002B009D
:1001B0002E003100340002010000050108010B018E
:1001C00005050505070508080808020202020A0AD3
:1001D00008080404040401010101010101010303F1
:1001E000030303030303040707070C0C0C0C0C0C9C
:1001F0000C0C0202020206060606060606060B0B99
:100200000B0B0B0B0B0B01021020200808102040D9
:1002100010204080020102010804020101020408CA
:100220001020408080402010080402018004020158
:1002300080402010080402010804020101020408A1
:1002400010204080010204081020408000000A0BAA
:1002500002090C0D0E080703040100000000000055
:10026000000000000000000000000000000000008E
:10027000000000000000000012111000000000004B
:10028000000000000000000000000000000000006E
:1002900000000D0711241FBECFEFD1E2DEBFCDBF9E
:1002A00000E00CBF12E0A0E0B2E0E4EBF8E100E017
:1002B0000BBF02C007900D92A836B107D9F723E013
:1002C000A8E6B2E001C01D92A13BB207E1F711E040
:1002D000CAE4D1E000E006C021970109802FFE01A9
:1002E0000E94500CC934D10780E00807A9F70E948A
:1002F00066070C94580C0C940000FC01A089B1898D
:1003000082E08C93A485B5851C92A685B7858FEC79
:100310008C93108EA489B58986E08C93A289B389C9
:100320008C9180618C93A289B3898C9188608C9325
:10033000A289B3898C9180688C930288F389E02D1F
:1003400080818F7D80830895282F30E0F901E45B60
:10035000FD4F9491F901EA5FFD4F449120543E4FC7
:10036000F9012491222309F435C0992311F1915008
:100370009231F8F4E92FF0E08827EE53FE4F8F4FCB
:100380000C94500CF301F701D401EB01EF01D901FA
:10039000FA01000204020A020E02120218021C02F2
:1003A000D901200226022A02809180008F77809353
:1003B0008000E22FF0E0EE0FFF1FEA55FE4FA591FF
:1003C000B4918FB7F894EC91611148C040954E23D9
:1003D0004C938FBF0895809180008F7DE8CF8091EE
:1003E0008000877FE4CF84B58F7784BDE2CF84B56A
:1003F0008F7DFBCF8091B0008F778093B000D9CFF5
:100400008091B0008F7DF9CF809190008F7780939D
:100410009000CFCF809190008F7DF9CF8091900098
:10042000877FF5CF8091A0008F778093A000C1CF08
:100430008091A0008F7DF9CF8091A000877FF5CFBC
:10044000809120018F7780932001B3CF809120018C
:100450008F7DF9CF80912001877FF5CF4E2BB8CFCC
:10046000CF93DF9390E0FC01EA5FFD4F249180542D
:100470009E4FFC0184918823D1F090E0880F991F52
:10048000FC01E457FE4FA591B491FC01EA55FE4FE3
:10049000C591D49161110EC09FB7F8948C91E22F51
:1004A000E0958E238C932881E223E8839FBFDF9120
:1004B000CF9108958FB7F894EC91E22BEC938FBF16
:1004C000F6CF1F93CF93DF93182FEB0161E00E94CB
:1004D0003002209739F460E0812FDF91CF911F9196
:1004E0000C94A401CF3FD10511F461E0F5CFE12FC9
:1004F000F0E0E45BFD4FE491E150E23108F0B3C07D
:10050000F0E08827E957FD4F8F4F0C94500C99026B
:10051000A102A602B002BA023303C402CC02D40282
:10052000DE02E802F20201030B03330315031F038B
:10053000290384B5806884BDC7BDDF91CF911F9129
:10054000089584B5806284BDC8BDF7CF80918000D6
:10055000806880938000D0938900C0938800EDCF9D
:1005600080918000806280938000D0938B00C09344
:100570008A00E3CF80918000886080938000D093D0
:100580008D00C0938C00D9CF8091B000806880939B
:10059000B000C093B300D1CF8091B000806280934F
:1005A000B000C093B400C9CF809190008068809360
:1005B0009000D0939900C0939800BFCF8091900095
:1005C000806280939000D0939B00C0939A00B5CF37
:1005D00080919000886080939000D0939D00C0939C
:1005E0009C00ABCF8091A00080688093A000809198
:1005F000A0008F7B8093A000D093A900C093A80097
:100600009CCF8091A00080628093A000D093AB002B
:10061000C093AA0092CF8091A00088608093A00030
:10062000D093AD00C093AC0088CF8091200180684A
:1006300080932001D0932901C09328017ECF80911F
:100640002001806280932001D0932B01C0932A0166
:1006500074CF80912001886080932001D0932D0178
:10066000C0932C016ACFC038D1050CF03ECF33CFF8
:100670003FB7F8948091710290917202A091730239
:10068000B091740226B5A89B05C02F3F19F00196C2
:10069000A11DB11D3FBFBA2FA92F982F8827BC01DC
:1006A000CD01620F711D811D911D42E0660F771F04
:1006B000881F991F4A95D1F708952FB7F894609134
:1006C0006D0270916E0280916F02909170022FBF47
:1006D0000895AF92BF92CF92DF92EF92FF920F9365
:1006E0001F93CF93DF936C017B018B01040F151FC8
:1006F000EB015E01AE18BF08C017D10759F0699130
:10070000D601ED91FC910190F081E02DC601199583
:10071000892B79F7C501DF91CF911F910F91FF9040
:10072000EF90DF90CF90BF90AF900895FC01538D74
:10073000448D252F30E0842F90E0821B930B5417BB
:1007400010F0CF96089501970895FC01918D828D48
:10075000981761F0A28DAE0FBF2FB11D5D968C91E1
:10076000928D9F5F9F73928F90E008958FEF9FEF20
:100770000895FC01918D828D981731F0828DE80FDC
:10078000F11D858D90E008958FEF9FEF0895FC0196
:10079000918D228D892F90E0805C9F4F821B910963
:1007A0008F739927089585E792E00E94C70321E09F
:1007B000892B09F420E0822F089582E193E00E94C2
:1007C000C70321E0892B09F420E0822F0895FC0162
:1007D000A48DA80FB92FB11DA35ABF4F2C91848DA2
:1007E00090E001968F739927848FA689B7892C93FF
:1007F000A089B1898C91837080648C93938D848D52
:10080000981306C00288F389E02D80818F7D808354
:100810000895EF92FF920F931F93CF93DF93EC0114
:1008200081E0888F9B8D8C8D98131AC0E889F98997
:10083000808185FF15C09FB7F894EE89FF8960839A
:10084000E889F98980818370806480839FBF81E01B
:1008500090E0DF91CF911F910F91FF90EF9008955D
:10086000F62E0B8D10E00F5F1F4F0F731127E02E38
:100870008C8D8E110CC00FB607FCFACFE889F98970
:10088000808185FFF5CFCE010E94E703F1CFEB8D8C
:10089000EC0FFD2FF11DE35AFF4FF0829FB7F89444
:1008A0000B8FEA89FB8980818062CFCFCF93DF9362
:1008B000EC01888D8823B9F0AA89BB89E889F98978
:1008C0008C9185FD03C0808186FD0DC00FB607FCAD
:1008D000F7CF8C9185FFF2CF808185FFEDCFCE01E0
:1008E0000E94E703E9CFDF91CF91089580E090E087
:1008F000892B29F00E94DD0381110E94000080E015
:1009000090E0892B49F080E090E0892B29F00E944B
:10091000000081110E94000080E090E0892B49F0E6
:1009200080E090E0892B29F00E94000081110E9454
:10093000000080E090E0892B29F00E94D303811110
:100940000C940000089580917B00877F80937B004A
:1009500081E480937C0080917A00806480937A00A7
:1009600080917A0086FDFCCF6091780070917900CB
:10097000072E000C880B990B0E94F20920E030E052
:1009800048E452E40E94310B21E73DE34AEA5FE389
:100990000E94510A20E030EC4DE454E40E949E0B8A
:1009A00020E030E0A9010E94320B0895FC01019083
:1009B0000020E9F73197AF01481B590BBC0182E1D8
:1009C00093E00C9469038F929F92AF92BF920F9322
:1009D0001F93CF93DF93CDB7DEB7A1970FB6F894EF
:1009E000DEBF0FBECDBF19A2423008F44AE08E012F
:1009F0000F5D1F4F842E912CB12CA12CA5019401C9
:100A00000E940F0BE62FB901CA01EA30F4F4E05D51
:100A1000D801EE938D01232B242B252B79F790E021
:100A200080E0109719F0CD010E94D604A1960FB670
:100A3000F894DEBF0FBECDBFDF91CF911F910F9114
:100A4000BF90AF909F908F900895E95CE1CF4F9257
:100A50005F926F927F928F929F92AF92BF92CF924E
:100A6000DF92EF92FF920F931F93CF936B017C0164
:100A7000742EAC019B010E944B0C882399F082E1FB
:100A800092E0CF911F910F91FF90EF90DF90CF9068
:100A9000BF90AF909F908F907F906F905F904F909E
:100AA0000C94D60446015701E894B7F82FEF3FEFB6
:100AB0004FE75FE7C501B4010E944B0C81110DC0E7
:100AC0002FEF3FEF4FE75FE7C501B4010E94EB094D
:100AD00018161CF486E192E0D4CF2FEF3FEF4FE7DA
:100AE0005FE4C701B6010E94460C18161CF48AE1A7
:100AF00092E0C7CF2FEF3FEF4FE75FECC701B601A2
:100B00000E94EB0987FDF3CF20E030E0A901C70187
:100B1000B6010E94EB0910E000E087FF0AC06DE219
:100B200082E193E00E9409048C01F7FAF094F7F84F
:100B3000F094C0E060E070E080E09FE37C1641F05C
:100B400020E030E040E251E40E949E0BCF5FF6CF00
:100B5000A70196010E94320B2B013C010E94170C49
:100B60004B015C014AE00E94E3047C01E00EF11EAF
:100B7000CC23C1F1C501B4010E94F0099B01AC0175
:100B8000C301B2010E94310B4B015C016EE282E1B4
:100B900093E00E940904E80EF91EC15018F120E00C
:100BA00030E040E251E4C501B4010E94510A2B013A
:100BB0003C010E94170C4B01B12CA12C4AE0C5014D
:100BC000B4010E94E304E80EF91EC501B4010E94BD
:100BD000F0099B01AC01C301B2010E94310B4B0132
:100BE0005C01DBCFC701CF911F910F91FF90EF9078
:100BF000DF90CF90BF90AF909F908F907F906F903D
:100C00005F904F9008951F920F920FB60F9211248C
:100C10002F933F938F939F93AF93BF9380916D02D8
:100C200090916E02A0916F02B091700230916C02AF
:100C300023E0230F2D3758F50196A11DB11D2093F8
:100C40006C0280936D0290936E02A0936F02B0933A
:100C500070028091710290917202A0917302B09122
:100C600074020196A11DB11D8093710290937202CE
:100C7000A0937302B0937402BF91AF919F918F9133
:100C80003F912F910F900FBE0F901F90189526E85F
:100C9000230F0296A11DB11DD2CF1F920F920FB646
:100CA0000F9211240BB60F922F933F934F935F93A4
:100CB0006F937F938F939F93AF93BF93EF93FF9324
:100CC00085E792E00E94E703FF91EF91BF91AF911A
:100CD0009F918F917F916F915F914F913F912F9154
:100CE0000F900BBE0F900FBE0F901F9018951F9284
:100CF0000F920FB60F9211240BB60F922F938F9372
:100D00009F93EF93FF93E0918502F091860280819B
:100D1000E0918B02F0918C0282FD1DC09081809148
:100D20008E028F5F8F7320918F02821741F0E091C6
:100D30008E02F0E0EB58FD4F958F80938E02FF916D
:100D4000EF919F918F912F910F900BBE0F900FBE3F
:100D50000F901F9018958081F2CF1F920F920FB6BF
:100D60000F9211240BB60F922F933F934F935F93E3
:100D70006F937F938F939F93AF93BF93EF93FF9363
:100D800082E193E00E94E703FF91EF91BF91AF9161
:100D90009F918F917F916F915F914F913F912F9193
:100DA0000F900BBE0F900FBE0F901F9018951F92C3
:100DB0000F920FB60F9211240BB60F922F938F93B1
:100DC0009F93EF93FF93E0912203F091230380819F
:100DD000E0912803F091290382FD1DC0908180914C
:100DE0002B038F5F8F7320912C03821741F0E091CA
:100DF0002B03F0E0EE5EFC4F958F80932B03FF9169
:100E0000EF919F918F912F910F900BBE0F900FBE7E
:100E10000F901F9018958081F2CFE5E7F2E01382E2
:100E2000128248EE53E060E070E0448355836683AD
:100E3000778384E092E09183808325E331E03587F6
:100E4000248724E331E03787268720E331E0318BA4
:100E5000208B21E331E0338B228B22E331E0358B91
:100E6000248B26E331E0378B268B118E128E138E66
:100E7000148EE2E1F3E01382128244835583668389
:100E800077839183808385EC90E09587848784ECD9
:100E900090E09787868780EC90E0918B808B81EC47
:100EA00090E0938B828B82EC90E0958B848B86EC28
:100EB00090E0978B868B118E128E138E148E0E946B
:100EC0005D037093B0036093AF030895789484B585
:100ED000826084BD84B5816084BD85B5826085BD36
:100EE00085B5816085BD80916E00816080936E00C4
:100EF00010928100809181008260809381008091B6
:100F00008100816080938100809180008160809366
:100F100080008091B10084608093B1008091B00026
:100F200081608093B00080919100826080939100F5
:100F30008091910081608093910080919000816008
:100F4000809390008091A10082608093A1008091A5
:100F5000A10081608093A1008091A00081608093B6
:100F6000A000809121018260809321018091210164
:100F70008160809321018091200181608093200114
:100F800080917A00846080937A0080917A008260F8
:100F900080937A0080917A00816080937A008091BA
:100FA0007A00806880937A001092C10082E193E019
:100FB0000E947D0185E792E00E947D018EE192E032
:100FC0000E94D6048CE392E00E94D60461E088E09F
:100FD0000E94300261E08AE00E94300260E086E315
:100FE0000E94300261E089E00E94300261E08BE003
:100FF0000E94300260E087E30E9430026FE770E0F9
:101000008AE00E9461026FE770E08BE00E9461025B
:1010100061E088E00E94A40161E089E00E94A401EF
:1010200080E090E0A0E0BFE38093680290936902C3
:10103000A0936A02B0936B020E9438034B015C01DB
:1010400020E1C22E27E2D22EE12CF12C0E9438039F
:10105000681979098A099B09683E734081059105E1
:10106000A8F321E0C21AD108E108F10888EE880E41
:1010700083E0981EA11CB11CC114D104E104F10449
:1010800029F78FE392E00E94D6048CE392E00E945D
:10109000D6040E945D037093B0036093AF036B01AD
:1010A000770FEE08FF084AE0C701B601F7FE0DC052
:1010B0006DE282E193E00E94090466277727CB0165
:1010C0006C197D098E099F094AE00E94E3048CE3B4
:1010D00092E00E94D6048DECC82E8CECD82E8CE4C5
:1010E000E82E8EE3F82E9AE9892E99E9992EA92CFB
:1010F0009FE3B92E409068025090690260906A02A6
:1011000070906B020E94A3049B01AC01C301B20169
:101110000E94310B20E030E040E751E40E94510A88
:1011200021E73DE34AEA5FE30E94320B2CEC3CEC02
:101130004CE45FE30E94510A21E73DE34AE250E4B8
:101140000E949E0B2DEC3CEC4CEC5DE30E94320BBC
:101150002DEC3CEC4CEC5DE30E94460C18160CF0B8
:10116000C0C00E94A3049B01AC01C301B2010E9454
:10117000310B20E030E040E751E40E94510A21E7C2
:101180003DE34AEA5FE30E94320B2CEC3CEC4CE47A
:101190005FE30E94510A21E73DE34AE250E40E94E6
:1011A0009E0B2DEC3CEC4CEC5DE30E94320B26E6F2
:1011B00036E646E65FE30E94EB0987FF92C00E9495
:1011C000A3049B01AC01C301B2010E94310B20E0DA
:1011D00030E040E751E40E94510A21E73DE34AEA4A
:1011E0005FE30E94320B2CEC3CEC4CE45FE30E948A
:1011F000510A21E73DE34AE250E40E949E0B2DECA8
:101200003CEC4CEC5DE30E94320B20E030E04FE719
:1012100053E40E94510A0E94100C8BE00E9461026C
:101220008DE492E00E94D6040E94A30442E00E9452
:1012300027058CE392E00E94D60480E692E00E94AB
:10124000D604409068025090690260906A027090E3
:101250006B020E94A3049B01AC01C301B2010E9476
:10126000310B42E00E9427058CE392E00E94D604F5
:10127000C091AF03D091B0030E945D039E01205F37
:10128000384D2901330F660877088E01005E114B37
:10129000461657066806790608F485C00E945D0365
:1012A000012E000C220B330B0617170728073907EE
:1012B00008F08EC00E945D03C05DDA488E01DD0F2C
:1012C000220B330B601771078207930708F080C069
:1012D0008092680290926902A0926A02B0926B02B8
:1012E00077C00E94A3049B01AC01C301B2010E941C
:1012F000310B20E030E040E751E40E94510A21E741
:101300003DE34AEA5FE30E94320B2CEC3CEC4CE4F8
:101310005FE30E94510A21E73DE34AE250E40E9464
:101320009E0B2DEC3CEC4CEC5DE30E94320B2DEC63
:101330003CEC4CEC5DE30E94EB0969E170E087FD59
:101340006CCF0E94A3049B01AC01C301B2010E94B7
:10135000310B20E030E040E751E40E94510A21E7E0
:101360003DE34AEA5FE30E94320B2CEC3CEC4CE498
:101370005FE30E94510A21E73DE34AE250E40E9404
:101380009E0B2DEC3CEC4CEC5DE30E94320B26E610
:1013900036E646E65FE30E94460C18160CF040CF96
:1013A00065EE70E03ACF0E945D032801012E000C2B
:1013B00066087708641575058605970508F06ECFF1
:1013C000C0926802D0926902E0926A02F0926B02C7
:1013D0000E9476048FCE0E942D0A08F481E00895C1
:1013E000E89409C097FB3EF49095809570956195BF
:1013F0007F4F8F4F9F4F9923A9F0F92F96E9BB2775
:101400009395F695879577956795B795F111F8CFF0
:10141000FAF4BB0F11F460FF1BC06F5F7F4F8F4F5B
:101420009F4F16C0882311F096E911C0772321F051
:101430009EE8872F762F05C0662371F096E8862FE9
:1014400070E060E02AF09A95660F771F881FDAF740
:10145000880F9695879597F90895990F0008550F6D
:10146000AA0BE0E8FEEF16161706E807F907C0F02A
:1014700012161306E407F50798F0621B730B840B32
:10148000950B39F40A2661F0232B242B252B21F40C
:1014900008950A2609F4A140A6958FEF811D811DAC
:1014A00008950E94640A0C94D50A0E94C70A38F075
:1014B0000E94CE0A20F0952311F00C94BE0A0C94E1
:1014C000C40A11240C94090B0E94E60A70F3959F3C
:1014D000C1F3950F50E0551F629FF001729FBB272B
:1014E000F00DB11D639FAA27F00DB11DAA1F649FC7
:1014F0006627B00DA11D661F829F2227B00DA11D7A
:10150000621F739FB00DA11D621F839FA00D611DFF
:10151000221F749F3327A00D611D231F849F600D20
:10152000211D822F762F6A2F11249F5750409AF049
:10153000F1F088234AF0EE0FFF1FBB1F661F771FD5
:10154000881F91505040A9F79E3F510580F00C94A0
:10155000BE0A0C94090B5F3FE4F3983ED4F38695E2
:1015600077956795B795F795E7959F5FC1F7FE2B40
:10157000880F911D9695879597F9089597F99F671C
:1015800080E870E060E008959FEF80EC089500240B
:101590000A941616170618060906089500240A94D8
:1015A00012161306140605060895092E0394000C5E
:1015B00011F4882352F0BB0F40F4BF2B11F460FFED
:1015C00004C06F5F7F4F8F4F9F4F089557FD905816
:1015D000440F551F59F05F3F71F04795880F97FBF7
:1015E000991F61F09F3F79F08795089512161306B1
:1015F0001406551FF2CF4695F1DF08C016161706E0
:101600001806991FF1CF8695710561050894089514
:10161000E894BB2766277727CB0197F90895A1E2C5
:101620001A2EAA1BBB1BFD010DC0AA1FBB1FEE1F5C
:10163000FF1FA217B307E407F50720F0A21BB30BA7
:10164000E40BF50B661F771F881F991F1A9469F723
:1016500060957095809590959B01AC01BD01CF017F
:1016600008955058BB27AA270E94490B0C94D50A0D
:101670000E94C70A38F00E94CE0A20F039F49F3F3A
:1016800019F426F40C94C40A0EF4E095E7FB0C94CC
:10169000BE0AE92F0E94E60A58F3BA1762077307D9
:1016A0008407950720F079F4A6F50C94080B0EF446
:1016B000E0950B2EBA2FA02D0B01B90190010C0162
:1016C000CA01A0011124FF27591B99F0593F50F47A
:1016D000503E68F11A16F040A22F232F342F4427D2
:1016E000585FF3CF469537952795A795F0405395CA
:1016F000C9F77EF41F16BA0B620B730B840BBAF09A
:101700009150A1F0FF0FBB1F661F771F881FC2F704
:101710000EC0BA0F621F731F841F48F48795779518
:101720006795B795F7959E3F08F0B0CF9395880FD2
:1017300008F09927EE0F9795879508950E94B20BB0
:101740000C94D50A0E94CE0A58F00E94C70A40F0B5
:1017500029F45F3F29F00C94BE0A51110C94090B37
:101760000C94C40A0E94E60A68F39923B1F3552346
:1017700091F3951B550BBB27AA27621773078407A4
:1017800038F09F5F5F4F220F331F441FAA1FA9F33A
:1017900035D00E2E3AF0E0E832D091505040E69528
:1017A000001CCAF72BD0FE2F29D0660F771F881F89
:1017B000BB1F261737074807AB07B0E809F0BB0B7C
:1017C000802DBF01FF2793585F4F3AF09E3F510590
:1017D00078F00C94BE0A0C94090B5F3FE4F3983E3A
:1017E000D4F3869577956795B795F7959F5FC9F779
:1017F000880F911D9695879597F90895E1E0660FFA
:10180000771F881FBB1F621773078407BA0720F072
:10181000621B730B840BBA0BEE1F88F7E0950895DB
:101820000E94170C6894B1110C94090B08950E9442
:10183000EE0A88F09F5798F0B92F9927B751B0F06A
:10184000E1F0660F771F881F991F1AF0BA95C9F744
:1018500014C0B13091F00E94080BB1E008950C94CF
:10186000080B672F782F8827B85F39F0B93FCCF382
:10187000869577956795B395D9F73EF490958095C1
:10188000709561957F4F8F4F9F4F08950E942D0A4D
:1018900008F48FEF08950E942D0A880B990B089584
:1018A000EE0FFF1F881F8BBF0790F691E02D199454
:0418B000F894FFCFDA
:1018B400000000000904690396035604C703A50346
:1018C400B9036E616E00696E66006F7666002D2D39
:1018D4002D205374617274696E672047616E74724F
:1018E40079204372616E65202D2D2D000D0A005361
:1018F40074617274696E67207465737400437572E1
:1019040072656E7420706F736974696F6E3A20002B
:081914004572726F723A200067
:00000001FF
