:020000040000FA
:100000000C9468010C9499010C9499010C94990139
:100010000C9499010C9499010C9499010C949901F8
:100020000C9499010C9499010C9499010C949901E8
:100030000C9499010C9499010C9499010C949901D8
:100040000C9499010C9499010C9499010C949901C8
:100050000C9499010C9499010C9499010C940A0642
:100060000C9499010C94DE060C94B4060C9499013E
:100070000C9499010C9499010C9499010C94990198
:100080000C9499010C9499010C9499010C94990188
:100090000C9499010C9499010C9499010C94990178
:1000A0000C9499010C9499010C9499010C94990168
:1000B0000C9499010C9499010C9499010C94990158
:1000C0000C9499010C9499010C9499010C94990148
:1000D0000C9499010C9499010C947E060C9454068E
:1000E0000C9499010C9485050C943E020C941E040A
:1000F0000C9436020C942C020C942D030C944305A2
:100100000C945B050C9415020C946D050C94DE05A3
:100110000C9431050C94BA050C9491050C94D205FD
:100120000C9464050C9414070C94F1020C94F201E5
:100130000C9437050C941E030C9418020C943A028C
:100140000C9428020C944F050C9481030C944402E7
:100150000C940D020C94F7010C94AE050C947905E7
:100160000C9422020C9448020C948F030C94090204
:100170000C94D1030C94A2050C941E020C94110251
:100180000C942B050C94C6050C9430024E414E493C
:100190004E495459494E46CDCCCC3D0AD7233C1745
:1001A000B7D13877CC2B329595E6241FB14F0A0092
:1001B0000020410000C84200401C4620BCBE4CCA82
:1001C0001B0E5AAEC59D7400002100240027002A92
:1001D000002D003000330001010000040107010A76
:1001E0000100002200250028002B002E00310034E1
:1001F0000002010000050108010B010505050507C6
:100200000508080808020202020A0A080804040491
:1002100004010101010101010103030303030303BD
:1002200003040707070C0C0C0C0C0C0C0C0202024C
:100230000206060606060606060B0B0B0B0B0B0B3F
:100240000B010210202008081020401020408002DE
:10025000010201080402010102040810204080800C
:100260004020100804020180040201804020100890
:100270000402010804020101020408102040800168
:100280000204081020408000000A0B02090C0D0E29
:100290000807030401000000000000000000000047
:1002A000000000000000000000000000000000004E
:1002B000000000121110000000000000000000000B
:1002C0000000000000000000000000000000140713
:1002D00011241FBECFEFD1E2DEBFCDBF00E00CBFC7
:1002E00012E0A0E0B2E0E2E2F0E200E00BBF02C008
:1002F00007900D92AE3DB107D9F724E0AEEDB2E024
:1003000001C01D92AB32B207E1F711E0C8E6D1E0BF
:1003100000E006C021970109802FFE010E94F10D27
:10032000C736D10780E00807A9F70E9472070C942E
:100330000F100C940000FC01A089B18982E08C931D
:10034000A485B5851C92A685B7858FEC8C93108EFD
:10035000A489B58986E08C93A289B3898C91806148
:100360008C93A289B3898C9188608C93A289B3897C
:100370008C9180688C930288F389E02D80818F7D39
:1003800080830895282F30E0F901E957FD4F9491BB
:10039000F901EF5BFD4F449125503E4FF901249147
:1003A000222309F435C0992311F191509231F8F4C8
:1003B000E92FF0E08827E052FE4F8F4F0C94F10DAB
:1003C00011021502F20109020D02F70118021E02C4
:1003D000220228022C02300236023A02F7013E02C3
:1003E00044024802809180008F7780938000E22F42
:1003F000F0E0EE0FFF1FEF51FE4FA591B4918FB7C4
:10040000F894EC91611148C040954E234C938FBFF6
:100410000895809180008F7DE8CF80918000877F54
:10042000E4CF84B58F7784BDE2CF84B58F7DFBCFD9
:100430008091B0008F778093B000D9CF8091B000C9
:100440008F7DF9CF809190008F7780939000CFCFF0
:10045000809190008F7DF9CF80919000877FF5CFBC
:100460008091A0008F778093A000C1CF8091A000E1
:100470008F7DF9CF8091A000877FF5CF80912001FB
:100480008F7780932001B3CF809120018F7DF9CFAA
:1004900080912001877FF5CF4E2BB8CFCF93DF938C
:1004A00090E0FC01EF5BFD4F249185509E4FFC01D5
:1004B00084918823D1F090E0880F991FFC01E953C3
:1004C000FE4FA591B491FC01EF51FE4FC591D4911F
:1004D00061110EC09FB7F8948C91E22FE0958E23A6
:1004E0008C932881E223E8839FBFDF91CF91089509
:1004F0008FB7F894EC91E22BEC938FBFF6CF9091ED
:100500007B00977F90937B008653806480937C0070
:1005100080917A00806480937A0080917A0086FDD1
:10052000FCCF809178009091790008953FB7F894BE
:100530008091E3029091E402A091E502B091E6027D
:1005400026B5A89B05C02F3F19F00196A11DB11D2E
:100550003FBFBA2FA92F982F8827BC01CD01620F6A
:10056000711D811D911D42E0660F771F881F991F25
:100570004A95D1F708958F929F92AF92BF92CF92F2
:10058000DF92EF92FF920E9496024B015C0188EE8F
:10059000C82E83E0D82EE12CF12C0E949602681917
:1005A00079098A099B09683E734081059105A8F382
:1005B00021E0C21AD108E108F10888EE880E83E034
:1005C000981EA11CB11CC114D104E104F10429F747
:1005D000FF90EF90DF90CF90BF90AF909F908F9063
:1005E0000895AF92BF92CF92DF92EF92FF920F9356
:1005F0001F93CF93DF936C017B018B01040F151FB9
:10060000EB015E01AE18BF08C017D10759F0699120
:10061000D601ED91FC910190F081E02DC601199574
:10062000892B79F7C501DF91CF911F910F91FF9031
:10063000EF90DF90CF90BF90AF900895FC01538D65
:10064000448D252F30E0842F90E0821B930B5417AC
:1006500010F0CF96089501970895FC01918D828D39
:10066000981761F0A28DAE0FBF2FB11D5D968C91D2
:10067000928D9F5F9F73928F90E008958FEF9FEF11
:1006800008952FB7F8948091210490912204A091AD
:100690002304B09124042FBF8093EF029093F002C3
:1006A000A093F102B093F20287EE92E00E942D0334
:1006B00097FF26C02FB7F8948091210490912204CF
:1006C000A0912304B09124042FBF4091EF025091D8
:1006D000F0026091F1027091F202841B950BA60B5F
:1006E000B70B4091EB025091EC026091ED027091DA
:1006F000EE0284179507A607B707B0F28FEF9FEFBA
:100700000895FC01918D828D981731F0828DE80F4C
:10071000F11D858D90E008958FEF9FEF0895FC0106
:10072000918D228D892F90E0805C9F4F821B9109D3
:100730008F739927089587EE92E00E948F0321E03E
:10074000892B09F420E0822F089584E893E00E9429
:100750008F0321E0892B09F420E0822F0895FC010A
:10076000A48DA80FB92FB11DA35ABF4F2C91848D12
:1007700090E001968F739927848FA689B7892C936F
:10078000A089B1898C91837080648C93938D848DC2
:10079000981306C00288F389E02D80818F7D8083C5
:1007A0000895EF92FF920F931F93CF93DF93EC0185
:1007B00081E0888F9B8D8C8D98131AC0E889F98908
:1007C000808185FF15C09FB7F894EE89FF8960830B
:1007D000E889F98980818370806480839FBF81E08C
:1007E00090E0DF91CF911F910F91FF90EF900895CE
:1007F000F62E0B8D10E00F5F1F4F0F731127E02EA9
:100800008C8D8E110CC00FB607FCFACFE889F989E0
:10081000808185FFF5CFCE010E94AF03F1CFEB8D34
:10082000EC0FFD2FF11DE35AFF4FF0829FB7F894B4
:100830000B8FEA89FB8980818062CFCFCF93DF93D2
:10084000EC01888D8823B9F0AA89BB89E889F989E8
:100850008C9185FD03C0808186FD0DC00FB607FC1D
:10086000F7CF8C9185FFF2CF808185FFEDCFCE0150
:100870000E94AF03E9CFDF91CF91089580E090E02F
:10088000892B29F00E94A50381110E94000080E0BD
:1008900090E0892B49F080E090E0892B29F00E94BC
:1008A000000081110E94000080E090E0892B49F057
:1008B00080E090E0892B29F00E94000081110E94C5
:1008C000000080E090E0892B29F00E949B038111B9
:1008D0000C9400000895FC0101900020E9F7319785
:1008E000AF01481B590BBC0184E893E00C94F10262
:1008F0008F929F92AF92BF920F931F93CF93DF93EC
:10090000CDB7DEB7A1970FB6F894DEBF0FBECDBF4F
:1009100019A2423008F44AE08E010F5D1F4F842E69
:10092000912CB12CA12CA50194010E94A80CE62FBA
:10093000B901CA01EA30F4F4E05DD801EE938D010B
:10094000232B242B252B79F790E080E0109719F0CA
:10095000CD010E946B04A1960FB6F894DEBF0FBEC6
:10096000CDBFDF91CF911F910F91BF90AF909F901E
:100970008F900895E95CE1CFCF93DF930E946B04E1
:10098000EC0188E192E00E946B048C0F9D1FDF91C7
:10099000CF910895CF92DF92EF92FF92CF93DF93A2
:1009A00097FF1BC06B017C016DE284E893E00E941D
:1009B000D103EC0166277727CB016C197D098E09DD
:1009C0009F094AE00E9478048C0F9D1FDF91CF9110
:1009D000FF90EF90DF90CF9008954AE0DF91CF91A4
:1009E000FF90EF90DF90CF900C947804CF93DF933B
:1009F000BC01990F880B990B0E94CA04EC0188E195
:100A000092E00E946B048C0F9D1FDF91CF9108959F
:100A1000982FE82FF0E0E957FD4FE491E150E231E3
:100A200008F0CCC0F0E08827E75EFA4F8F4F0C94B7
:100A3000F10D2B053105370543054F05DE055B0537
:100A400064056D05790585059105A205AE05DE05F0
:100A5000BA05C605D20584B5806884BD8FE787BD19
:100A6000089584B5806284BD8FE788BD0895809124
:100A700080008068809380008FE790E090938900E9
:100A80008093880008958091800080628093800028
:100A90008FE790E090938B0080938A000895809177
:100AA00080008860809380008FE790E090938D00B5
:100AB00080938C0008958091B00080688093B0008E
:100AC0008FE78093B30008958091B0008062809397
:100AD000B0008FE78093B400089580919000806803
:100AE000809390008FE790E0909399008093980016
:100AF0000895809190008062809390008FE790E04D
:100B000090939B0080939A00089580919000886054
:100B1000809390008FE790E090939D0080939C00DD
:100B200008958091A00080688093A0008091A0002B
:100B30008F7B8093A0008FE790E09093A900809333
:100B4000A80008958091A00080628093A0008FE7A4
:100B500090E09093AB008093AA0008958091A0004C
:100B600088608093A0008FE790E09093AD00809321
:100B7000AC000895809120018068809320018FE768
:100B800090E090932901809328010895809120019D
:100B90008062809320018FE790E090932B018093F7
:100BA0002A010895809120018860809320018FE7B9
:100BB00090E090932D0180932C01089560E0892F9F
:100BC0000C94C2010F931F93CF93DF93EC018881A4
:100BD0009981009759F02A813B812617370730F019
:100BE00081E0DF91CF911F910F9108958B016F5F8D
:100BF0007F4F0E941E0F009759F0998388831B83B3
:100C00000A832C813D81232B59F7FC011082E8CF08
:100C100080E0E7CF1F920F920FB60F9211242F930F
:100C20003F938F939F93AF93BF93809121049091B3
:100C30002204A0912304B09124043091E20223E025
:100C4000230F2D3758F50196A11DB11D2093E20207
:100C50008093210490932204A0932304B09324044E
:100C60008091E3029091E402A091E502B091E60246
:100C70000196A11DB11D8093E3029093E402A0931D
:100C8000E502B093E602BF91AF919F918F913F91A2
:100C90002F910F900FBE0F901F90189526E8230FED
:100CA0000296A11DB11DD2CF1F920F920FB60F92C7
:100CB00011240BB60F922F933F934F935F936F9333
:100CC0007F938F939F93AF93BF93EF93FF9387EEA1
:100CD00092E00E94AF03FF91EF91BF91AF919F917E
:100CE0008F917F916F915F914F913F912F910F90D5
:100CF0000BBE0F900FBE0F901F9018951F920F9272
:100D00000FB60F9211240BB60F922F938F939F93D0
:100D1000EF93FF93E091F702F091F8028081E09168
:100D2000FD02F091FE0282FD1DC0908180910003C2
:100D30008F5F8F7320910103821741F0E0910003D0
:100D4000F0E0E951FD4F958F80930003FF91EF9103
:100D50009F918F912F910F900BBE0F900FBE0F9010
:100D60001F9018958081F2CF1F920F920FB60F92AD
:100D700011240BB60F922F933F934F935F936F9372
:100D80007F938F939F93AF93BF93EF93FF9384E8E9
:100D900093E00E94AF03FF91EF91BF91AF919F91BC
:100DA0008F917F916F915F914F913F912F910F9014
:100DB0000BBE0F900FBE0F901F9018951F920F92B1
:100DC0000FB60F9211240BB60F922F938F939F9310
:100DD000EF93FF93E0919403F09195038081E0916C
:100DE0009A03F0919B0382FD1DC0908180919D0329
:100DF0008F5F8F7320919E03821741F0E0919D03D6
:100E0000F0E0EC57FC4F958F80939D03FF91EF919D
:100E10009F918F912F910F900BBE0F900FBE0F904F
:100E20001F9018958081F2CFE7EEF2E013821282D4
:100E300048EE53E060E070E0448355836683778337
:100E40008AE092E09183808325E331E0358724872F
:100E500024E331E03787268720E331E0318B208B94
:100E600021E331E0338B228B22E331E0358B248B7D
:100E700026E331E0378B268B118E128E138E148E63
:100E8000E4E8F3E013821282448355836683778318
:100E90009183808385EC90E09587848784EC90E053
:100EA0009787868780EC90E0918B808B81EC90E037
:100EB000938B828B82EC90E0958B848B86EC90E018
:100EC000978B868B118E128E138E148E8FB7F8949B
:100ED00040912104509122046091230470912404D4
:100EE0008FBF0895CF93DF9300D000D01F921F9241
:100EF000CDB7DEB7789484B5826084BD84B5816057
:100F000084BD85B5826085BD85B5816085BD8091D4
:100F10006E00816080936E0010928100809181004C
:100F20008260809381008091810081608093810044
:100F3000809180008160809380008091B100846006
:100F40008093B1008091B00081608093B000809167
:100F500091008260809391008091910081608093E4
:100F60009100809190008160809390008091A10019
:100F700082608093A1008091A10081608093A10094
:100F80008091A00081608093A00080912101826007
:100F900080932101809121018160809321018091C2
:100FA000200181608093200180917A008460809389
:100FB0007A0080917A00826080937A0080917A0032
:100FC000816080937A0080917A00806880937A00B3
:100FD0001092C10084E893E00E949B0187EE92E0AA
:100FE0000E949B010E94BB028BE192E00E94BC0424
:100FF00061E088E00E944E0261E08AE00E944E02B9
:1010000060E086E30E944E0261E089E00E944E02A9
:1010100061E08BE00E944E0260E087E30E944E0296
:1010200061E08AE00E944E028AE00E94080561E0C9
:101030008BE00E944E028BE00E94080589E392E05B
:101040000E94BC04D12CC12C812C912C540184E62B
:10105000C816D10409F46FC087EE92E00E948F0396
:10106000892BA9F387EE92E00E942D030A9779F766
:101070001A8219821C821B821E821D8270E060E02F
:10108000CE0101960E94E20529813A8181112FC08B
:101090002115310519F0C9010E94950E1A82198295
:1010A0001E821D821C821B820E94410397FD27C065
:1010B0008A30910521F18F831886ED80FE808FEFB5
:1010C000E81AF80AB701CE0101960E94E2058823CA
:1010D00059F329813A818D819E81BE01695F7F4FDD
:1010E000820F931F0E940810FE82ED82DDCF1E82C8
:1010F0001D826AE172E0C9010E940810D5CF898182
:101100009A8120E030E0A901009721F00E94D409E3
:101110009B01AC01C501B4010E94DA0C4B015C01DA
:101120008FEFC81AD80A89819A81009709F48FCF66
:101130000E94950E8CCF20E030E048EC52E4C501CF
:10114000B4010E94460D6093DE027093DF0280932B
:10115000E0029093E10282E592E00E946B04C0906D
:10116000DE02D090DF02E090E002F090E102A70101
:101170009601C701B6010E94EC0D882309F482C0D4
:1011800081E692E00E946B0488E192E00E946B0489
:101190002FB7F8948091210490912204A091230408
:1011A000B09124042FBF0E94F60483E3882E83E0CD
:1011B000982EA12CB12C9CE6C92E93E0D92EE12CBF
:1011C000F12C60E088E00E94C20160E089E00E94AA
:1011D000C2018DE692E00E94BC0481E892E00E9488
:1011E0006B0486E30E947F020E94F6048CE992E081
:1011F0000E946B0487E30E947F020E94F60487EB43
:1012000092E00E946B0486E30E947F029C01990F8A
:10121000440B550B2458310941095109A0E9B1E0AB
:101220000E949D0CA50194010E947E0CCA01B90187
:101230000E94CA0488E192E00E946B048AEC92E06A
:101240000E946B0487E30E947F029C01990F440B6C
:10125000550B2D53310941095109A5E8B0E00E9411
:101260009D0CA70196010E947E0CCA01B9010E9443
:10127000CA0488E192E00E946B040E94BB020E94B3
:101280003E049FCF46015701E894B7F82FEF3FEF98
:101290004FE75FE7C501B4010E94EC0D81110DC05D
:1012A0002FEF3FEF4FE75FE7C501B4010E94570BF7
:1012B00018161CF485E692E065CF2FEF3FEF4FE75D
:1012C0005FE4C701B6010E94E70D18161CF489E619
:1012D00092E058CF2FEF3FEF4FE75FECC701B60129
:1012E0000E94570B87FDF3CF20E030E0A901C70132
:1012F000B6010E94570B87FF09C06DE284E893E0B6
:101300000E94D103F7FAF094F7F8F0942AE037ED51
:1013100043EA5BE3C701B6010E94DA0C4B015C01B2
:101320000E94B80D6B017C010E945C0B9B01AC011B
:10133000C501B4010E94D90C4B015C014AE0C70110
:10134000B6010E9478046EE284E893E00E94D10323
:1013500020E030E040E251E4C501B4010E94BD0B41
:101360004B015C010E94B80D6B01F12CE12C4AE0AD
:10137000C701B6010E947804C701B6010E945C0B48
:101380009B01AC01C501B4010E94D90C20E030E002
:1013900040E251E40E94BD0B0E94B80D90E080E055
:1013A0004AE00E947804F0CE662777270C94D8098B
:1013B0008F929F92AF92BF92CF92DF92EF92FF9265
:1013C0000F931F93CF93DF935C017B016115710530
:1013D00019F0DB018D939C9385010F5F1F4FF50181
:1013E000D0818D2F90E00E94360B6C01892BB9F5CE
:1013F000DD32B9F50F5F1F4FD5011196DC91C1E0C9
:101400005801F1E0AF1AB10843E050E064E971E03F
:10141000C5010E943F0B892B69F5680182E0C80E67
:10142000D11C45E050E06FE871E0C6010E943F0B1F
:10143000892B21F4680197E0C90ED11CE114F10455
:1014400019F0D701CD92DC9260E070E080E89FEF68
:10145000C111FFC060E070E080E89FE7FAC058016A
:10146000BBCFDB3229F485010E5F1F4FF501D1811F
:10147000C0E0C6CF43E050E06CE871E0C5010E94D7
:101480003F0B892BE9F0F80110E000E020E030E0AC
:10149000A9015F01B0ED8B2E8D0E89E08815C8F192
:1014A0009C2E689491F88C2F8870C2FF16C0811111
:1014B00002C00F5F1F4F3196D501DC91C92DE9CFD6
:1014C000E114F10429F00E5F1F4FF701118300832F
:1014D00060E070E080EC9FE7BCC0882311F0015011
:1014E0001109A5E0B0E00E949D0C9B01AC01220F08
:1014F000331F441F551F280D311D411D511D283913
:1015000099E93907490799E15907A8F2C6609C2E65
:10151000D2CFAEEF8A1206C0C3FD3CC09C2E6894A9
:1015200093F8C9CFDF7DD534A9F580818D3239F4A8
:10153000C061DF011296818162E070E006C0DF01C8
:101540008B32C1F3119661E070E080535D01A61A01
:10155000B70A8A30F8F4E0E8CE16ECE0DE065CF478
:10156000B601660F771F660F771FC60ED71ECC0C0D
:10157000DD1CC80ED11C5D01FFEFAF1ABF0A8C91B4
:1015800080538A30A8F1C4FF03C0D194C194D1081C
:101590000C0D1D1DC1FF09C0E114F10431F081E003
:1015A000A81AB108D701AD92BC92CA01B9010E9434
:1015B0005C0BC370C33009F490584B015C0120E010
:1015C00030E0A9010E94570B882309F440C0C3EC06
:1015D000D1E017FF05C0119501951109CBEAD1E0C3
:1015E0006E01B8E1CB1AD10880E2E82EF12C0FC0D1
:1015F000D501B1CFFE0125913591459154910E1938
:101600001F09C501B4010E94BD0B4B015C01D5014E
:10161000C4010E151F0574F72497F594E794CC16B2
:10162000DD06A9F78A2F880F8B2F881F8F3F49F07F
:1016300020E030E0A901C501B4010E94570B8111DF
:1016400006C082E290E09093260480932504C501B1
:10165000B401DF91CF911F910F91FF90EF90DF9038
:10166000CF90BF90AF909F908F90089591110C9460
:101670002A0C803219F089508550C8F70895FB0173
:10168000DC014150504088F08D9181341CF08B3545
:101690000CF4805E659161341CF06B350CF4605E77
:1016A000861B611171F3990B0895881BFCCF0E9472
:1016B000990B08F481E00895E89409C097FB3EF483
:1016C00090958095709561957F4F8F4F9F4F99238F
:1016D000A9F0F92F96E9BB279395F695879577950D
:1016E0006795B795F111F8CFFAF4BB0F11F460FFCD
:1016F0001BC06F5F7F4F8F4F9F4F16C0882311F025
:1017000096E911C0772321F09EE8872F762F05C038
:10171000662371F096E8862F70E060E02AF09A95D3
:10172000660F771F881FDAF7880F9695879597F9C8
:101730000895990F0008550FAA0BE0E8FEEF161662
:101740001706E807F907C0F012161306E407F507B5
:1017500098F0621B730B840B950B39F40A2661F029
:10176000232B242B252B21F408950A2609F4A140CC
:10177000A6958FEF811D811D08950E94D00B0C94BA
:10178000440C0E94360C38F00E943D0C20F095234A
:1017900011F00C942D0C0C94330C11240C94780C37
:1017A0000E94550C70F3959FC1F3950F50E0551FA3
:1017B000629FF001729FBB27F00DB11D639FAA27A6
:1017C000F00DB11DAA1F649F6627B00DA11D661FF5
:1017D000829F2227B00DA11D621F739FB00DA11D16
:1017E000621F839FA00D611D221F749F3327A00DD0
:1017F000611D231F849F600D211D822F762F6A2F6C
:1018000011249F5750409AF0F1F088234AF0EE0FD0
:10181000FF1FBB1F661F771F881F91505040A9F7FD
:101820009E3F510580F00C942D0C0C94780C5F3F7A
:10183000E4F3983ED4F3869577956795B795F79539
:10184000E7959F5FC1F7FE2B880F911D96958795B1
:1018500097F9089599278827089597F99F6780E851
:1018600070E060E008959FEF80EC089500240A94F2
:101870001616170618060906089500240A9412166B
:101880001306140605060895092E0394000C11F49E
:10189000882352F0BB0F40F4BF2B11F460FF04C04B
:1018A0006F5F7F4F8F4F9F4F089557FD9058440FA4
:1018B000551F59F05F3F71F04795880F97FB991FAF
:1018C00061F09F3F79F0879508951216130614066C
:1018D000551FF2CF4695F1DF08C0161617061806F9
:1018E000991FF1CF86957105610508940895E894D4
:1018F000BB2766277727CB0197F90895052E97FB1D
:101900001EF400940E94950C57FD07D00E94A80C6D
:1019100007FC03D04EF40C94950C509540953095EF
:1019200021953F4F4F4F5F4F08959095809570954B
:1019300061957F4F8F4F9F4F08950E94CA0CA59FBE
:10194000900DB49F900DA49F800D911D11240895BA
:10195000A1E21A2EAA1BBB1BFD010DC0AA1FBB1FB3
:10196000EE1FFF1FA217B307E407F50720F0A21B25
:10197000B30BE40BF50B661F771F881F991F1A9492
:1019800069F760957095809590959B01AC01BD01BC
:10199000CF010895A29FB001B39FC001A39F700D16
:1019A000811D1124911DB29F700D811D1124911D67
:1019B00008955058BB27AA270E94F10C0C94440CA0
:1019C0000E94360C38F00E943D0C20F039F49F3F05
:1019D00019F426F40C94330C0EF4E095E7FB0C9408
:1019E0002D0CE92F0E94550C58F3BA1762077307A4
:1019F0008407950720F079F4A6F50C94770C0EF483
:101A0000E0950B2EBA2FA02D0B01B90190010C010E
:101A1000CA01A0011124FF27591B99F0593F50F426
:101A2000503E68F11A16F040A22F232F342F44277E
:101A3000585FF3CF469537952795A795F040539576
:101A4000C9F77EF41F16BA0B620B730B840BBAF046
:101A50009150A1F0FF0FBB1F661F771F881FC2F7B1
:101A60000EC0BA0F621F731F841F48F487957795C5
:101A70006795B795F7959E3F08F0B0CF9395880F7F
:101A800008F09927EE0F9795879508950E945A0DB3
:101A90000C94440C0E943D0C58F00E94360C40F00F
:101AA00029F45F3F29F00C942D0C51110C94780C03
:101AB0000C94330C0E94550C68F39923B1F3552311
:101AC00091F3951B550BBB27AA2762177307840751
:101AD00038F09F5F5F4F220F331F441FAA1FA9F3E7
:101AE00035D00E2E3AF0E0E832D091505040E695D5
:101AF000001CCAF72BD0FE2F29D0660F771F881F36
:101B0000BB1F261737074807AB07B0E809F0BB0B28
:101B1000802DBF01FF2793585F4F3AF09E3F51053C
:101B200078F00C942D0C0C94780C5F3FE4F3983E05
:101B3000D4F3869577956795B795F7959F5FC9F725
:101B4000880F911D9695879597F90895E1E0660FA6
:101B5000771F881FBB1F621773078407BA0720F01F
:101B6000621B730B840BBA0BEE1F88F7E095089588
:101B70000E945D0C88F09F5798F0B92F9927B751B4
:101B8000B0F0E1F0660F771F881F991F1AF0BA9521
:101B9000C9F714C0B13091F00E94770CB1E00895FC
:101BA0000C94770C672F782F8827B85F39F0B93FEE
:101BB000CCF3869577956795B395D9F73EF49095D4
:101BC0008095709561957F4F8F4F9F4F08950E942C
:101BD000990B08F48FEF08950E94990B880B990BCD
:101BE0000895EE0FFF1F881F8BBF0790F691E02D21
:101BF00019940F931F93CF93DF938230910510F4C4
:101C000082E090E0E0912904F0912A0430E020E0A5
:101C1000B0E0A0E0309799F42115310509F44AC0ED
:101C2000281B390B24303105D8F58A819B81611539
:101C3000710589F1FB0193838283FE0111C040810C
:101C400051810281138148175907E0F0481759075D
:101C500099F4109761F012960C93129713961C93B7
:101C60003296CF01DF91CF911F910F91089500938C
:101C7000290410932A04F4CF2115310551F042179D
:101C8000530738F0A901DB019A01BD01DF01F8011A
:101C9000C1CFEF01F9CF90932A0480932904CDCFCF
:101CA000FE01E20FF31F8193919322503109398392
:101CB0002883D7CF2091270430912804232B41F487
:101CC00020910202309103023093280420932704CC
:101CD00020910002309101022115310541F42DB708
:101CE0003EB74091040250910502241B350BE09150
:101CF0002704F0912804E217F307A0F42E1B3F0BF2
:101D00002817390778F0AC014E5F5F4F241735076D
:101D100048F04E0F5F1F509328044093270481938F
:101D200091939FCFF0E0E0E09CCFCF93DF930097BB
:101D3000E9F0FC01329713821282A0912904B0913C
:101D40002A04ED0130E020E01097A1F420813181D8
:101D5000820F931F209127043091280428173907F8
:101D600009F061C0F0932804E0932704DF91CF913C
:101D70000895EA01CE17DF07E8F54A815B819E01ED
:101D800041155105B1F7E901FB83EA834991599166
:101D9000C40FD51FEC17FD0761F480819181029675
:101DA000840F951FE90199838883828193819B83A6
:101DB0008A83F0E0E0E012968D919C911397009752
:101DC000B9F52D913C911197CD010296820F931F89
:101DD00020912704309128042817390739F63097C5
:101DE00051F510922A0410922904B0932804A0936C
:101DF0002704BCCFD383C28340815181840F951FB8
:101E0000C817D90761F44E5F5F4F88819981480FE9
:101E1000591F518340838A819B819383828321153B
:101E2000310509F0B0CFF0932A04E09329049ECF46
:101E3000FD01DC01C0CF13821282D7CF4F925F9297
:101E40006F927F928F929F92AF92BF92CF92DF92CA
:101E5000EF92FF920F931F93CF93DF938C01009724
:101E600099F4CB01DF91CF911F910F91FF90EF90EB
:101E7000DF90CF90BF90AF909F908F907F906F90AA
:101E80005F904F900C94F90DFC01E60FF71F9C0139
:101E900022503109E217F30708F4AEC0D901CD9101
:101EA000DC911197C617D70720F1C530D10578F01E
:101EB000CE0104978617970750F0C61BD70B2297C1
:101EC000C193D1936D937C93CF010E94950EC8016D
:101ED000DF91CF911F910F91FF90EF90DF90CF9006
:101EE000BF90AF909F908F907F906F905F904F903A
:101EF00008955B01AC1ABD0A4C018C0E9D1EA09189
:101F00002904B0912A04512C412CF12CE12C10977A
:101F100031F580912704909128048815990509F0DE
:101F20005CC04616570608F058C080910002909198
:101F30000102009741F48DB79EB740910402509181
:101F40000502841B950BE817F90708F055C0F093BC
:101F50002804E0932704F90171836083B8CF8D9141
:101F60009C91119712966C90129713967C901397F0
:101F7000A815B90559F56C0142E0C40ED11CCA146C
:101F8000DB0420F1AC014A195B09DA0112961597BE
:101F900080F06282738251834083D9016D937C9378
:101FA000E114F10471F0D7011396FC93EE931297AC
:101FB0008ECF22968C0F9D1FF90191838083F301B0
:101FC000EFCFF0932A04E093290481CF48165906F5
:101FD00008F42C017D01D3019ACFCB010E94F90DA9
:101FE0007C01009749F0AE01B8010E94FF0FC801C3
:101FF0000E94950E87016BCF10E000E068CFFB01D7
:10200000DC0102C001900D9241505040D8F7089574
:10201000FB01DC0101900D920020E1F70895F89496
:10202000FFCF00002B04800000000000D103F1026C
:102030001E031E048F032D0381030D0A002D2D2D79
:10204000205374617274696E672047616E7472798F
:10205000204372616E65202D2D2D002D2D2D2043E6
:102060006F7272656374696E6720616E676C65205C
:102070002D2D2D00416E676C65206F66667365744B
:102080003A20006E616E00696E66006F7666002D04
:102090002D2D2D2D2D2D2D2D2D2D2D2D2D2D2D2D70
:1020A0002D2D005820706F736974696F6E20696EF2
:1020B00020616E616C6F67526561643A200059203F
:1020C000706F736974696F6E20696E20616E616CE8
:1020D0006F67526561643A20005820706F736974AD
:1020E000696F6E20696E20636D3A20005920706F11
:1020F000736974696F6E20696E20636D3A20000009
:020000040003F7
:10E000000D9489F10D94B2F10D94B2F10D94B2F129
:10E010000D94B2F10D94B2F10D94B2F10D94B2F1F0
:10E020000D94B2F10D94B2F10D94B2F10D94B2F1E0
:10E030000D94B2F10D94B2F10D94B2F10D94B2F1D0
:10E040000D94B2F10D94B2F10D94B2F10D94B2F1C0
:10E050000D94B2F10D94B2F10D94B2F10D94B2F1B0
:10E060000D94B2F10D94B2F10D94B2F10D94B2F1A0
:10E070000D94B2F10D94B2F10D94B2F10D94B2F190
:10E080000D94B2F10D94B2F10D94B2F10D94B2F180
:10E090000D94B2F10D94B2F10D94B2F10D94B2F170
:10E0A0000D94B2F10D94B2F10D94B2F10D94B2F160
:10E0B0000D94B2F10D94B2F10D94B2F10D94B2F150
:10E0C0000D94B2F10D94B2F10D94B2F10D94B2F140
:10E0D0000D94B2F10D94B2F10D94B2F10D94B2F130
:10E0E0000D94B2F141546D656761323536300041AF
:10E0F000726475696E6F206578706C6F72657220DE
:10E1000073746B3530305632206279204D4C530099
:10E11000426F6F746C6F616465723E004875683F52
:10E1200000436F6D70696C6564206F6E203D200048
:10E130004350552054797065202020203D20005FF9
:10E140005F4156525F415243485F5F3D2000415658
:10E1500052204C696243205665723D20004743437C
:10E160002056657273696F6E203D20004350552024
:10E1700049442020202020203D20004C6F7720663D
:10E18000757365202020203D20004869676820665F
:10E190007573652020203D200045787420667573D6
:10E1A00065202020203D20004C6F636B2066757336
:10E1B000652020203D20004D617220203720323024
:10E1C000313300312E362E3800342E332E350056A2
:10E1D00023202020414444522020206F7020636F70
:10E1E00064652020202020696E73747275637469E1
:10E1F0006F6E2061646472202020496E74657272B3
:10E20000757074006E6F20766563746F7200726A49
:10E210006D702020006A6D70200057686174207056
:10E220006F72743A00506F7274206E6F7420737541
:10E2300070706F72746564004D7573742062652030
:10E2400061206C6574746572002000577269747483
:10E25000696E672045450052656164696E672045B7
:10E26000450045452065727220636E743D00504F35
:10E27000525400303D5A65726F2061646472003FF1
:10E280003D43505520737461747300403D454550C3
:10E29000524F4D207465737400423D426C696E6B41
:10E2A000204C454400453D44756D70204545505215
:10E2B0004F4D00463D44756D7020464C415348001B
:10E2C000483D48656C70004C3D4C69737420492F83
:10E2D0004F20506F72747300513D51756974005234
:10E2E0003D44756D702052414D00563D73686F7707
:10E2F00020696E7465727275707420566563746FF0
:10E30000727300593D506F727420626C696E6B00BD
:10E310002A0011241FBECFEFD1E2DEBFCDBF01E046
:10E320000CBF12E0A0E0B2E0EEE1FDEF03E00BBFB6
:10E3300002C007900D92A030B107D9F712E0A0E01B
:10E34000B2E001C01D92AE30B107E1F70F9460F367
:10E350000D948DFE01E20EBF0FEF0DBF11241FBE05
:10E360000D9460F30D9400F020E030E040ED57E0B4
:10E3700005C0FA013197F1F72F5F3F4F2817390792
:10E38000C0F308959C01260F311DC901A0E0B0E043
:10E390002F5F3F4FABBFFC018791882361F08093D3
:10E3A000C6008091C00086FFFCCF8091C0008064D1
:10E3B0008093C000EACF08958DE08093C6008091DD
:10E3C000C00086FFFCCF8091C00080648093C000B5
:10E3D0008AE08093C6008091C00086FFFCCF8091C8
:10E3E000C00080648093C00008950F94C2F10F9420
:10E3F000DCF10895FC019081992359F09093C600B7
:10E400008091C00086FFFCCF8091C0008064809323
:10E41000C0003196992379F70895282F982F929567
:10E420009F70892F805D8A3308F0895F8093C600D2
:10E430008091C00086FFFCCF8091C00080648093F3
:10E44000C000822F8F70982F905D9A3308F0995FEB
:10E450009093C6008091C00086FFFCCF8091C000E1
:10E4600080648093C00008959C01FB01853691056E
:10E470001CF46330710594F0C90164E670E00F94F8
:10E480002EFE605D7F4F6093C6008091C00086FFC6
:10E49000FCCF8091C00080648093C0002B30310598
:10E4A00014F43297B4F0C90164E670E00F942EFEC4
:10E4B0006AE070E00F942EFE605D7F4F6093C600AF
:10E4C0008091C00086FFFCCF8091C0008064809363
:10E4D000C000C9016AE070E00F942EFEC0968093E0
:10E4E000C6008091C00086FFFCCF8091C000806490
:10E4F0008093C00008951F93182F8EE692EE60E07F
:10E500000F94C2F11093C6008091C00086FFFCCF2B
:10E510008091C00080648093C0000F94DCF11F9153
:10E5200008952F923F924F925F926F927F928F92B7
:10E530009F92AF92BF92CF92DF92EF92FF920F9392
:10E540001F93DF93CF93CDB7DEB762970FB6F894E2
:10E55000DEBF0FBECDBF382E622ECA01DB015C01CB
:10E560006D01772420E2222E2E010894411C511CBB
:10E570008BC081E0A81680E0B80681E0C80680E084
:10E58000D80628F0C601AA27BB270F940DF2BB2797
:10E59000AD2D9C2D8B2D0F940DF28A2D0F940DF225
:10E5A0002092C6008091C00086FFFCCF8091C00001
:10E5B00080648093C0009DE29093C6008091C0006B
:10E5C00086FFFCCF8091C00080648093C0002092C1
:10E5D000C6008091C00086FFFCCF8091C00080649F
:10E5E0008093C00019828601750188249924A1E0D6
:10E5F0003A1651F03A1620F0B2E03B1661F409C029
:10E600000BBFF701779007C0C7010F9477FE782EF4
:10E6100002C0F7017080872D0F940DF22092C60082
:10E620008091C00086FFFCCF8091C0008064809301
:10E63000C000872D8052F401EF70F0708F3520F408
:10E64000E40DF51D708204C0E40DF51D8EE280839B
:10E650000894E11CF11C011D111D0894811C911CE2
:10E6600090E18916910409F0C2CF80E190E0A0E02A
:10E67000B0E0A80EB91ECA1EDB1E198AC2010F9493
:10E68000FAF10F94DCF16A94662009F072CF629679
:10E690000FB6F894DEBF0FBECDBFCF91DF911F91B3
:10E6A0000F91FF90EF90DF90CF90BF90AF909F9031
:10E6B0008F907F906F905F904F903F902F90089534
:10E6C0002F923F924F925F926F927F928F929F9282
:10E6D000AF92BF92CF92DF92EF92FF920F931F9370
:10E6E000DF93CF93CDB7DEB7CD53D1400FB6F894BB
:10E6F000DEBF0FBECDBF01E20EBF0FEF0DBF94B75F
:10E70000F894A89514BE80916000886180936000A1
:10E7100010926000789493FF05C0E0910002F091A0
:10E7200001021995279A2F9A8091C00082608093E8
:10E73000C00080E18093C40088E18093C1000000A4
:10E74000EE24FF24870144E0A42EB12CCC24DD2448
:10E7500024C0C5010197F1F70894E11CF11C011DCB
:10E76000111D21E2E2162EE4F20620E0020720E06D
:10E77000120718F031E0C32ED12CC801B70127ECE5
:10E780003BE140E050E00F9441FE611571058105C9
:10E79000910519F485B1805885B98091C00087FD35
:10E7A00003C0C114D104A9F2A6014F5F5F4FC25E3E
:10E7B000DE4F59834883CE51D140C25EDE4F8881FF
:10E7C0009981CE51D140019711F00D9410FEC05D9A
:10E7D000DE4F19821882C053D14060E0C15DDE4F28
:10E7E0001882CF52D14088249924C35DDE4F19820C
:10E7F0001882CD52D140C05EDE4F188219821A8233
:10E800001B82C052D140CE5CDE4F188219821A8220
:10E810001B82C253D140EE24FF2487010BBFF701B6
:10E8200007911691C45CDE4F19830883CC53D14005
:10E830000D940BFEC25EDE4F28813981CE51D1404E
:10E840002130310509F52091C600C25EDE4F1982E4
:10E850001882CE51D14022C02F5F3F4F4F4F5F4FA4
:10E86000213082E138078AE7480780E0580780F0C6
:10E87000C45CDE4FE881F981CC53D140EF5FFF4F9C
:10E8800019F0EE27FF27099420E030E040E050E047
:10E890008091C00087FFE0CF2091C600C35DDE4FAE
:10E8A00048815981CD52D1404F5F5F4FC35DDE4FEC
:10E8B00059834883CD52D140213209F063C64A3092
:10E8C000510508F05FC60894811C911C53E0851621
:10E8D000910409F059C600E010E018C081E280936D
:10E8E000C6008091C00086FFFCCF8091C00080648C
:10E8F0008093C0002F5F3F4F2931310579F70F9486
:10E90000DCF10F5F1F4F0530110519F020E030E0FA
:10E91000E5CF10920A0210920B0210920C02109294
:10E920000D02109206021092070210920802109235
:10E930000902109202021092030210920402109235
:10E9400005028FEE90EE60E00F94F5F180E191EE1C
:10E9500060E00F94C2F18091C00087FFFCCF9091DE
:10E96000C600903608F09F759032B8F09093C600BC
:10E970008091C00086FFFCCF8091C00080648093AE
:10E98000C000A0E2A093C6008091C00086FFFCCF2B
:10E990008091C00080648093C000983409F4D7C18E
:10E9A0009934B8F4923409F459C1933458F490333B
:10E9B00019F1903308F4E3C59F33A1F1903409F0C5
:10E9C000DEC5BDC0953409F470C1963409F0D7C5D1
:10E9D00098C1923509F42BC2933538F49C3409F46C
:10E9E000F5C1913509F0CBC518C2963509F445C279
:10E9F000993509F0C4C567C483E792EE62E00F94CD
:10EA0000F5F110920602109207021092080210927D
:10EA1000090210920A0210920B0210920C0210923C
:10EA20000D0213C18FE792EE62E00F94F5F18FEEC5
:10EA300090EE60E00F94F5F181E291EE60E00F94CA
:10EA4000C2F187EB91EE60E00F94F5F180E391EE77
:10EA500060E00F94C2F184EE90EE60E00F94F5F167
:10EA60008FE391EE60E00F94C2F186E090E061E008
:10EA700070E00F9434F20F94DCF18DE591EE60E0DC
:10EA80000F94C2F189EC91EE60E00F94F5F18EE401
:10EA900091EE60E00F94C2F183EC91EE60E00F9490
:10EAA000F5F18CE691EE60E00F94C2F18EE10F94E7
:10EAB0000DF288E90F940DF281E00F940DF20F949E
:10EAC000DCF18BE791EE60E00F94C2F119E0E0E039
:10EAD000F0E010935700E4918E2F0F940DF20F94F5
:10EAE000DCF18AE891EE60E00F94C2F1E3E0F0E03F
:10EAF00010935700E4918E2F0F940DF20F94DCF1D8
:10EB000089E991EE60E00F94C2F1E2E0F0E0109349
:10EB10005700E4918E2F0F940DF20F94DCF188EAE8
:10EB200091EE60E00F94C2F1E1E0F0E01093570045
:10EB30001491812F0F940DF20F94DCF107CF8BE825
:10EB400092EE62E00F94F5F18BE492EE60E00F94A8
:10EB5000F5F10F94DCF100E010E019C0C8016F2D51
:10EB60000F947FFEFF2031F489E492EE60E00F9471
:10EB7000C2F10BC0F092C6008091C00086FFFCCFAE
:10EB80008091C00080648093C0000F5F1F4FC80158
:10EB900081519F41A0E0B0E0ABBFFC01F790BAE229
:10EBA000FB1621F0E2E000301E07C1F60F94DCF105
:10EBB0000F94DCF187E592EE60E00F94F5F10F948D
:10EBC000DCF1CC24DD2400E010E01EC0C8010F946D
:10EBD00077FEF82E882331F489E492EE60E00F94FA
:10EBE000C2F10BC08093C6008091C00086FFFCCFAD
:10EBF0008091C00080648093C000FE1419F00894D6
:10EC0000C11CD11C0F5F1F4FC80181519F41A0E063
:10EC1000B0E0ABBFFC01E790FAE2EF1621F022E092
:10EC20000030120799F60F94DCF10F94DCF182E6C4
:10EC300092EE60E00F94C2F1C60161E070E00F94C3
:10EC400034F20F94DCF10F94DCF110920202109276
:10EC50000302109204021092050278CE89E992EE26
:10EC600062E00F94F5F1279A2F9A16C02F9880E052
:10EC700090E0E0EDF7E03197F1F7019684369105E9
:10EC8000C1F72F9A80E090E0E0EDF7E03197F1F7DF
:10EC9000019684369105C1F78091C00087FFE6CFC9
:10ECA0008091C00087FFFCCF64C485EA92EE62E0E9
:10ECB0000F94F5F140910202509103026091040219
:10ECC0007091050281E020E10F9491F2809102029F
:10ECD00090910302A0910402B091050280509F4FD1
:10ECE000AF4FBF4F8093020290930302A0930402A0
:10ECF000B093050280509041A040B04008F426CE69
:10ED0000A4CF83EB92EE62E00F94F5F140910602FE
:10ED100050910702609108027091090280E020E1A1
:10ED20000F9491F28091060290910702A09108023F
:10ED3000B091090280509F4FAF4FBF4F80930602A2
:10ED400090930702A0930802B0930902FFCD80ECD4
:10ED500092EE62E00F94F5F183E792EE60E00F949B
:10ED6000F5F18FE792EE60E00F94F5F18BE892EE0B
:10ED700060E00F94F5F189E992EE60E00F94F5F10F
:10ED800085EA92EE60E00F94F5F183EB92EE60E09D
:10ED90000F94F5F180EC92EE60E00F94F5F187ECC2
:10EDA00092EE60E00F94F5F188ED92EE60E00F9442
:10EDB000F5F18FED92EE60E00F94F5F18AEE92EEB0
:10EDC00060E00F94F5F183E093EEBDCD87EC92EE19
:10EDD00062E00F94F5F181E40F947BF282E40F94EA
:10EDE0007BF283E40F947BF284E40F947BF285E45E
:10EDF0000F947BF286E40F947BF287E40F947BF20E
:10EE000088E40F947BF28AE40F947BF28BE40F94F6
:10EE10007BF28CE40F947BF299CD88ED92EE62E068
:10EE20000F94F5F1772473948824992409C48FED05
:10EE300092EE62E00F94F5F140910A0250910B02BC
:10EE400060910C0270910D0282E020E10F9491F22A
:10EE500080910A0290910B02A0910C02B0910D02D8
:10EE600080509F4FAF4FBF4F80930A0290930B0289
:10EE7000A0930C02B0930D0269CD8AEE92EE62E08F
:10EE80000F94F5F184EE90EE60E00F94F5F18FECC5
:10EE900091EE60E00F94F5F1662477244301CC5D98
:10EEA000DE4F19821882C452D140D401C301B695F5
:10EEB000A79597958795CA5DDE4F88839983AA8326
:10EEC000BB83C652D140CC5DDE4FA881B981C4520C
:10EED000D1401196CC5DDE4FB983A883C452D14096
:10EEE000CD0162E070E00F9434F2B0E2B093C6005E
:10EEF0008091C00086FFFCCF8091C0008064809329
:10EF0000C000EDE2E093C6008091C00086FFFCCF18
:10EF10008091C00080648093C000F0E2F093C6004E
:10EF20008091C00086FFFCCF8091C00080648093F8
:10EF3000C000CA5DDE4FE880F9800A811B81C6529D
:10EF4000D140BB27A12F902F8F2D0F940DF2CA5DBA
:10EF5000DE4F8881C652D1400F940DF2B0E2FB2EF5
:10EF6000F092C6008091C00086FFFCCF8091C00067
:10EF700080648093C0000DE30093C6008091C000C0
:10EF800086FFFCCF8091C00080648093C00010E2B7
:10EF90001093C6008091C00086FFFCCF8091C00016
:10EFA00080648093C0008BBEF3012791C65DDE4F65
:10EFB0002883CA52D140A22EBB24CC24DD2408943D
:10EFC000611C711C811C911C8BBEF3018791282E42
:10EFD0003324442455240894611C711C811C911C09
:10EFE0008BBEF3013791C55DDE4F3883CB52D140E4
:10EFF0000894611C711C811C911C8BBEF30147910C
:10F00000C45DDE4F4883CC52D140ADEFEA2EAFEF66
:10F01000FA2EAFEF0A2FAFEF1A2F6E0C7F1C801E57
:10F02000911E142D032DF22CEE24EA0CFB1C0C1D5A
:10F030001D1D0F940DF220E22093C6008091C000A8
:10F0400086FFFCCF8091C00080648093C000C65DC5
:10F05000DE4F8881CA52D1400F940DF230E23093D6
:10F06000C6008091C00086FFFCCF8091C000806404
:10F070008093C000C45DDE4F8881CC52D1400F9494
:10F080000DF240E24093C6008091C00086FFFCCFA5
:10F090008091C00080648093C000C55DDE4F888190
:10F0A000CB52D1400F940DF250E25093C6008091A4
:10F0B000C00086FFFCCF8091C00080648093C000B8
:10F0C0008FEFE8168FEFF80680E0080780E018075A
:10F0D00031F484E092EE60E00F94C2F1DFC0D80119
:10F0E000C7018070907CA070B0708050904CA040A0
:10F0F000B040D1F52FEF3FE340E050E0E222F322B1
:10F1000004231523CA5DDE4FA880B980CA80DB8046
:10F11000C652D140AE0CBF1CC01ED11EAA0CBB1CD7
:10F12000CC1CDD1C8EE092EE60E00F94C2F1BB2798
:10F13000A12F902F8F2D0F940DF28E2D0F940DF285
:10F1400030E23093C6008091C00086FFFCCF8091F2
:10F15000C00080648093C0004EE34093C60080915D
:10F16000C00086FFFCCF87C08EE09EEFA0E0B0E03D
:10F17000E822F9220A231B239CE0E91694E9F90608
:10F1800090E0090790E0190709F088C0C45DDE4FE0
:10F19000A881CC52D140EA2EFF2400E010E0102FCD
:10F1A0000F2DFE2CEE24C55DDE4FB881CB52D14031
:10F1B000EB0EF11C011D111DD601C501817090706F
:10F1C000A070B070DC0199278827E80EF91E0A1F8D
:10F1D0001B1F20EF30E040E050E0A222B322C42207
:10F1E000D52241E1AA0CBB1CCC1CDD1C4A95D1F7F1
:10F1F000EA0CFB1C0C1D1D1D81E090E0A0E0B0E0BE
:10F20000282239224A225B2235E1220C331C441C7D
:10F21000551C3A95D1F7E20CF31C041D151D57013E
:10F220006801AA0CBB1CCC1CDD1C85E192EE60E0E1
:10F230000F94C2F1C801AA27BB270F940DF2BB2778
:10F24000A12F902F8F2D0F940DF28E2D0F940DF274
:10F2500090E29093C6008091C00086FFFCCF809121
:10F26000C00080648093C000AEE3A093C60080918C
:10F27000C00086FFFCCF8091C00080648093C000F6
:10F28000C601AA27BB270F940DF2BB27AD2D9C2DDD
:10F290008B2D0F940DF28A2D0F940DF20F94DCF14B
:10F2A000CC5DDE4FE881F981C452D140F99709F471
:10F2B0004DCBF4E0EF2EF12C012D112D6E0C7F1CA7
:10F2C000801E911EF2CD83E093EE62E00F94F5F183
:10F2D0008AE192EE60E00F94C2F18091C00087FF56
:10F2E000FCCF1091C6001F751093C6008091C0001E
:10F2F00086FFFCCF8091C00080648093C0000F9493
:10F30000DCF1812F81548A3108F036C1163409F4BA
:10F3100095C0173490F4133409F44EC0143430F40B
:10F320001134F1F0123409F01DC130C0143409F465
:10F3300059C0153409F016C16BC01A3409F4C4C0A1
:10F340001B3438F4173409F48FC0183409F00AC19B
:10F35000A1C01B3409F4D2C01C3409F003C1E8C0B9
:10F360008FEF81B90DC082B1809582B980E090E0C5
:10F37000E0EDF7E03197F1F70196883C9105C1F790
:10F380008091C00087FFEFCF12B8EFC08FEF84B934
:10F390000DC085B1809585B980E090E0E0EDF7E0A3
:10F3A0003197F1F70196883C9105C1F78091C00033
:10F3B00087FFEFCF15B8D9C08FEF87B90DC088B1DF
:10F3C000809588B980E090E0E0EDF7E03197F1F7C3
:10F3D0000196883C9105C1F78091C00087FFEFCF6F
:10F3E00018B8C3C08FEF8AB90DC08BB180958BB9A7
:10F3F00080E090E0E0EDF7E03197F1F70196883C8E
:10F400009105C1F78091C00087FFEFCF1BB8ADC059
:10F410008FEF8DB90DC08EB180958EB980E090E0F0
:10F42000E0EDF7E03197F1F70196883C9105C1F7DF
:10F430008091C00087FFEFCF1EB897C08FEF80BBD1
:10F440000DC081B3809581BB80E090E0E0EDF7E0F6
:10F450003197F1F70196883C9105C1F78091C00082
:10F4600087FFEFCF11BA81C08FEF83BB0DC084B38C
:10F47000809584BB80E090E0E0EDF7E03197F1F714
:10F480000196883C9105C1F78091C00087FFEFCFBE
:10F4900014BA6BC08FEF809301010FC080910201FD
:10F4A00080958093020180E090E0E0EDF7E03197F5
:10F4B000F1F70196883C9105C1F78091C00087FF64
:10F4C000EDCF1092020151C08FEF809304010FC065
:10F4D0008091050180958093050180E090E0E0ED4A
:10F4E000F7E03197F1F70196883C9105C1F78091DB
:10F4F000C00087FFEDCF1092050137C08FEF8093DA
:10F5000007010FC08091080180958093080180E079
:10F5100090E0E0EDF7E03197F1F70196883C910536
:10F52000C1F78091C00087FFEDCF109208011DC088
:10F530008FEF80930A010FC080910B01809580931B
:10F540000B0180E090E0E0EDF7E03197F1F70196F4
:10F55000883C9105C1F78091C00087FFEDCF1092E4
:10F560000B0103C085E292EEEEC98091C00087FFD7
:10F57000FCCF8091C600EAC988E392EEE4C98CE131
:10F5800091EEE1C988249924933011F1943028F444
:10F59000913089F09230B8F408C0953061F195301F
:10F5A000F0F0963009F048C043C02B3109F042C951
:10F5B00091E06BE13FC96227C15DDE4F2883CF52E6
:10F5C000D14092E037C9B22FA0E0622793E032C960
:10F5D000822F90E0A82BB92B622794E02BC92E3004
:10F5E00009F039C3622795E0C05DDE4F19821882A9
:10F5F000C053D1401FC9E1E0F0E0EC0FFD1FC05D3A
:10F60000DE4F08811981C053D140E00FF11F2083E4
:10F610000F5F1F4FC05DDE4F19830883C053D14079
:10F6200062270A171B0709F005C9D80196E002C92D
:10F63000261709F010C303C0973009F0FBC87724E0
:10F640009981933109F412C19431C8F4963009F4C8
:10F65000D8C0973050F4923009F406C1933009F4C1
:10F660006DC0913009F059C253C0913109F477C08F
:10F67000923108F0BBC0903109F04FC2F5C098310B
:10F6800009F487C0993150F4953109F4EFC09531F0
:10F6900008F4C6C1963109F040C2C2C19A3109F4DA
:10F6A0006CC09A3108F491C09B3109F45BC09D3164
:10F6B00009F033C29D81903359F48F81882311F46E
:10F6C0009EE11CC0813011F091E018C098E916C08D
:10F6D000892F807591F0903539F4E0E0F0E089E011
:10F6E0008093570094910AC0983539F4E3E0F0E034
:10F6F00089E080935700949101C090E01A821B82A8
:10F700008D818C831D829E831F8227E030E009C299
:10F710001A8288E08B8381E48C8386E58D8382E581
:10F720008E8389E48F8383E5888780E589878FE5E9
:10F730008A8782E38B872BE030E0F3C18A818139AD
:10F7400041F0823941F0803911F48FE005C080E04A
:10F7500003C082E001C08AE01A828B8344C0772410
:10F76000739482C08D81882311F48EE12CC0813086
:10F7700011F081E028C088E926C01A82E1E0F0E0BB
:10F7800089E08093570084918B831C8224E030E0D1
:10F79000C8C18B81803589F48C81883039F4E2E0EE
:10F7A000F0E089E08093570084910DC0E0E0F0E044
:10F7B00089E080935700849106C0E3E0F0E089E09F
:10F7C0008093570084911A82DFCF8D81836C99E0FA
:10F7D000E1E0F0E0082E90935700E89507B600FCB2
:10F7E000FDCF1A821B8223E030E09BC180EC8A832C
:10F7F000CE5CDE4F188219821A821B82C253D1401E
:10F800008EC18A8190E0A0E0B0E0582F44273327D2
:10F8100022278B8190E0A0E0B0E0DC0199278827C7
:10F82000282B392B4A2B5B2B8D8190E0A0E0B0E098
:10F83000282B392B4A2B5B2B8C8190E0A0E0B0E089
:10F84000BA2FA92F982F8827282B392B4A2B5B2BCF
:10F85000220F331F441F551FC05EDE4F288339839C
:10F860004A835B83C052D1401A8259C13A81C95C34
:10F87000DE4F3883C753D140CA5CDE4F1882C6536F
:10F88000D1408B81C82EDD24CA5CDE4F488159816E
:10F89000C653D140C42AD52A933109F082C0CE5C28
:10F8A000DE4F88819981AA81BB81C253D1408050AB
:10F8B000904CA340B04030F583E0CE5CDE4FE88052
:10F8C000F9800A811B81C253D140F70100935B008C
:10F8D00080935700E89507B600FCFDCFCE5CDE4F65
:10F8E000088119812A813B81C253D14000501F4FAA
:10F8F0002F4F3F4FCE5CDE4F088319832A833B8313
:10F90000C253D140C05EDE4F488159816A817B81FC
:10F91000C052D140DE011B9631E08C9111962C91A2
:10F9200011971296C75CDE4F2883C953D140C85C3B
:10F93000DE4F1882C853D14090E0C85CDE4FE881AA
:10F94000F981C853D1408E2B9F2B0C01FA01609393
:10F950005B0030935700E89511244E5F5F4F6F4F67
:10F960007F4F0EEFE02E0FEFF02ECE0CDF1CC114F8
:10F97000D10499F685E0C05EDE4F088119812A81A5
:10F980003B81C052D140F80120935B008093570027
:10F99000E89507B600FCFDCF81E180935700E8951C
:10F9A00035C0C05EDE4F88819981AA81BB81C0527B
:10F9B000D140B695A795979587957C018601ABE0D8
:10F9C000AA2EB12CAC0EBD1E0BC0D5016D915D01F0
:10F9D000C7010F947FFE0894E11CF11C01501040F8
:10F9E0000115110591F7A60160E070E0440F551F65
:10F9F000661F771FC05EDE4FE880F9800A811B8199
:10FA0000C052D1404E0D5F1D601F711F1A82C05E33
:10FA1000DE4F488359836A837B83C052D1407FC0C5
:10FA2000FA80C55CDE4FF882CB53D140C65CDE4F16
:10FA30001882CA53D1408B81C82EDD24C65CDE4FAC
:10FA400008811981CA53D140C02AD12A1A828981DA
:10FA5000BE016D5F7F4F843121F59601C05EDE4FA0
:10FA6000E880F9800A811B81C052D1400BBFF701A9
:10FA700087919691DB018C9311969C936E5F7F4FDB
:10FA8000D801C7010296A11DB11DC05EDE4F88835B
:10FA90009983AA83BB83C052D14022503040F1F6F3
:10FAA00036C0C05EDE4F288139814A815B81C052F9
:10FAB000D1400894C108D108760100E010E0089414
:10FAC000C11CD11C0894E11CF11C011D111DE20E8A
:10FAD000F31E041F151F21BDBB27A52F942F832FB5
:10FAE00082BD2F5F3F4F4F4F5F4FF89A80B5DB01CC
:10FAF0008D93BD012E153F054007510761F7C05E8C
:10FB0000DE4F288339834A835B83C052D1409601FC
:10FB10002D5F3F4FFB01108204C080EC8A8322E0FE
:10FB200030E08BE18093C6008091C00086FFFCCF5F
:10FB30008091C00080648093C000C15DDE4FF88179
:10FB4000CF52D140F093C6008091C00086FFFCCF19
:10FB50008091C00080648093C000432F3093C60022
:10FB60008091C00086FFFCCF8091C00080648093AC
:10FB7000C000922F2093C6008091C00086FFFCCF6A
:10FB80008091C00080648093C0008EE08093C600A6
:10FB90008091C00086FFFCCF8091C000806480937C
:10FBA000C00065E1C15DDE4FE880CF52D1406E25D7
:10FBB00069276427FE01319610C090819093C6009A
:10FBC0008091C00086FFFCCF31968091C000806498
:10FBD0008093C0006927215030402115310569F715
:10FBE0006093C6008091C00086FFFCCF8091C0006A
:10FBF00080648093C00085B1805885B9772081F4F6
:10FC0000C15DDE4F0881CF52D1400F5FC15DDE4F35
:10FC10000883CF52D14090E0A0E0B0E00D941AF4F8
:10FC200027982F9880E090E020ED37E0F901319798
:10FC3000F1F7019684369105C9F700008091C00064
:10FC40008D7F8093C00081E180935700E895EE2777
:10FC5000FF270994FFCF90E00D941AF497FB092E2B
:10FC600007260AD077FD04D02ED006D000201AF443
:10FC7000709561957F4F0895F6F7909581959F4F08
:10FC80000895A1E21A2EAA1BBB1BFD010DC0AA1FDD
:10FC9000BB1FEE1FFF1FA217B307E407F50720F0F5
:10FCA000A21BB30BE40BF50B661F771F881F991F70
:10FCB0001A9469F760957095809590959B01AC01B9
:10FCC000BD01CF010895AA1BBB1B51E107C0AA1FAC
:10FCD000BB1FA617B70710F0A61BB70B881F991FED
:10FCE0005A95A9F780959095BC01CD010895F99991
:10FCF000FECF92BD81BDF89A992780B50895262F31
:10FD0000F999FECF1FBA92BD81BD20BD0FB6F89400
:0EFD1000FA9AF99A0FBE01960895F894FFCF63
:00000001FF
