:100000000C944A010C947B010C947B010C947B01B1
:100010000C947B010C947B010C947B010C947B0170
:100020000C947B010C947B010C947B010C947B0160
:100030000C947B010C947B010C947B010C947B0150
:100040000C947B010C947B010C947B010C947B0140
:100050000C947B010C947B010C947B010C94D604D2
:100060000C947B010C944A050C9420050C947B01A4
:100070000C947B010C947B010C947B010C947B0110
:100080000C947B010C947B010C947B010C947B0100
:100090000C947B010C947B010C947B010C947B01F0
:1000A0000C947B010C947B010C947B010C947B01E0
:1000B0000C947B010C947B010C947B010C947B01D0
:1000C0000C947B010C947B010C947B010C947B01C0
:1000D0000C947B010C947B010C947B010C947B01B0
:1000E0000C947B010C947F030C9406020C94E701A2
:1000F0000C9402020C9495020C94B8020C94D10159
:100100000C9422020C9467020C94CC020C94F20121
:100110000C9414020C940A020C9480050C9426048E
:100120000C9481020C9410020C9493030C94EB0138
:100130000C94E0020C94C2020C9471020C941E0206
:100140000C94D9030C9453020C9479020C94490238
:100150000C94FC010C94CC010C948B020C94D602F0
:100160000C94AE020C944E020C949F020C94430328
:100170000C94EF010C9470030C94E3010C94F801BF
:100180000C945D020C94A1030C94180200000A0B5D
:1001900002090C0D0E080703040100000000000016
:1001A000000000000000000000000000000000004F
:1001B000000000000000000012111000000000000C
:1001C000000000000000000000000000000000002F
:1001D000000000002200250028002B002E00310026
:1001E000340002010000050108010B01000021009C
:1001F000240027002A002D003000330001010000F8
:10020000040107010A010505050507050808080896
:10021000020202020A0A080804040404010101019E
:100220000101010103030303030303030407070799
:100230000C0C0C0C0C0C0C0C02020202060606063E
:10024000060606060B0B0B0B0B0B0B0B010210200B
:1002500020080810204010204080020102010804FC
:100260000201010204081020408080402010080490
:1002700002018004020180402010080402010804E9
:10028000020101020408102040800102040810202D
:100290004080800511241FBECFEFD1E2DEBFCDBF6D
:1002A00000E00CBF12E0A0E0B2E0EEECF2E100E012
:1002B0000BBF02C007900D92A635B107D9F722E017
:1002C000A6E5B2E001C01D92AC3FB207E1F711E034
:1002D000CAE4D1E000E006C021970109802FFE01A9
:1002E0000E945D09C934D10780E00807A9F70E9480
:1002F000D8050C9465090C94000090E0FC01E45BC7
:10030000FD4F24918A5F9D4FFC018491882399F0D1
:1003100090E0880F991FFC01E451FE4FA591B49124
:10032000FC01EE52FE4F859194918FB7F894EC91B9
:10033000E22BEC938FBF0895282F30E0F901E457AA
:10034000FE4F9491F901E45BFD4F44912A5F3D4FCC
:10035000F9012491222309F435C0992311F1915018
:100360009231F8F4E92FF0E08827E654FE4F8F4FE2
:100370000C945D09EB01EF01CC01E301E701D10130
:10038000F201F801FC01020206020A021002140244
:10039000D10118021E022202809180008F77809383
:1003A0008000E22FF0E0EE0FFF1FEE52FE4FA5910E
:1003B000B4918FB7F894EC91611148C040954E23E9
:1003C0004C938FBF0895809180008F7DE8CF8091FE
:1003D0008000877FE4CF84B58F7784BDE2CF84B57A
:1003E0008F7DFBCF8091B0008F778093B000D9CF05
:1003F0008091B0008F7DF9CF809190008F778093AE
:100400009000CFCF809190008F7DF9CF80919000A8
:10041000877FF5CF8091A0008F778093A000C1CF18
:100420008091A0008F7DF9CF8091A000877FF5CFCC
:10043000809120018F7780932001B3CF809120019C
:100440008F7DF9CF80912001877FF5CF4E2BB8CFDC
:100450009C01E7E9F1E0E491E150E23108F0B0C03D
:10046000F0E08827E95CFD4F8F4F0C945D0949024D
:100470004E0253025D026702E002710279028102BC
:100480008B0295029F02AE02B802E002C202CC02C9
:10049000D60284B5806884BD27BD089584B5806286
:1004A00084BD28BD0895809180008068809380007D
:1004B00030938900209388000895809180008062A5
:1004C0008093800030938B0020938A000895809160
:1004D000800088608093800030938D0020938C0092
:1004E00008958091B00080688093B0002093B3009D
:1004F00008958091B00080628093B0002093B40092
:1005000008958091900080688093900030939900C6
:1005100020939800089580919000806280939000CD
:1005200030939B0020939A000895809190008860FA
:100530008093900030939D0020939C0008958091BB
:10054000A00080688093A0008091A0008F7B8093A2
:10055000A0003093A9002093A80008958091A000E6
:1005600080628093A0003093AB002093AA0008958E
:100570008091A00088608093A0003093AD0020930C
:10058000AC00089580912001806880932001309311
:100590002901209328010895809120018062809391
:1005A000200130932B0120932A010895809120018E
:1005B00088608093200130932D0120932C010895B1
:1005C00060E0203831050CF061E08BE00C949C0178
:1005D0003FB7F89480915B0290915C02A0915D021C
:1005E000B0915E0226B5A89B05C02F3F19F0019679
:1005F000A11DB11D3FBFBA2FA92F982F8827BC017D
:10060000CD01620F711D811D911D42E0660F771FA4
:10061000881F991F4A95D1F708958F929F92AF92A4
:10062000BF92CF92DF92EF92FF920E94E8024B01BD
:100630005C0188EEC82E83E0D82EE12CF12C0E94BC
:10064000E802681979098A099B09683E73408105A7
:100650009105A8F321E0C21AD108E108F10888EE5B
:10066000880E83E0981EA11CB11CC114D104E104C2
:10067000F10429F7FF90EF90DF90CF90BF90AF90FB
:100680009F908F900895AF92BF92CF92DF92EF929A
:10069000FF920F931F93CF93DF936C017B018B012C
:1006A000040F151FEB015E01AE18BF08C017D1077C
:1006B00059F06991D601ED91FC910190F081E02D06
:1006C000C6011995892B79F7C501DF91CF911F914B
:1006D0000F91FF90EF90DF90CF90BF90AF90089573
:1006E000FC01538D448D252F30E0842F90E0821B38
:1006F000930B541710F0CF96089501970895FC01BD
:10070000918D828D981761F0A28DAE0FBF2FB11D14
:100710005D968C91928D9F5F9F73928F90E008956C
:100720008FEF9FEF0895FC01918D828D981731F026
:10073000828DE80FF11D858D90E008958FEF9FEF7A
:100740000895FC01918D228D892F90E0805C9F4F50
:10075000821B91098F73992708958FE592E00E947B
:10076000A10321E0892B09F420E0822F0895FC01E8
:10077000A48DA80FB92FB11DA35ABF4F2C91848D02
:1007800090E001968F739927848FA689B7892C935F
:10079000A089B1898C91837080648C93938D848DB2
:1007A000981306C00288F389E02D80818F7D8083B5
:1007B0000895EF92FF920F931F93CF93DF93EC0175
:1007C00081E0888F9B8D8C8D98131AC0E889F989F8
:1007D000808185FF15C09FB7F894EE89FF896083FB
:1007E000E889F98980818370806480839FBF81E07C
:1007F00090E0DF91CF911F910F91FF90EF900895BE
:10080000F62E0B8D10E00F5F1F4F0F731127E02E98
:100810008C8D8E110CC00FB607FCFACFE889F989D0
:10082000808185FFF5CFCE010E94B703F1CFEB8D1C
:10083000EC0FFD2FF11DE35AFF4FF0829FB7F894A4
:100840000B8FEA89FB8980818062CFCFCF93DF93C2
:10085000EC01888D8823B9F0AA89BB89E889F989D8
:100860008C9185FD03C0808186FD0DC00FB607FC0D
:10087000F7CF8C9185FFF2CF808185FFEDCFCE0140
:100880000E94B703E9CFDF91CF91089580E090E017
:10089000892B29F00E94AD0381110E94000080E0A5
:1008A00090E0892B49F080E090E0892B29F00E94AC
:1008B000000081110E94000080E090E0892B49F047
:1008C00080E090E0892B29F00E94000081110E94B5
:1008D000000080E090E0892B49F080E090E0892BD7
:1008E00029F00E94000081110C9400000895FC0181
:1008F00001900020E9F73197AF01481B590BBC016B
:100900008FE592E00C9443038F929F92AF92BF9237
:100910000F931F93CF93DF93CDB7DEB7A1970FB699
:10092000F894DEBF0FBECDBF19A2423008F44AE0F2
:100930008E010F5D1F4F842E912CB12CA12CA5018F
:1009400094010E943B09E62FB901CA01EA30F4F490
:10095000E05DD801EE938D01232B242B252B79F715
:1009600090E080E0109719F0CD010E947704A196E5
:100970000FB6F894DEBF0FBECDBFDF91CF911F91B0
:100980000F91BF90AF909F908F900895E95CE1CF59
:10099000CF93DF930E947704EC0186E192E00E94FE
:1009A00077048C0F9D1FDF91CF9108951F920F92B6
:1009B0000FB60F9211242F933F938F939F93AF9372
:1009C000BF938091570290915802A0915902B09123
:1009D0005A023091560223E0230F2D3758F5019625
:1009E000A11DB11D20935602809357029093580287
:1009F000A0935902B0935A0280915B0290915C02DD
:100A0000A0915D02B0915E020196A11DB11D80937F
:100A10005B0290935C02A0935D02B0935E02BF9173
:100A2000AF919F918F913F912F910F900FBE0F909B
:100A30001F90189526E8230F0296A11DB11DD2CF55
:100A40001F920F920FB60F9211240BB60F922F9395
:100A50003F934F935F936F937F938F939F93AF9346
:100A6000BF93EF93FF938FE592E00E94B703FF914E
:100A7000EF91BF91AF919F918F917F916F915F9116
:100A80004F913F912F910F900BBE0F900FBE0F9083
:100A90001F9018951F920F920FB60F9211240BB64C
:100AA0000F922F938F939F93EF93FF93E0916F0299
:100AB000F09170028081E0917502F091760282FDE2
:100AC0001DC09081809178028F5F8F732091790291
:100AD000821741F0E0917802F0E0E15AFD4F958FE6
:100AE00080937802FF91EF919F918F912F910F90BA
:100AF0000BBE0F900FBE0F901F9018958081F2CF04
:100B0000109262021092610288EE93E0A0E0B0E0E1
:100B10008093630290936402A0936502B09366028F
:100B200088E092E09093600280935F0285EC90E011
:100B300090936C0280936B0284EC90E090936E0231
:100B400080936D0280EC90E09093700280936F022E
:100B500081EC90E0909372028093710282EC90E0BD
:100B6000909374028093730286EC90E090937602E7
:100B700080937502109278021092790210927A0294
:100B800010927B0280917B00877F80937B0080E4C2
:100B900080937C0080917A00806480937A008091B9
:100BA0007A0086FDFCCF80917800909179000895BD
:100BB000789484B5826084BD84B5816084BD85B538
:100BC000826085BD85B5816085BD80916E00816044
:100BD00080936E00109281008091810082608093EA
:100BE00081008091810081608093810080918000EC
:100BF0008160809380008091B10084608093B10017
:100C00008091B00081608093B000809191008260FB
:100C100080939100809191008160809391008091F8
:100C200090008160809390008091A1008260809309
:100C3000A1008091A10081608093A1008091A0001B
:100C400081608093A00080912101826080932101C6
:100C50008091210181608093210180912001816038
:100C60008093200180917A00846080937A00809143
:100C70007A00826080937A0080917A00816080930C
:100C80007A0080917A00806880937A001092C10087
:100C9000E0916F02F091700282E08083E0916B023C
:100CA000F0916C021082E0916D02F0916E0280E191
:100CB000808310927702E0917302F091740286E0D3
:100CC0008083E0917102F091720280818061808363
:100CD000E0917102F0917202808188608083E091DE
:100CE0007102F0917202808180688083E0917102CC
:100CF000F091720280818F7D80830E940D0389E1D3
:100D000092E00E94C804C0900002D0900102E090DE
:100D10000202F0900302A7019601C701B6010E94EA
:100D20003609882309F44BC087E392E00E947704D8
:100D300086E192E00E94770489E00E947D018BE0C9
:100D40000E947D01812C912C80E4A82E8FE3B82E87
:100D5000C12CD12C90E8E92E9EE3F92E83E492E099
:100D60000E94C80461E089E00E949C018092000218
:100D700090920102A0920202B09203028BE00E94C4
:100D80007D0185EE90E00E9428020E940D038CE414
:100D900092E00E94C804C0920002D0920102E09248
:100DA0000202F09203028BE00E947D0189E190E053
:100DB0000E9428020E940D030E944604CFCF4601E4
:100DC0005701E894B7F82FEF3FEF4FE75FE7C50112
:100DD000B4010E94360981110DC02FEF3FEF4FE79C
:100DE0005FE7C501B4010E94DE0718161CF48BE30F
:100DF00092E09CCF2FEF3FEF4FE75FE4C701B601D2
:100E00000E94C40818161CF48FE392E08FCF2FEFD6
:100E10003FEF4FE75FECC701B6010E94DE0787FD99
:100E2000F3CF20E030E0A901C701B6010E94DE0740
:100E300087FF09C06DE28FE592E00E94D903F7FABF
:100E4000F094F7F8F0942AE037ED43EA5BE3C7014A
:100E5000B6010E9472074B015C010E94E3076B011F
:100E60007C010E9412089B01AC01C501B4010E94E3
:100E700071074B015C014AE0C701B6010E9484047E
:100E80006EE28FE592E00E94D90320E030E040E27C
:100E900051E4C501B4010E94C9084B015C010E94E4
:100EA000E3076B01F12CE12C4AE0C701B6010E9477
:100EB0008404C701B6010E9412089B01AC01C50160
:100EC000B4010E94710720E030E040E251E40E944A
:100ED000C9080E94E30790E080E04AE00E94840491
:100EE00027CF5058BB27AA270E9489070C948A084D
:100EF0000E947C0838F00E94830820F039F49F3F5C
:100F000019F426F40C9479080EF4E095E7FB0C94A0
:100F10007308E92F0E949B0858F3BA1762077307FA
:100F20008407950720F079F4A6F50C94BD080EF41B
:100F3000E0950B2EBA2FA02D0B01B90190010C01E9
:100F4000CA01A0011124FF27591B99F0593F50F401
:100F5000503E68F11A16F040A22F232F342F442759
:100F6000585FF3CF469537952795A795F040539551
:100F7000C9F77EF41F16BA0B620B730B840BBAF021
:100F80009150A1F0FF0FBB1F661F771F881FC2F78C
:100F90000EC0BA0F621F731F841F48F487957795A0
:100FA0006795B795F7959E3F08F0B0CF9395880F5A
:100FB00008F09927EE0F9795879508950E944F089E
:100FC00008F481E008950E94A30888F09F5798F0E4
:100FD000B92F9927B751B0F0E1F0660F771F881F3E
:100FE000991F1AF0BA95C9F714C0B13091F00E9458
:100FF000BD08B1E008950C94BD08672F782F8827AD
:10100000B85F39F0B93FCCF3869577956795B3957E
:10101000D9F73EF490958095709561957F4F8F4FED
:101020009F4F0895E89409C097FB3EF490958095F2
:10103000709561957F4F8F4F9F4F9923A9F0F92F9E
:1010400096E9BB279395F695879577956795B7951C
:10105000F111F8CFFAF4BB0F11F460FF1BC06F5F02
:101060007F4F8F4F9F4F16C0882311F096E911C014
:10107000772321F09EE8872F762F05C0662371F035
:1010800096E8862F70E060E02AF09A95660F771F49
:10109000881FDAF7880F9695879597F90895990F25
:1010A0000008550FAA0BE0E8FEEF16161706E80732
:1010B000F907C0F012161306E407F50798F0621B53
:1010C000730B840B950B39F40A2661F0232B242B28
:1010D000252B21F408950A2609F4A140A6958FEF47
:1010E000811D811D089597F99F6780E870E060E099
:1010F00008959FEF80EC089500240A9416161706B1
:1011000018060906089500240A94121613061406F8
:1011100005060895092E0394000C11F4882352F05B
:10112000BB0F40F4BF2B11F460FF04C06F5F7F4F13
:101130008F4F9F4F089557FD9058440F551F59F0FA
:101140005F3F71F04795880F97FB991F61F09F3FB4
:1011500079F087950895121613061406551FF2CFDD
:101160004695F1DF08C0161617061806991FF1CF2D
:1011700086957105610508940895E894BB27662754
:101180007727CB0197F908950E944F0808F48FEF55
:1011900008950E94DC080C948A080E947C0838F0AC
:1011A0000E94830820F0952311F00C9473080C948E
:1011B000790811240C94BE080E949B0870F3959F37
:1011C000C1F3950F50E0551F629FF001729FBB273E
:1011D000F00DB11D639FAA27F00DB11DAA1F649FDA
:1011E0006627B00DA11D661F829F2227B00DA11D8D
:1011F000621F739FB00DA11D621F839FA00D611D13
:10120000221F749F3327A00D611D231F849F600D33
:10121000211D822F762F6A2F11249F5750409AF05C
:10122000F1F088234AF0EE0FFF1FBB1F661F771FE8
:10123000881F91505040A9F79E3F510580F00C94B3
:1012400073080C94BE085F3FE4F3983ED4F3869590
:1012500077956795B795F795E7959F5FC1F7FE2B53
:10126000880F911D9695879597F908950E944F08CC
:10127000880B990B0895A1E21A2EAA1BBB1BFD0136
:101280000DC0AA1FBB1FEE1FFF1FA217B307E40765
:10129000F50720F0A21BB30BE40BF50B661F771FBD
:1012A000881F991F1A9469F760957095809590959D
:1012B0009B01AC01BD01CF010895EE0FFF1F881FF8
:0E12C0008BBF0790F691E02D1994F894FFCFA4
:1012CE000000003F00000000D90343037003260412
:1012DE00A1037F0393030D0A002D2D2D205374615E
:1012EE007274696E672047616E7472792043726101
:1012FE006E65202D2D2D006E616E00696E66006F7D
:10130E007666005374617274696E670046696E6921
:06131E0073686564000025
:00000001FF
