:100000000C9468010C9499010C9499010C94990139
:100010000C9499010C9499010C9499010C949901F8
:100020000C9499010C9499010C9499010C949901E8
:100030000C9499010C9499010C9499010C949901D8
:100040000C9499010C9499010C9499010C949901C8
:100050000C9499010C9499010C9499010C940A0642
:100060000C9499010C94DE060C94B4060C9499013E
:100070000C9499010C9499010C9499010C94990198
:100080000C9499010C9499010C9499010C94990188
:100090000C9499010C9499010C9499010C94990178
:1000A0000C9499010C9499010C9499010C94990168
:1000B0000C9499010C9499010C9499010C94990158
:1000C0000C9499010C9499010C9499010C94990148
:1000D0000C9499010C9499010C947E060C9454068E
:1000E0000C9499010C9485050C943E020C941E040A
:1000F0000C9436020C942C020C942D030C944305A2
:100100000C945B050C9415020C946D050C94DE05A3
:100110000C9431050C94BA050C9491050C94D205FD
:100120000C9464050C9414070C94F1020C94F201E5
:100130000C9437050C941E030C9418020C943A028C
:100140000C9428020C944F050C9481030C944402E7
:100150000C940D020C94F7010C94AE050C947905E7
:100160000C9422020C9448020C948F030C94090204
:100170000C94D1030C94A2050C941E020C94110251
:100180000C942B050C94C6050C9430024E414E493C
:100190004E495459494E46CDCCCC3D0AD7233C1745
:1001A000B7D13877CC2B329595E6241FB14F0A0092
:1001B0000020410000C84200401C4620BCBE4CCA82
:1001C0001B0E5AAEC59D7400002100240027002A92
:1001D000002D003000330001010000040107010A76
:1001E0000100002200250028002B002E00310034E1
:1001F0000002010000050108010B010505050507C6
:100200000508080808020202020A0A080804040491
:1002100004010101010101010103030303030303BD
:1002200003040707070C0C0C0C0C0C0C0C0202024C
:100230000206060606060606060B0B0B0B0B0B0B3F
:100240000B010210202008081020401020408002DE
:10025000010201080402010102040810204080800C
:100260004020100804020180040201804020100890
:100270000402010804020101020408102040800168
:100280000204081020408000000A0B02090C0D0E29
:100290000807030401000000000000000000000047
:1002A000000000000000000000000000000000004E
:1002B000000000121110000000000000000000000B
:1002C0000000000000000000000000000000140713
:1002D00011241FBECFEFD1E2DEBFCDBF00E00CBFC7
:1002E00012E0A0E0B2E0E2E2F0E200E00BBF02C008
:1002F00007900D92AE3DB107D9F724E0AEEDB2E024
:1003000001C01D92AB32B207E1F711E0C8E6D1E0BF
:1003100000E006C021970109802FFE010E94F10D27
:10032000C736D10780E00807A9F70E9472070C942E
:100330000F100C940000FC01A089B18982E08C931D
:10034000A485B5851C92A685B7858FEC8C93108EFD
:10035000A489B58986E08C93A289B3898C91806148
:100360008C93A289B3898C9188608C93A289B3897C
:100370008C9180688C930288F389E02D80818F7D39
:1003800080830895282F30E0F901E957FD4F9491BB
:10039000F901EF5BFD4F449125503E4FF901249147
:1003A000222309F435C0992311F191509231F8F4C8
:1003B000E92FF0E08827E052FE4F8F4F0C94F10DAB
:1003C00011021502F20109020D02F70118021E02C4
:1003D000220228022C02300236023A02F7013E02C3
:1003E00044024802809180008F7780938000E22F42
:1003F000F0E0EE0FFF1FEF51FE4FA591B4918FB7C4
:10040000F894EC91611148C040954E234C938FBFF6
:100410000895809180008F7DE8CF80918000877F54
:10042000E4CF84B58F7784BDE2CF84B58F7DFBCFD9
:100430008091B0008F778093B000D9CF8091B000C9
:100440008F7DF9CF809190008F7780939000CFCFF0
:10045000809190008F7DF9CF80919000877FF5CFBC
:100460008091A0008F778093A000C1CF8091A000E1
:100470008F7DF9CF8091A000877FF5CF80912001FB
:100480008F7780932001B3CF809120018F7DF9CFAA
:1004900080912001877FF5CF4E2BB8CFCF93DF938C
:1004A00090E0FC01EF5BFD4F249185509E4FFC01D5
:1004B00084918823D1F090E0880F991FFC01E953C3
:1004C000FE4FA591B491FC01EF51FE4FC591D4911F
:1004D00061110EC09FB7F8948C91E22FE0958E23A6
:1004E0008C932881E223E8839FBFDF91CF91089509
:1004F0008FB7F894EC91E22BEC938FBFF6CF9091ED
:100500007B00977F90937B008653806480937C0070
:1005100080917A00806480937A0080917A0086FDD1
:10052000FCCF809178009091790008953FB7F894BE
:100530008091E3029091E402A091E502B091E6027D
:1005400026B5A89B05C02F3F19F00196A11DB11D2E
:100550003FBFBA2FA92F982F8827BC01CD01620F6A
:10056000711D811D911D42E0660F771F881F991F25
:100570004A95D1F708958F929F92AF92BF92CF92F2
:10058000DF92EF92FF920E9496024B015C0188EE8F
:10059000C82E83E0D82EE12CF12C0E949602681917
:1005A00079098A099B09683E734081059105A8F382
:1005B00021E0C21AD108E108F10888EE880E83E034
:1005C000981EA11CB11CC114D104E104F10429F747
:1005D000FF90EF90DF90CF90BF90AF909F908F9063
:1005E0000895AF92BF92CF92DF92EF92FF920F9356
:1005F0001F93CF93DF936C017B018B01040F151FB9
:10060000EB015E01AE18BF08C017D10759F0699120
:10061000D601ED91FC910190F081E02DC601199574
:10062000892B79F7C501DF91CF911F910F91FF9031
:10063000EF90DF90CF90BF90AF900895FC01538D65
:10064000448D252F30E0842F90E0821B930B5417AC
:1006500010F0CF96089501970895FC01918D828D39
:10066000981761F0A28DAE0FBF2FB11D5D968C91D2
:10067000928D9F5F9F73928F90E008958FEF9FEF11
:1006800008952FB7F8948091210490912204A091AD
:100690002304B09124042FBF8093EF029093F002C3
:1006A000A093F102B093F20287EE92E00E942D0334
:1006B00097FF26C02FB7F8948091210490912204CF
:1006C000A0912304B09124042FBF4091EF025091D8
:1006D000F0026091F1027091F202841B950BA60B5F
:1006E000B70B4091EB025091EC026091ED027091DA
:1006F000EE0284179507A607B707B0F28FEF9FEFBA
:100700000895FC01918D828D981731F0828DE80F4C
:10071000F11D858D90E008958FEF9FEF0895FC0106
:10072000918D228D892F90E0805C9F4F821B9109D3
:100730008F739927089587EE92E00E948F0321E03E
:10074000892B09F420E0822F089584E893E00E9429
:100750008F0321E0892B09F420E0822F0895FC010A
:10076000A48DA80FB92FB11DA35ABF4F2C91848D12
:1007700090E001968F739927848FA689B7892C936F
:10078000A089B1898C91837080648C93938D848DC2
:10079000981306C00288F389E02D80818F7D8083C5
:1007A0000895EF92FF920F931F93CF93DF93EC0185
:1007B00081E0888F9B8D8C8D98131AC0E889F98908
:1007C000808185FF15C09FB7F894EE89FF8960830B
:1007D000E889F98980818370806480839FBF81E08C
:1007E00090E0DF91CF911F910F91FF90EF900895CE
:1007F000F62E0B8D10E00F5F1F4F0F731127E02EA9
:100800008C8D8E110CC00FB607FCFACFE889F989E0
:10081000808185FFF5CFCE010E94AF03F1CFEB8D34
:10082000EC0FFD2FF11DE35AFF4FF0829FB7F894B4
:100830000B8FEA89FB8980818062CFCFCF93DF93D2
:10084000EC01888D8823B9F0AA89BB89E889F989E8
:100850008C9185FD03C0808186FD0DC00FB607FC1D
:10086000F7CF8C9185FFF2CF808185FFEDCFCE0150
:100870000E94AF03E9CFDF91CF91089580E090E02F
:10088000892B29F00E94A50381110E94000080E0BD
:1008900090E0892B49F080E090E0892B29F00E94BC
:1008A000000081110E94000080E090E0892B49F057
:1008B00080E090E0892B29F00E94000081110E94C5
:1008C000000080E090E0892B29F00E949B038111B9
:1008D0000C9400000895FC0101900020E9F7319785
:1008E000AF01481B590BBC0184E893E00C94F10262
:1008F0008F929F92AF92BF920F931F93CF93DF93EC
:10090000CDB7DEB7A1970FB6F894DEBF0FBECDBF4F
:1009100019A2423008F44AE08E010F5D1F4F842E69
:10092000912CB12CA12CA50194010E94A80CE62FBA
:10093000B901CA01EA30F4F4E05DD801EE938D010B
:10094000232B242B252B79F790E080E0109719F0CA
:10095000CD010E946B04A1960FB6F894DEBF0FBEC6
:10096000CDBFDF91CF911F910F91BF90AF909F901E
:100970008F900895E95CE1CFCF93DF930E946B04E1
:10098000EC0188E192E00E946B048C0F9D1FDF91C7
:10099000CF910895CF92DF92EF92FF92CF93DF93A2
:1009A00097FF1BC06B017C016DE284E893E00E941D
:1009B000D103EC0166277727CB016C197D098E09DD
:1009C0009F094AE00E9478048C0F9D1FDF91CF9110
:1009D000FF90EF90DF90CF9008954AE0DF91CF91A4
:1009E000FF90EF90DF90CF900C947804CF93DF933B
:1009F000BC01990F880B990B0E94CA04EC0188E195
:100A000092E00E946B048C0F9D1FDF91CF9108959F
:100A1000982FE82FF0E0E957FD4FE491E150E231E3
:100A200008F0CCC0F0E08827E75EFA4F8F4F0C94B7
:100A3000F10D2B053105370543054F05DE055B0537
:100A400064056D05790585059105A205AE05DE05F0
:100A5000BA05C605D20584B5806884BD8FE787BD19
:100A6000089584B5806284BD8FE788BD0895809124
:100A700080008068809380008FE790E090938900E9
:100A80008093880008958091800080628093800028
:100A90008FE790E090938B0080938A000895809177
:100AA00080008860809380008FE790E090938D00B5
:100AB00080938C0008958091B00080688093B0008E
:100AC0008FE78093B30008958091B0008062809397
:100AD000B0008FE78093B400089580919000806803
:100AE000809390008FE790E0909399008093980016
:100AF0000895809190008062809390008FE790E04D
:100B000090939B0080939A00089580919000886054
:100B1000809390008FE790E090939D0080939C00DD
:100B200008958091A00080688093A0008091A0002B
:100B30008F7B8093A0008FE790E09093A900809333
:100B4000A80008958091A00080628093A0008FE7A4
:100B500090E09093AB008093AA0008958091A0004C
:100B600088608093A0008FE790E09093AD00809321
:100B7000AC000895809120018068809320018FE768
:100B800090E090932901809328010895809120019D
:100B90008062809320018FE790E090932B018093F7
:100BA0002A010895809120018860809320018FE7B9
:100BB00090E090932D0180932C01089560E0892F9F
:100BC0000C94C2010F931F93CF93DF93EC018881A4
:100BD0009981009759F02A813B812617370730F019
:100BE00081E0DF91CF911F910F9108958B016F5F8D
:100BF0007F4F0E941E0F009759F0998388831B83B3
:100C00000A832C813D81232B59F7FC011082E8CF08
:100C100080E0E7CF1F920F920FB60F9211242F930F
:100C20003F938F939F93AF93BF93809121049091B3
:100C30002204A0912304B09124043091E20223E025
:100C4000230F2D3758F50196A11DB11D2093E20207
:100C50008093210490932204A0932304B09324044E
:100C60008091E3029091E402A091E502B091E60246
:100C70000196A11DB11D8093E3029093E402A0931D
:100C8000E502B093E602BF91AF919F918F913F91A2
:100C90002F910F900FBE0F901F90189526E8230FED
:100CA0000296A11DB11DD2CF1F920F920FB60F92C7
:100CB00011240BB60F922F933F934F935F936F9333
:100CC0007F938F939F93AF93BF93EF93FF9387EEA1
:100CD00092E00E94AF03FF91EF91BF91AF919F917E
:100CE0008F917F916F915F914F913F912F910F90D5
:100CF0000BBE0F900FBE0F901F9018951F920F9272
:100D00000FB60F9211240BB60F922F938F939F93D0
:100D1000EF93FF93E091F702F091F8028081E09168
:100D2000FD02F091FE0282FD1DC0908180910003C2
:100D30008F5F8F7320910103821741F0E0910003D0
:100D4000F0E0E951FD4F958F80930003FF91EF9103
:100D50009F918F912F910F900BBE0F900FBE0F9010
:100D60001F9018958081F2CF1F920F920FB60F92AD
:100D700011240BB60F922F933F934F935F936F9372
:100D80007F938F939F93AF93BF93EF93FF9384E8E9
:100D900093E00E94AF03FF91EF91BF91AF919F91BC
:100DA0008F917F916F915F914F913F912F910F9014
:100DB0000BBE0F900FBE0F901F9018951F920F92B1
:100DC0000FB60F9211240BB60F922F938F939F9310
:100DD000EF93FF93E0919403F09195038081E0916C
:100DE0009A03F0919B0382FD1DC0908180919D0329
:100DF0008F5F8F7320919E03821741F0E0919D03D6
:100E0000F0E0EC57FC4F958F80939D03FF91EF919D
:100E10009F918F912F910F900BBE0F900FBE0F904F
:100E20001F9018958081F2CFE7EEF2E013821282D4
:100E300048EE53E060E070E0448355836683778337
:100E40008AE092E09183808325E331E0358724872F
:100E500024E331E03787268720E331E0318B208B94
:100E600021E331E0338B228B22E331E0358B248B7D
:100E700026E331E0378B268B118E128E138E148E63
:100E8000E4E8F3E013821282448355836683778318
:100E90009183808385EC90E09587848784EC90E053
:100EA0009787868780EC90E0918B808B81EC90E037
:100EB000938B828B82EC90E0958B848B86EC90E018
:100EC000978B868B118E128E138E148E8FB7F8949B
:100ED00040912104509122046091230470912404D4
:100EE0008FBF0895CF93DF9300D000D01F921F9241
:100EF000CDB7DEB7789484B5826084BD84B5816057
:100F000084BD85B5826085BD85B5816085BD8091D4
:100F10006E00816080936E0010928100809181004C
:100F20008260809381008091810081608093810044
:100F3000809180008160809380008091B100846006
:100F40008093B1008091B00081608093B000809167
:100F500091008260809391008091910081608093E4
:100F60009100809190008160809390008091A10019
:100F700082608093A1008091A10081608093A10094
:100F80008091A00081608093A00080912101826007
:100F900080932101809121018160809321018091C2
:100FA000200181608093200180917A008460809389
:100FB0007A0080917A00826080937A0080917A0032
:100FC000816080937A0080917A00806880937A00B3
:100FD0001092C10084E893E00E949B0187EE92E0AA
:100FE0000E949B010E94BB028BE192E00E94BC0424
:100FF00061E088E00E944E0261E08AE00E944E02B9
:1010000060E086E30E944E0261E089E00E944E02A9
:1010100061E08BE00E944E0260E087E30E944E0296
:1010200061E08AE00E944E028AE00E94080561E0C9
:101030008BE00E944E028BE00E94080589E392E05B
:101040000E94BC04D12CC12C812C912C540184E62B
:10105000C816D10409F46FC087EE92E00E948F0396
:10106000892BA9F387EE92E00E942D030A9779F766
:101070001A8219821C821B821E821D8270E060E02F
:10108000CE0101960E94E20529813A8181112FC08B
:101090002115310519F0C9010E94950E1A82198295
:1010A0001E821D821C821B820E94410397FD27C065
:1010B0008A30910521F18F831886ED80FE808FEFB5
:1010C000E81AF80AB701CE0101960E94E2058823CA
:1010D00059F329813A818D819E81BE01695F7F4FDD
:1010E000820F931F0E940810FE82ED82DDCF1E82C8
:1010F0001D826AE172E0C9010E940810D5CF898182
:101100009A8120E030E0A901009721F00E94D409E3
:101110009B01AC01C501B4010E94DA0C4B015C01DA
:101120008FEFC81AD80A89819A81009709F48FCF66
:101130000E94950E8CCF20E030E048EC52E4C501CF
:10114000B4010E94460D6093DE027093DF0280932B
:10115000E0029093E10282E592E00E946B04C0906D
:10116000DE02D090DF02E090E002F090E102A70101
:101170009601C701B6010E94EC0D882309F482C0D4
:1011800081E692E00E946B0488E192E00E946B0489
:101190002FB7F8948091210490912204A091230408
:1011A000B09124042FBF0E94F60483E3882E83E0CD
:1011B000982EA12CB12C9CE6C92E93E0D92EE12CBF
:1011C000F12C60E088E00E94C20160E089E00E94AA
:1011D000C2018DE692E00E94BC0481E892E00E9488
:1011E0006B0486E30E947F020E94F6048CE992E081
:1011F0000E946B0487E30E947F020E94F60487EB43
:1012000092E00E946B0486E30E947F029C01990F8A
:10121000440B550B2458310941095109A0E9B1E0AB
:101220000E949D0CA50194010E947E0CCA01B90187
:101230000E94CA0488E192E00E946B048AEC92E06A
:101240000E946B0487E30E947F029C01990F440B6C
:10125000550B2D53310941095109A5E8B0E00E9411
:101260009D0CA70196010E947E0CCA01B9010E9443
:10127000CA0488E192E00E946B040E94BB020E94B3
:101280003E049FCF46015701E894B7F82FEF3FEF98
:101290004FE75FE7C501B4010E94EC0D81110DC05D
:1012A0002FEF3FEF4FE75FE7C501B4010E94570BF7
:1012B00018161CF485E692E065CF2FEF3FEF4FE75D
:1012C0005FE4C701B6010E94E70D18161CF489E619
:1012D00092E058CF2FEF3FEF4FE75FECC701B60129
:1012E0000E94570B87FDF3CF20E030E0A901C70132
:1012F000B6010E94570B87FF09C06DE284E893E0B6
:101300000E94D103F7FAF094F7F8F0942AE037ED51
:1013100043EA5BE3C701B6010E94DA0C4B015C01B2
:101320000E94B80D6B017C010E945C0B9B01AC011B
:10133000C501B4010E94D90C4B015C014AE0C70110
:10134000B6010E9478046EE284E893E00E94D10323
:1013500020E030E040E251E4C501B4010E94BD0B41
:101360004B015C010E94B80D6B01F12CE12C4AE0AD
:10137000C701B6010E947804C701B6010E945C0B48
:101380009B01AC01C501B4010E94D90C20E030E002
:1013900040E251E40E94BD0B0E94B80D90E080E055
:1013A0004AE00E947804F0CE662777270C94D8098B
:1013B0008F929F92AF92BF92CF92DF92EF92FF9265
:1013C0000F931F93CF93DF935C017B016115710530
:1013D00019F0DB018D939C9385010F5F1F4FF50181
:1013E000D0818D2F90E00E94360B6C01892BB9F5CE
:1013F000DD32B9F50F5F1F4FD5011196DC91C1E0C9
:101400005801F1E0AF1AB10843E050E064E971E03F
:10141000C5010E943F0B892B69F5680182E0C80E67
:10142000D11C45E050E06FE871E0C6010E943F0B1F
:10143000892B21F4680197E0C90ED11CE114F10455
:1014400019F0D701CD92DC9260E070E080E89FEF68
:10145000C111FFC060E070E080E89FE7FAC058016A
:10146000BBCFDB3229F485010E5F1F4FF501D1811F
:10147000C0E0C6CF43E050E06CE871E0C5010E94D7
:101480003F0B892BE9F0F80110E000E020E030E0AC
:10149000A9015F01B0ED8B2E8D0E89E08815C8F192
:1014A0009C2E689491F88C2F8870C2FF16C0811111
:1014B00002C00F5F1F4F3196D501DC91C92DE9CFD6
:1014C000E114F10429F00E5F1F4FF701118300832F
:1014D00060E070E080EC9FE7BCC0882311F0015011
:1014E0001109A5E0B0E00E949D0C9B01AC01220F08
:1014F000331F441F551F280D311D411D511D283913
:1015000099E93907490799E15907A8F2C6609C2E65
:10151000D2CFAEEF8A1206C0C3FD3CC09C2E6894A9
:1015200093F8C9CFDF7DD534A9F580818D3239F4A8
:10153000C061DF011296818162E070E006C0DF01C8
:101540008B32C1F3119661E070E080535D01A61A01
:10155000B70A8A30F8F4E0E8CE16ECE0DE065CF478
:10156000B601660F771F660F771FC60ED71ECC0C0D
:10157000DD1CC80ED11C5D01FFEFAF1ABF0A8C91B4
:1015800080538A30A8F1C4FF03C0D194C194D1081C
:101590000C0D1D1DC1FF09C0E114F10431F081E003
:1015A000A81AB108D701AD92BC92CA01B9010E9434
:1015B0005C0BC370C33009F490584B015C0120E010
:1015C00030E0A9010E94570B882309F440C0C3EC06
:1015D000D1E017FF05C0119501951109CBEAD1E0C3
:1015E0006E01B8E1CB1AD10880E2E82EF12C0FC0D1
:1015F000D501B1CFFE0125913591459154910E1938
:101600001F09C501B4010E94BD0B4B015C01D5014E
:10161000C4010E151F0574F72497F594E794CC16B2
:10162000DD06A9F78A2F880F8B2F881F8F3F49F07F
:1016300020E030E0A901C501B4010E94570B8111DF
:1016400006C082E290E09093260480932504C501B1
:10165000B401DF91CF911F910F91FF90EF90DF9038
:10166000CF90BF90AF909F908F90089591110C9460
:101670002A0C803219F089508550C8F70895FB0173
:10168000DC014150504088F08D9181341CF08B3545
:101690000CF4805E659161341CF06B350CF4605E77
:1016A000861B611171F3990B0895881BFCCF0E9472
:1016B000990B08F481E00895E89409C097FB3EF483
:1016C00090958095709561957F4F8F4F9F4F99238F
:1016D000A9F0F92F96E9BB279395F695879577950D
:1016E0006795B795F111F8CFFAF4BB0F11F460FFCD
:1016F0001BC06F5F7F4F8F4F9F4F16C0882311F025
:1017000096E911C0772321F09EE8872F762F05C038
:10171000662371F096E8862F70E060E02AF09A95D3
:10172000660F771F881FDAF7880F9695879597F9C8
:101730000895990F0008550FAA0BE0E8FEEF161662
:101740001706E807F907C0F012161306E407F507B5
:1017500098F0621B730B840B950B39F40A2661F029
:10176000232B242B252B21F408950A2609F4A140CC
:10177000A6958FEF811D811D08950E94D00B0C94BA
:10178000440C0E94360C38F00E943D0C20F095234A
:1017900011F00C942D0C0C94330C11240C94780C37
:1017A0000E94550C70F3959FC1F3950F50E0551FA3
:1017B000629FF001729FBB27F00DB11D639FAA27A6
:1017C000F00DB11DAA1F649F6627B00DA11D661FF5
:1017D000829F2227B00DA11D621F739FB00DA11D16
:1017E000621F839FA00D611D221F749F3327A00DD0
:1017F000611D231F849F600D211D822F762F6A2F6C
:1018000011249F5750409AF0F1F088234AF0EE0FD0
:10181000FF1FBB1F661F771F881F91505040A9F7FD
:101820009E3F510580F00C942D0C0C94780C5F3F7A
:10183000E4F3983ED4F3869577956795B795F79539
:10184000E7959F5FC1F7FE2B880F911D96958795B1
:1018500097F9089599278827089597F99F6780E851
:1018600070E060E008959FEF80EC089500240A94F2
:101870001616170618060906089500240A9412166B
:101880001306140605060895092E0394000C11F49E
:10189000882352F0BB0F40F4BF2B11F460FF04C04B
:1018A0006F5F7F4F8F4F9F4F089557FD9058440FA4
:1018B000551F59F05F3F71F04795880F97FB991FAF
:1018C00061F09F3F79F0879508951216130614066C
:1018D000551FF2CF4695F1DF08C0161617061806F9
:1018E000991FF1CF86957105610508940895E894D4
:1018F000BB2766277727CB0197F90895052E97FB1D
:101900001EF400940E94950C57FD07D00E94A80C6D
:1019100007FC03D04EF40C94950C509540953095EF
:1019200021953F4F4F4F5F4F08959095809570954B
:1019300061957F4F8F4F9F4F08950E94CA0CA59FBE
:10194000900DB49F900DA49F800D911D11240895BA
:10195000A1E21A2EAA1BBB1BFD010DC0AA1FBB1FB3
:10196000EE1FFF1FA217B307E407F50720F0A21B25
:10197000B30BE40BF50B661F771F881F991F1A9492
:1019800069F760957095809590959B01AC01BD01BC
:10199000CF010895A29FB001B39FC001A39F700D16
:1019A000811D1124911DB29F700D811D1124911D67
:1019B00008955058BB27AA270E94F10C0C94440CA0
:1019C0000E94360C38F00E943D0C20F039F49F3F05
:1019D00019F426F40C94330C0EF4E095E7FB0C9408
:1019E0002D0CE92F0E94550C58F3BA1762077307A4
:1019F0008407950720F079F4A6F50C94770C0EF483
:101A0000E0950B2EBA2FA02D0B01B90190010C010E
:101A1000CA01A0011124FF27591B99F0593F50F426
:101A2000503E68F11A16F040A22F232F342F44277E
:101A3000585FF3CF469537952795A795F040539576
:101A4000C9F77EF41F16BA0B620B730B840BBAF046
:101A50009150A1F0FF0FBB1F661F771F881FC2F7B1
:101A60000EC0BA0F621F731F841F48F487957795C5
:101A70006795B795F7959E3F08F0B0CF9395880F7F
:101A800008F09927EE0F9795879508950E945A0DB3
:101A90000C94440C0E943D0C58F00E94360C40F00F
:101AA00029F45F3F29F00C942D0C51110C94780C03
:101AB0000C94330C0E94550C68F39923B1F3552311
:101AC00091F3951B550BBB27AA2762177307840751
:101AD00038F09F5F5F4F220F331F441FAA1FA9F3E7
:101AE00035D00E2E3AF0E0E832D091505040E695D5
:101AF000001CCAF72BD0FE2F29D0660F771F881F36
:101B0000BB1F261737074807AB07B0E809F0BB0B28
:101B1000802DBF01FF2793585F4F3AF09E3F51053C
:101B200078F00C942D0C0C94780C5F3FE4F3983E05
:101B3000D4F3869577956795B795F7959F5FC9F725
:101B4000880F911D9695879597F90895E1E0660FA6
:101B5000771F881FBB1F621773078407BA0720F01F
:101B6000621B730B840BBA0BEE1F88F7E095089588
:101B70000E945D0C88F09F5798F0B92F9927B751B4
:101B8000B0F0E1F0660F771F881F991F1AF0BA9521
:101B9000C9F714C0B13091F00E94770CB1E00895FC
:101BA0000C94770C672F782F8827B85F39F0B93FEE
:101BB000CCF3869577956795B395D9F73EF49095D4
:101BC0008095709561957F4F8F4F9F4F08950E942C
:101BD000990B08F48FEF08950E94990B880B990BCD
:101BE0000895EE0FFF1F881F8BBF0790F691E02D21
:101BF00019940F931F93CF93DF938230910510F4C4
:101C000082E090E0E0912904F0912A0430E020E0A5
:101C1000B0E0A0E0309799F42115310509F44AC0ED
:101C2000281B390B24303105D8F58A819B81611539
:101C3000710589F1FB0193838283FE0111C040810C
:101C400051810281138148175907E0F0481759075D
:101C500099F4109761F012960C93129713961C93B7
:101C60003296CF01DF91CF911F910F91089500938C
:101C7000290410932A04F4CF2115310551F042179D
:101C8000530738F0A901DB019A01BD01DF01F8011A
:101C9000C1CFEF01F9CF90932A0480932904CDCFCF
:101CA000FE01E20FF31F8193919322503109398392
:101CB0002883D7CF2091270430912804232B41F487
:101CC00020910202309103023093280420932704CC
:101CD00020910002309101022115310541F42DB708
:101CE0003EB74091040250910502241B350BE09150
:101CF0002704F0912804E217F307A0F42E1B3F0BF2
:101D00002817390778F0AC014E5F5F4F241735076D
:101D100048F04E0F5F1F509328044093270481938F
:101D200091939FCFF0E0E0E09CCFCF93DF930097BB
:101D3000E9F0FC01329713821282A0912904B0913C
:101D40002A04ED0130E020E01097A1F420813181D8
:101D5000820F931F209127043091280428173907F8
:101D600009F061C0F0932804E0932704DF91CF913C
:101D70000895EA01CE17DF07E8F54A815B819E01ED
:101D800041155105B1F7E901FB83EA834991599166
:101D9000C40FD51FEC17FD0761F480819181029675
:101DA000840F951FE90199838883828193819B83A6
:101DB0008A83F0E0E0E012968D919C911397009752
:101DC000B9F52D913C911197CD010296820F931F89
:101DD00020912704309128042817390739F63097C5
:101DE00051F510922A0410922904B0932804A0936C
:101DF0002704BCCFD383C28340815181840F951FB8
:101E0000C817D90761F44E5F5F4F88819981480FE9
:101E1000591F518340838A819B819383828321153B
:101E2000310509F0B0CFF0932A04E09329049ECF46
:101E3000FD01DC01C0CF13821282D7CF4F925F9297
:101E40006F927F928F929F92AF92BF92CF92DF92CA
:101E5000EF92FF920F931F93CF93DF938C01009724
:101E600099F4CB01DF91CF911F910F91FF90EF90EB
:101E7000DF90CF90BF90AF909F908F907F906F90AA
:101E80005F904F900C94F90DFC01E60FF71F9C0139
:101E900022503109E217F30708F4AEC0D901CD9101
:101EA000DC911197C617D70720F1C530D10578F01E
:101EB000CE0104978617970750F0C61BD70B2297C1
:101EC000C193D1936D937C93CF010E94950EC8016D
:101ED000DF91CF911F910F91FF90EF90DF90CF9006
:101EE000BF90AF909F908F907F906F905F904F903A
:101EF00008955B01AC1ABD0A4C018C0E9D1EA09189
:101F00002904B0912A04512C412CF12CE12C10977A
:101F100031F580912704909128048815990509F0DE
:101F20005CC04616570608F058C080910002909198
:101F30000102009741F48DB79EB740910402509181
:101F40000502841B950BE817F90708F055C0F093BC
:101F50002804E0932704F90171836083B8CF8D9141
:101F60009C91119712966C90129713967C901397F0
:101F7000A815B90559F56C0142E0C40ED11CCA146C
:101F8000DB0420F1AC014A195B09DA0112961597BE
:101F900080F06282738251834083D9016D937C9378
:101FA000E114F10471F0D7011396FC93EE931297AC
:101FB0008ECF22968C0F9D1FF90191838083F301B0
:101FC000EFCFF0932A04E093290481CF48165906F5
:101FD00008F42C017D01D3019ACFCB010E94F90DA9
:101FE0007C01009749F0AE01B8010E94FF0FC801C3
:101FF0000E94950E87016BCF10E000E068CFFB01D7
:10200000DC0102C001900D9241505040D8F7089574
:10201000FB01DC0101900D920020E1F70895F89496
:02202000FFCFF0
:1020220000002B04800000000000D103F1021E0317
:102032001E048F032D0381030D0A002D2D2D205325
:1020420074617274696E672047616E74727920439D
:1020520072616E65202D2D2D002D2D2D20436F7266
:1020620072656374696E6720616E676C65202D2DE1
:102072002D00416E676C65206F66667365743A2049
:10208200006E616E00696E66006F7666002D2D2D02
:102092002D2D2D2D2D2D2D2D2D2D2D2D2D2D2D2D6E
:1020A200005820706F736974696F6E20696E2061C9
:1020B2006E616C6F67526561643A20005920706FDF
:1020C200736974696F6E20696E20616E616C6F67EF
:1020D200526561643A20005820706F736974696FA9
:1020E2006E20696E20636D3A20005920706F73690B
:0E20F20074696F6E20696E20636D3A200000E5
:00000001FF
